{"contracts/NFTActivity.sol":{"NFTActivity":{"abi":[{"inputs":[{"internalType":"string","name":"_title","type":"string"},{"internalType":"string","name":"_description","type":"string"},{"internalType":"address","name":"_creator","type":"address"},{"internalType":"uint256","name":"_totalRounds","type":"uint256"},{"internalType":"uint256","name":"_maxParticipants","type":"uint256"},{"internalType":"uint256","name":"_startTime","type":"uint256"}],"stateMutability":"nonpayable","type":"constructor"},{"anonymous":false,"inputs":[{"indexed":true,"internalType":"address","name":"user","type":"address"},{"indexed":false,"internalType":"uint256","name":"day","type":"uint256"},{"indexed":false,"internalType":"uint256","name":"timestamp","type":"uint256"}],"name":"CheckIn","type":"event"},{"anonymous":false,"inputs":[{"indexed":false,"internalType":"uint256","name":"total","type":"uint256"}],"name":"Distributed","type":"event"},{"anonymous":false,"inputs":[{"indexed":true,"internalType":"address","name":"user","type":"address"},{"indexed":false,"internalType":"uint256","name":"missedRound","type":"uint256"}],"name":"Eliminated","type":"event"},{"anonymous":false,"inputs":[{"indexed":true,"internalType":"address","name":"user","type":"address"},{"indexed":false,"internalType":"uint256","name":"totalParticipants","type":"uint256"}],"name":"ParticipantJoined","type":"event"},{"anonymous":false,"inputs":[{"indexed":false,"internalType":"uint256","name":"winners","type":"uint256"}],"name":"Settled","type":"event"},{"inputs":[],"name":"aliveCount","outputs":[{"internalType":"uint256","name":"","type":"uint256"}],"stateMutability":"view","type":"function"},{"inputs":[],"name":"checkIn","outputs":[],"stateMutability":"nonpayable","type":"function"},{"inputs":[],"name":"createdAt","outputs":[{"internalType":"uint256","name":"","type":"uint256"}],"stateMutability":"view","type":"function"},{"inputs":[],"name":"creator","outputs":[{"internalType":"address","name":"","type":"address"}],"stateMutability":"view","type":"function"},{"inputs":[],"name":"description","outputs":[{"internalType":"string","name":"","type":"string"}],"stateMutability":"view","type":"function"},{"inputs":[],"name":"endActivity","outputs":[],"stateMutability":"nonpayable","type":"function"},{"inputs":[],"name":"getCurrentRound","outputs":[{"internalType":"uint256","name":"","type":"uint256"}],"stateMutability":"view","type":"function"},{"inputs":[{"internalType":"address","name":"_user","type":"address"}],"name":"getParticipantInfo","outputs":[{"internalType":"bool","name":"joined","type":"bool"},{"internalType":"bool","name":"eliminated","type":"bool"},{"internalType":"uint256","name":"lastCheckInRound","type":"uint256"},{"internalType":"bool","name":"rewardClaimed","type":"bool"},{"internalType":"bool","name":"isWinner","type":"bool"},{"internalType":"bool","name":"hasCheckedIn","type":"bool"},{"internalType":"bool","name":"isCompleted","type":"bool"}],"stateMutability":"view","type":"function"},{"inputs":[],"name":"joinActivity","outputs":[],"stateMutability":"nonpayable","type":"function"},{"inputs":[],"name":"maxParticipants","outputs":[{"internalType":"uint256","name":"","type":"uint256"}],"stateMutability":"view","type":"function"},{"inputs":[],"name":"participantCount","outputs":[{"internalType":"uint256","name":"","type":"uint256"}],"stateMutability":"view","type":"function"},{"inputs":[],"name":"roundDuration","outputs":[{"internalType":"uint256","name":"","type":"uint256"}],"stateMutability":"view","type":"function"},{"inputs":[],"name":"settledAt","outputs":[{"internalType":"uint256","name":"","type":"uint256"}],"stateMutability":"view","type":"function"},{"inputs":[],"name":"startActivity","outputs":[],"stateMutability":"nonpayable","type":"function"},{"inputs":[],"name":"startTime","outputs":[{"internalType":"uint256","name":"","type":"uint256"}],"stateMutability":"view","type":"function"},{"inputs":[],"name":"status","outputs":[{"internalType":"enum NFTActivity.Status","name":"","type":"uint8"}],"stateMutability":"view","type":"function"},{"inputs":[],"name":"title","outputs":[{"internalType":"string","name":"","type":"string"}],"stateMutability":"view","type":"function"},{"inputs":[],"name":"totalRounds","outputs":[{"internalType":"uint256","name":"","type":"uint256"}],"stateMutability":"view","type":"function"},{"inputs":[],"name":"viewStatus","outputs":[{"internalType":"enum NFTActivity.Status","name":"","type":"uint8"}],"stateMutability":"view","type":"function"},{"inputs":[],"name":"winnersCount","outputs":[{"internalType":"uint256","name":"","type":"uint256"}],"stateMutability":"view","type":"function"}],"evm":{"bytecode":{"linkReferences":{},"object":"608060405234610480576112ed8038038061001981610485565b92833981019060c0818303126104805780516001600160401b03811161048057826100459183016104aa565b602082015190926001600160401b038211610480576100659183016104aa565b60408201516001600160a01b038116908190036104805760608301519160a060808501519401519483151580610475575b1561043f5784156103fa57851580156103f0575b156103bb578051906001600160401b0382116102bb5760005490600182811c921680156103b1575b602083101461029b5781601f849311610342575b50602090601f83116001146102dc576000926102d1575b50508160011b916000199060031b1c1916176000555b8051906001600160401b0382116102bb5760015490600182811c921680156102b1575b602083101461029b5781601f84931161022b575b50602090601f83116001146101c3576000926101b8575b50508160011b916000199060031b1c1916176001555b600280546001600160a01b03191691909117905560055560075562015180600655600455426003556008805460ff19169055604051610dd790816105168239f35b015190503880610161565b600160009081528281209350601f198516905b81811061021357509084600195949392106101fa575b505050811b01600155610177565b015160001960f88460031b161c191690553880806101ec565b929360206001819287860151815501950193016101d6565b60016000529091507fb10e2d527612073b26eecdfd717e6a320cf44b4afac2b0732d9fcbe2b7fa0cf6601f840160051c81019160208510610291575b90601f859493920160051c01905b818110610282575061014a565b60008155849350600101610275565b9091508190610267565b634e487b7160e01b600052602260045260246000fd5b91607f1691610136565b634e487b7160e01b600052604160045260246000fd5b0151905038806100fd565b60008080528281209350601f198516905b81811061032a5750908460019594939210610311575b505050811b01600055610113565b015160001960f88460031b161c19169055388080610303565b929360206001819287860151815501950193016102ed565b600080529091507f290decd9548b62a8d60345a988386fc84ba6bc95484008f6362f93160ef3e563601f840160051c810191602085106103a7575b90601f859493920160051c01905b81811061039857506100e6565b6000815584935060010161038b565b909150819061037d565b91607f16916100d2565b60405162461bcd60e51b815260206004820152600d60248201526c14d510549517d25397d41054d5609a1b6044820152606490fd5b50428610156100aa565b60405162461bcd60e51b815260206004820152601560248201527f5a45524f5f4d41585f5041525449434950414e545300000000000000000000006044820152606490fd5b60405162461bcd60e51b815260206004820152600e60248201526d494e56414c49445f524f554e445360901b6044820152606490fd5b50605a841115610096565b600080fd5b6040519190601f01601f191682016001600160401b038111838210176102bb57604052565b81601f82011215610480578051906001600160401b0382116102bb576104d9601f8301601f1916602001610485565b92828452602083830101116104805760005b82811061050057505060206000918301015290565b806020809284010151828287010152016104eb56fe608080604052600436101561001357600080fd5b60003560e01c9081630145a938146109b65750806302d05d3f1461098d578063183ff08514610972578063200d2ed2146104a257806324924bf714610954578063362f04c01461093657806349713811146109185780634a79d50c1461085e578063678f5ecc1461074857806371bdce55146106665780637284e4161461054957806378e979251461052b5780638a5682991461050d578063a32bf597146104ea578063a99a67e6146104cc578063ac60a269146104a2578063cf09e0d014610484578063d9d57c941461029d578063dcae7cc51461011e5763f7cb789a146100fb57600080fd5b34610119576000366003190112610119576020600654604051908152f35b600080fd5b346101195760003660031901126101195761014460018060a01b03600254163314610c6a565b60ff6008541660038110156102875760011461015f81610a2d565b610167610d0e565b6000901561025057600260ff19600854161760085542600b5580600a55805b600c5481101561021f5761019981610cdd565b905460039190911b1c6001600160a01b03168252600d60205260408220805460081c60ff161580610210575b6101d3575b50600101610186565b600201805461ff001916610100179055600a5460001981146101fc576001908101600a556101ca565b634e487b7160e01b83526011600452602483fd5b506001810154600554146101c5565b507fcc3183593ff0e17b930d6f19f832ddcf865bf7ef55eb16754850c55ac447b2ad6020600a54604051908152a180f35b60405162461bcd60e51b815260206004820152600f60248201526e1053149150511657d4d15515131151608a1b6044820152606490fd5b634e487b7160e01b600052602160045260246000fd5b34610119576000366003190112610119576102b6610d0e565b60ff60085416600381101561028757610451576004548015908115610447575b501561041057600c5460075411156103cb5733600052600d6020526040600020805460ff81166103955760ff191660019081178255600019910155600c546801000000000000000081101561037f578060016103359201600c55610cdd565b81549060031b9033821b9160018060a01b03901b1916179055600c546040519081527f8123641a38ad3476ac345fc38496fa9edc26a110698c8c0c9fffc30f546f918c60203392a2005b634e487b7160e01b600052604160045260246000fd5b60405162461bcd60e51b815260206004820152600e60248201526d1053149150511657d293d253915160921b6044820152606490fd5b60405162461bcd60e51b815260206004820152601860248201527f4d41585f5041525449434950414e54535f5245414348454400000000000000006044820152606490fd5b60405162461bcd60e51b815260206004820152600f60248201526e1053149150511657d4d51054951151608a1b6044820152606490fd5b90504210816102d6565b60405162461bcd60e51b815260206004820152600b60248201526a1293d25397d0d313d4d15160aa1b6044820152606490fd5b34610119576000366003190112610119576020600354604051908152f35b34610119576000366003190112610119576104c860ff60085416604051918291826109d1565b0390f35b34610119576000366003190112610119576020600b54604051908152f35b34610119576000366003190112610119576020610505610ca5565b604051908152f35b34610119576000366003190112610119576020600554604051908152f35b34610119576000366003190112610119576020600454604051908152f35b34610119576000366003190112610119576000604051816001548060011c9060018116801561065c575b6020831081146106485782855290811561062c57506001146105d8575b50819003601f01601f1916810167ffffffffffffffff8111828210176105c4576104c89250604052604051918291826109e4565b634e487b7160e01b83526041600452602483fd5b600184529050827fb10e2d527612073b26eecdfd717e6a320cf44b4afac2b0732d9fcbe2b7fa0cf65b82821061061657506020915082010183610590565b6001816020925483858801015201910190610601565b90506020925060ff191682840152151560051b82010183610590565b634e487b7160e01b86526022600452602486fd5b91607f1691610573565b34610119576020366003190112610119576004356001600160a01b0381169081900361011957600052600d602052604060002080546001820154916000198314928360001461073f5760026000925b01549160ff8460081c1615809281610733575b5082610711575b9160e0959160ff949385604051971615158752156020870152604086015283831615156060860152151560808501521560a084015260081c16151560c0820152f35b9291509360ff60085416926003841015610287579094919260021491906106cf565b600554149250866106c8565b600281926106b5565b346101195760003660031901126101195761076e60018060a01b03600254163314610c6a565b60ff60085416600381101561028757610819576004546107e057600c54156107a957426004556008805460ff19166001179055600c54600955005b60405162461bcd60e51b815260206004820152600f60248201526e4e4f5f5041525449434950414e545360881b6044820152606490fd5b60405162461bcd60e51b81526020600482015260116024820152701053149150511657d4d0d2115115531151607a1b6044820152606490fd5b60405162461bcd60e51b815260206004820152601a60248201527f414c52454144595f535441525445445f4f525f534554544c45440000000000006044820152606490fd5b346101195760003660031901126101195760006040518182548060011c9060018116801561090e575b6020831081146106485782855290811561062c57506001146108d75750819003601f01601f1916810167ffffffffffffffff8111828210176105c4576104c89250604052604051918291826109e4565b90508280526020832083905b8282106108f857506020915082010183610590565b60018160209254838588010152019101906108e3565b91607f1691610887565b34610119576000366003190112610119576020600a54604051908152f35b34610119576000366003190112610119576020600c54604051908152f35b34610119576000366003190112610119576020600754604051908152f35b346101195760003660031901126101195761098b610a66565b005b34610119576000366003190112610119576002546040516001600160a01b039091168152602090f35b34610119576000366003190112610119576020906009548152f35b9190602083019260038210156102875752565b91909160208152825180602083015260005b818110610a17575060409293506000838284010152601f8019910116010190565b80602080928701015160408286010152016109f6565b15610a3457565b60405162461bcd60e51b815260206004820152600a6024820152694e4f545f41435449564560b01b6044820152606490fd5b610a6e610d0e565b60ff600854166003811015610287576001610a899114610a2d565b33600052600d602052604060002080549060ff821615610c385760ff8260081c16610c0657610ab6610d4a565b9081151580610bfa575b15610bc5576001810190815493838514610b8b5760018411610b17575b5050819250556040519081524260208201527fb9cfea4717f167774a6e8643c33472935d3ef918453525eefca6936078b7cfdd60403392a2565b600019840194848611610b75578514610add5761ff00191661010017905550506009548015610b7557600019016009556040519081527f7b9fff6875da74091ef936e09402335c2f212c084276ee10155cf2fddafb7a5b60203392a2565b634e487b7160e01b600052601160045260246000fd5b60405162461bcd60e51b815260206004820152601260248201527120a62922a0a22cafa1a422a1a5a2a22fa4a760711b6044820152606490fd5b60405162461bcd60e51b815260206004820152600d60248201526c1253959053125117d493d55391609a1b6044820152606490fd5b50600554821115610ac0565b60405162461bcd60e51b815260206004820152600a6024820152691153125352539055115160b21b6044820152606490fd5b60405162461bcd60e51b815260206004820152600a6024820152691393d517d293d253915160b21b6044820152606490fd5b15610c7157565b60405162461bcd60e51b815260206004820152600c60248201526b27a7262cafa1a922a0aa27a960a11b6044820152606490fd5b60ff60085416600381101561028757600114801590610cd3575b610cce57610ccb610d4a565b90565b600090565b5060045415610cbf565b600c54811015610cf857600c60005260206000200190600090565b634e487b7160e01b600052603260045260246000fd5b60ff60085416600381101561028757600114801590610d40575b610d3e57610d34610d4a565b60055410610d3e57565b565b5060045415610d28565b60045480158015610d98575b610d92574203428111610b7557600654908115610d7c570460018101809111610b755790565b634e487b7160e01b600052601260045260246000fd5b50600090565b50804210610d5656fea2646970667358221220b5e60140ab8a9c420967a5b1dca9b33c4209e7af5f0e1e8b2c5c9942fae7917d64736f6c634300081c0033","opcodes":"PUSH1 0x80 PUSH1 0x40 MSTORE CALLVALUE PUSH2 0x480 JUMPI PUSH2 0x12ED DUP1 CODESIZE SUB DUP1 PUSH2 0x19 DUP2 PUSH2 0x485 JUMP JUMPDEST SWAP3 DUP4 CODECOPY DUP2 ADD SWAP1 PUSH1 0xC0 DUP2 DUP4 SUB SLT PUSH2 0x480 JUMPI DUP1 MLOAD PUSH1 0x1 PUSH1 0x1 PUSH1 0x40 SHL SUB DUP2 GT PUSH2 0x480 JUMPI DUP3 PUSH2 0x45 SWAP2 DUP4 ADD PUSH2 0x4AA JUMP JUMPDEST PUSH1 0x20 DUP3 ADD MLOAD SWAP1 SWAP3 PUSH1 0x1 PUSH1 0x1 PUSH1 0x40 SHL SUB DUP3 GT PUSH2 0x480 JUMPI PUSH2 0x65 SWAP2 DUP4 ADD PUSH2 0x4AA JUMP JUMPDEST PUSH1 0x40 DUP3 ADD MLOAD PUSH1 0x1 PUSH1 0x1 PUSH1 0xA0 SHL SUB DUP2 AND SWAP1 DUP2 SWAP1 SUB PUSH2 0x480 JUMPI PUSH1 0x60 DUP4 ADD MLOAD SWAP2 PUSH1 0xA0 PUSH1 0x80 DUP6 ADD MLOAD SWAP5 ADD MLOAD SWAP5 DUP4 ISZERO ISZERO DUP1 PUSH2 0x475 JUMPI JUMPDEST ISZERO PUSH2 0x43F JUMPI DUP5 ISZERO PUSH2 0x3FA JUMPI DUP6 ISZERO DUP1 ISZERO PUSH2 0x3F0 JUMPI JUMPDEST ISZERO PUSH2 0x3BB JUMPI DUP1 MLOAD SWAP1 PUSH1 0x1 PUSH1 0x1 PUSH1 0x40 SHL SUB DUP3 GT PUSH2 0x2BB JUMPI PUSH1 0x0 SLOAD SWAP1 PUSH1 0x1 DUP3 DUP2 SHR SWAP3 AND DUP1 ISZERO PUSH2 0x3B1 JUMPI JUMPDEST PUSH1 0x20 DUP4 LT EQ PUSH2 0x29B JUMPI DUP2 PUSH1 0x1F DUP5 SWAP4 GT PUSH2 0x342 JUMPI JUMPDEST POP PUSH1 0x20 SWAP1 PUSH1 0x1F DUP4 GT PUSH1 0x1 EQ PUSH2 0x2DC JUMPI PUSH1 0x0 SWAP3 PUSH2 0x2D1 JUMPI JUMPDEST POP POP DUP2 PUSH1 0x1 SHL SWAP2 PUSH1 0x0 NOT SWAP1 PUSH1 0x3 SHL SHR NOT AND OR PUSH1 0x0 SSTORE JUMPDEST DUP1 MLOAD SWAP1 PUSH1 0x1 PUSH1 0x1 PUSH1 0x40 SHL SUB DUP3 GT PUSH2 0x2BB JUMPI PUSH1 0x1 SLOAD SWAP1 PUSH1 0x1 DUP3 DUP2 SHR SWAP3 AND DUP1 ISZERO PUSH2 0x2B1 JUMPI JUMPDEST PUSH1 0x20 DUP4 LT EQ PUSH2 0x29B JUMPI DUP2 PUSH1 0x1F DUP5 SWAP4 GT PUSH2 0x22B JUMPI JUMPDEST POP PUSH1 0x20 SWAP1 PUSH1 0x1F DUP4 GT PUSH1 0x1 EQ PUSH2 0x1C3 JUMPI PUSH1 0x0 SWAP3 PUSH2 0x1B8 JUMPI JUMPDEST POP POP DUP2 PUSH1 0x1 SHL SWAP2 PUSH1 0x0 NOT SWAP1 PUSH1 0x3 SHL SHR NOT AND OR PUSH1 0x1 SSTORE JUMPDEST PUSH1 0x2 DUP1 SLOAD PUSH1 0x1 PUSH1 0x1 PUSH1 0xA0 SHL SUB NOT AND SWAP2 SWAP1 SWAP2 OR SWAP1 SSTORE PUSH1 0x5 SSTORE PUSH1 0x7 SSTORE PUSH3 0x15180 PUSH1 0x6 SSTORE PUSH1 0x4 SSTORE TIMESTAMP PUSH1 0x3 SSTORE PUSH1 0x8 DUP1 SLOAD PUSH1 0xFF NOT AND SWAP1 SSTORE PUSH1 0x40 MLOAD PUSH2 0xDD7 SWAP1 DUP2 PUSH2 0x516 DUP3 CODECOPY RETURN JUMPDEST ADD MLOAD SWAP1 POP CODESIZE DUP1 PUSH2 0x161 JUMP JUMPDEST PUSH1 0x1 PUSH1 0x0 SWAP1 DUP2 MSTORE DUP3 DUP2 KECCAK256 SWAP4 POP PUSH1 0x1F NOT DUP6 AND SWAP1 JUMPDEST DUP2 DUP2 LT PUSH2 0x213 JUMPI POP SWAP1 DUP5 PUSH1 0x1 SWAP6 SWAP5 SWAP4 SWAP3 LT PUSH2 0x1FA JUMPI JUMPDEST POP POP POP DUP2 SHL ADD PUSH1 0x1 SSTORE PUSH2 0x177 JUMP JUMPDEST ADD MLOAD PUSH1 0x0 NOT PUSH1 0xF8 DUP5 PUSH1 0x3 SHL AND SHR NOT AND SWAP1 SSTORE CODESIZE DUP1 DUP1 PUSH2 0x1EC JUMP JUMPDEST SWAP3 SWAP4 PUSH1 0x20 PUSH1 0x1 DUP2 SWAP3 DUP8 DUP7 ADD MLOAD DUP2 SSTORE ADD SWAP6 ADD SWAP4 ADD PUSH2 0x1D6 JUMP JUMPDEST PUSH1 0x1 PUSH1 0x0 MSTORE SWAP1 SWAP2 POP PUSH32 0xB10E2D527612073B26EECDFD717E6A320CF44B4AFAC2B0732D9FCBE2B7FA0CF6 PUSH1 0x1F DUP5 ADD PUSH1 0x5 SHR DUP2 ADD SWAP2 PUSH1 0x20 DUP6 LT PUSH2 0x291 JUMPI JUMPDEST SWAP1 PUSH1 0x1F DUP6 SWAP5 SWAP4 SWAP3 ADD PUSH1 0x5 SHR ADD SWAP1 JUMPDEST DUP2 DUP2 LT PUSH2 0x282 JUMPI POP PUSH2 0x14A JUMP JUMPDEST PUSH1 0x0 DUP2 SSTORE DUP5 SWAP4 POP PUSH1 0x1 ADD PUSH2 0x275 JUMP JUMPDEST SWAP1 SWAP2 POP DUP2 SWAP1 PUSH2 0x267 JUMP JUMPDEST PUSH4 0x4E487B71 PUSH1 0xE0 SHL PUSH1 0x0 MSTORE PUSH1 0x22 PUSH1 0x4 MSTORE PUSH1 0x24 PUSH1 0x0 REVERT JUMPDEST SWAP2 PUSH1 0x7F AND SWAP2 PUSH2 0x136 JUMP JUMPDEST PUSH4 0x4E487B71 PUSH1 0xE0 SHL PUSH1 0x0 MSTORE PUSH1 0x41 PUSH1 0x4 MSTORE PUSH1 0x24 PUSH1 0x0 REVERT JUMPDEST ADD MLOAD SWAP1 POP CODESIZE DUP1 PUSH2 0xFD JUMP JUMPDEST PUSH1 0x0 DUP1 DUP1 MSTORE DUP3 DUP2 KECCAK256 SWAP4 POP PUSH1 0x1F NOT DUP6 AND SWAP1 JUMPDEST DUP2 DUP2 LT PUSH2 0x32A JUMPI POP SWAP1 DUP5 PUSH1 0x1 SWAP6 SWAP5 SWAP4 SWAP3 LT PUSH2 0x311 JUMPI JUMPDEST POP POP POP DUP2 SHL ADD PUSH1 0x0 SSTORE PUSH2 0x113 JUMP JUMPDEST ADD MLOAD PUSH1 0x0 NOT PUSH1 0xF8 DUP5 PUSH1 0x3 SHL AND SHR NOT AND SWAP1 SSTORE CODESIZE DUP1 DUP1 PUSH2 0x303 JUMP JUMPDEST SWAP3 SWAP4 PUSH1 0x20 PUSH1 0x1 DUP2 SWAP3 DUP8 DUP7 ADD MLOAD DUP2 SSTORE ADD SWAP6 ADD SWAP4 ADD PUSH2 0x2ED JUMP JUMPDEST PUSH1 0x0 DUP1 MSTORE SWAP1 SWAP2 POP PUSH32 0x290DECD9548B62A8D60345A988386FC84BA6BC95484008F6362F93160EF3E563 PUSH1 0x1F DUP5 ADD PUSH1 0x5 SHR DUP2 ADD SWAP2 PUSH1 0x20 DUP6 LT PUSH2 0x3A7 JUMPI JUMPDEST SWAP1 PUSH1 0x1F DUP6 SWAP5 SWAP4 SWAP3 ADD PUSH1 0x5 SHR ADD SWAP1 JUMPDEST DUP2 DUP2 LT PUSH2 0x398 JUMPI POP PUSH2 0xE6 JUMP JUMPDEST PUSH1 0x0 DUP2 SSTORE DUP5 SWAP4 POP PUSH1 0x1 ADD PUSH2 0x38B JUMP JUMPDEST SWAP1 SWAP2 POP DUP2 SWAP1 PUSH2 0x37D JUMP JUMPDEST SWAP2 PUSH1 0x7F AND SWAP2 PUSH2 0xD2 JUMP JUMPDEST PUSH1 0x40 MLOAD PUSH3 0x461BCD PUSH1 0xE5 SHL DUP2 MSTORE PUSH1 0x20 PUSH1 0x4 DUP3 ADD MSTORE PUSH1 0xD PUSH1 0x24 DUP3 ADD MSTORE PUSH13 0x14D510549517D25397D41054D5 PUSH1 0x9A SHL PUSH1 0x44 DUP3 ADD MSTORE PUSH1 0x64 SWAP1 REVERT JUMPDEST POP TIMESTAMP DUP7 LT ISZERO PUSH2 0xAA JUMP JUMPDEST PUSH1 0x40 MLOAD PUSH3 0x461BCD PUSH1 0xE5 SHL DUP2 MSTORE PUSH1 0x20 PUSH1 0x4 DUP3 ADD MSTORE PUSH1 0x15 PUSH1 0x24 DUP3 ADD MSTORE PUSH32 0x5A45524F5F4D41585F5041525449434950414E54530000000000000000000000 PUSH1 0x44 DUP3 ADD MSTORE PUSH1 0x64 SWAP1 REVERT JUMPDEST PUSH1 0x40 MLOAD PUSH3 0x461BCD PUSH1 0xE5 SHL DUP2 MSTORE PUSH1 0x20 PUSH1 0x4 DUP3 ADD MSTORE PUSH1 0xE PUSH1 0x24 DUP3 ADD MSTORE PUSH14 0x494E56414C49445F524F554E4453 PUSH1 0x90 SHL PUSH1 0x44 DUP3 ADD MSTORE PUSH1 0x64 SWAP1 REVERT JUMPDEST POP PUSH1 0x5A DUP5 GT ISZERO PUSH2 0x96 JUMP JUMPDEST PUSH1 0x0 DUP1 REVERT JUMPDEST PUSH1 0x40 MLOAD SWAP2 SWAP1 PUSH1 0x1F ADD PUSH1 0x1F NOT AND DUP3 ADD PUSH1 0x1 PUSH1 0x1 PUSH1 0x40 SHL SUB DUP2 GT DUP4 DUP3 LT OR PUSH2 0x2BB JUMPI PUSH1 0x40 MSTORE JUMP JUMPDEST DUP2 PUSH1 0x1F DUP3 ADD SLT ISZERO PUSH2 0x480 JUMPI DUP1 MLOAD SWAP1 PUSH1 0x1 PUSH1 0x1 PUSH1 0x40 SHL SUB DUP3 GT PUSH2 0x2BB JUMPI PUSH2 0x4D9 PUSH1 0x1F DUP4 ADD PUSH1 0x1F NOT AND PUSH1 0x20 ADD PUSH2 0x485 JUMP JUMPDEST SWAP3 DUP3 DUP5 MSTORE PUSH1 0x20 DUP4 DUP4 ADD ADD GT PUSH2 0x480 JUMPI PUSH1 0x0 JUMPDEST DUP3 DUP2 LT PUSH2 0x500 JUMPI POP POP PUSH1 0x20 PUSH1 0x0 SWAP2 DUP4 ADD ADD MSTORE SWAP1 JUMP JUMPDEST DUP1 PUSH1 0x20 DUP1 SWAP3 DUP5 ADD ADD MLOAD DUP3 DUP3 DUP8 ADD ADD MSTORE ADD PUSH2 0x4EB JUMP INVALID PUSH1 0x80 DUP1 PUSH1 0x40 MSTORE PUSH1 0x4 CALLDATASIZE LT ISZERO PUSH2 0x13 JUMPI PUSH1 0x0 DUP1 REVERT JUMPDEST PUSH1 0x0 CALLDATALOAD PUSH1 0xE0 SHR SWAP1 DUP2 PUSH4 0x145A938 EQ PUSH2 0x9B6 JUMPI POP DUP1 PUSH4 0x2D05D3F EQ PUSH2 0x98D JUMPI DUP1 PUSH4 0x183FF085 EQ PUSH2 0x972 JUMPI DUP1 PUSH4 0x200D2ED2 EQ PUSH2 0x4A2 JUMPI DUP1 PUSH4 0x24924BF7 EQ PUSH2 0x954 JUMPI DUP1 PUSH4 0x362F04C0 EQ PUSH2 0x936 JUMPI DUP1 PUSH4 0x49713811 EQ PUSH2 0x918 JUMPI DUP1 PUSH4 0x4A79D50C EQ PUSH2 0x85E JUMPI DUP1 PUSH4 0x678F5ECC EQ PUSH2 0x748 JUMPI DUP1 PUSH4 0x71BDCE55 EQ PUSH2 0x666 JUMPI DUP1 PUSH4 0x7284E416 EQ PUSH2 0x549 JUMPI DUP1 PUSH4 0x78E97925 EQ PUSH2 0x52B JUMPI DUP1 PUSH4 0x8A568299 EQ PUSH2 0x50D JUMPI DUP1 PUSH4 0xA32BF597 EQ PUSH2 0x4EA JUMPI DUP1 PUSH4 0xA99A67E6 EQ PUSH2 0x4CC JUMPI DUP1 PUSH4 0xAC60A269 EQ PUSH2 0x4A2 JUMPI DUP1 PUSH4 0xCF09E0D0 EQ PUSH2 0x484 JUMPI DUP1 PUSH4 0xD9D57C94 EQ PUSH2 0x29D JUMPI DUP1 PUSH4 0xDCAE7CC5 EQ PUSH2 0x11E JUMPI PUSH4 0xF7CB789A EQ PUSH2 0xFB JUMPI PUSH1 0x0 DUP1 REVERT JUMPDEST CALLVALUE PUSH2 0x119 JUMPI PUSH1 0x0 CALLDATASIZE PUSH1 0x3 NOT ADD SLT PUSH2 0x119 JUMPI PUSH1 0x20 PUSH1 0x6 SLOAD PUSH1 0x40 MLOAD SWAP1 DUP2 MSTORE RETURN JUMPDEST PUSH1 0x0 DUP1 REVERT JUMPDEST CALLVALUE PUSH2 0x119 JUMPI PUSH1 0x0 CALLDATASIZE PUSH1 0x3 NOT ADD SLT PUSH2 0x119 JUMPI PUSH2 0x144 PUSH1 0x1 DUP1 PUSH1 0xA0 SHL SUB PUSH1 0x2 SLOAD AND CALLER EQ PUSH2 0xC6A JUMP JUMPDEST PUSH1 0xFF PUSH1 0x8 SLOAD AND PUSH1 0x3 DUP2 LT ISZERO PUSH2 0x287 JUMPI PUSH1 0x1 EQ PUSH2 0x15F DUP2 PUSH2 0xA2D JUMP JUMPDEST PUSH2 0x167 PUSH2 0xD0E JUMP JUMPDEST PUSH1 0x0 SWAP1 ISZERO PUSH2 0x250 JUMPI PUSH1 0x2 PUSH1 0xFF NOT PUSH1 0x8 SLOAD AND OR PUSH1 0x8 SSTORE TIMESTAMP PUSH1 0xB SSTORE DUP1 PUSH1 0xA SSTORE DUP1 JUMPDEST PUSH1 0xC SLOAD DUP2 LT ISZERO PUSH2 0x21F JUMPI PUSH2 0x199 DUP2 PUSH2 0xCDD JUMP JUMPDEST SWAP1 SLOAD PUSH1 0x3 SWAP2 SWAP1 SWAP2 SHL SHR PUSH1 0x1 PUSH1 0x1 PUSH1 0xA0 SHL SUB AND DUP3 MSTORE PUSH1 0xD PUSH1 0x20 MSTORE PUSH1 0x40 DUP3 KECCAK256 DUP1 SLOAD PUSH1 0x8 SHR PUSH1 0xFF AND ISZERO DUP1 PUSH2 0x210 JUMPI JUMPDEST PUSH2 0x1D3 JUMPI JUMPDEST POP PUSH1 0x1 ADD PUSH2 0x186 JUMP JUMPDEST PUSH1 0x2 ADD DUP1 SLOAD PUSH2 0xFF00 NOT AND PUSH2 0x100 OR SWAP1 SSTORE PUSH1 0xA SLOAD PUSH1 0x0 NOT DUP2 EQ PUSH2 0x1FC JUMPI PUSH1 0x1 SWAP1 DUP2 ADD PUSH1 0xA SSTORE PUSH2 0x1CA JUMP JUMPDEST PUSH4 0x4E487B71 PUSH1 0xE0 SHL DUP4 MSTORE PUSH1 0x11 PUSH1 0x4 MSTORE PUSH1 0x24 DUP4 REVERT JUMPDEST POP PUSH1 0x1 DUP2 ADD SLOAD PUSH1 0x5 SLOAD EQ PUSH2 0x1C5 JUMP JUMPDEST POP PUSH32 0xCC3183593FF0E17B930D6F19F832DDCF865BF7EF55EB16754850C55AC447B2AD PUSH1 0x20 PUSH1 0xA SLOAD PUSH1 0x40 MLOAD SWAP1 DUP2 MSTORE LOG1 DUP1 RETURN JUMPDEST PUSH1 0x40 MLOAD PUSH3 0x461BCD PUSH1 0xE5 SHL DUP2 MSTORE PUSH1 0x20 PUSH1 0x4 DUP3 ADD MSTORE PUSH1 0xF PUSH1 0x24 DUP3 ADD MSTORE PUSH15 0x1053149150511657D4D15515131151 PUSH1 0x8A SHL PUSH1 0x44 DUP3 ADD MSTORE PUSH1 0x64 SWAP1 REVERT JUMPDEST PUSH4 0x4E487B71 PUSH1 0xE0 SHL PUSH1 0x0 MSTORE PUSH1 0x21 PUSH1 0x4 MSTORE PUSH1 0x24 PUSH1 0x0 REVERT JUMPDEST CALLVALUE PUSH2 0x119 JUMPI PUSH1 0x0 CALLDATASIZE PUSH1 0x3 NOT ADD SLT PUSH2 0x119 JUMPI PUSH2 0x2B6 PUSH2 0xD0E JUMP JUMPDEST PUSH1 0xFF PUSH1 0x8 SLOAD AND PUSH1 0x3 DUP2 LT ISZERO PUSH2 0x287 JUMPI PUSH2 0x451 JUMPI PUSH1 0x4 SLOAD DUP1 ISZERO SWAP1 DUP2 ISZERO PUSH2 0x447 JUMPI JUMPDEST POP ISZERO PUSH2 0x410 JUMPI PUSH1 0xC SLOAD PUSH1 0x7 SLOAD GT ISZERO PUSH2 0x3CB JUMPI CALLER PUSH1 0x0 MSTORE PUSH1 0xD PUSH1 0x20 MSTORE PUSH1 0x40 PUSH1 0x0 KECCAK256 DUP1 SLOAD PUSH1 0xFF DUP2 AND PUSH2 0x395 JUMPI PUSH1 0xFF NOT AND PUSH1 0x1 SWAP1 DUP2 OR DUP3 SSTORE PUSH1 0x0 NOT SWAP2 ADD SSTORE PUSH1 0xC SLOAD PUSH9 0x10000000000000000 DUP2 LT ISZERO PUSH2 0x37F JUMPI DUP1 PUSH1 0x1 PUSH2 0x335 SWAP3 ADD PUSH1 0xC SSTORE PUSH2 0xCDD JUMP JUMPDEST DUP2 SLOAD SWAP1 PUSH1 0x3 SHL SWAP1 CALLER DUP3 SHL SWAP2 PUSH1 0x1 DUP1 PUSH1 0xA0 SHL SUB SWAP1 SHL NOT AND OR SWAP1 SSTORE PUSH1 0xC SLOAD PUSH1 0x40 MLOAD SWAP1 DUP2 MSTORE PUSH32 0x8123641A38AD3476AC345FC38496FA9EDC26A110698C8C0C9FFFC30F546F918C PUSH1 0x20 CALLER SWAP3 LOG2 STOP JUMPDEST PUSH4 0x4E487B71 PUSH1 0xE0 SHL PUSH1 0x0 MSTORE PUSH1 0x41 PUSH1 0x4 MSTORE PUSH1 0x24 PUSH1 0x0 REVERT JUMPDEST PUSH1 0x40 MLOAD PUSH3 0x461BCD PUSH1 0xE5 SHL DUP2 MSTORE PUSH1 0x20 PUSH1 0x4 DUP3 ADD MSTORE PUSH1 0xE PUSH1 0x24 DUP3 ADD MSTORE PUSH14 0x1053149150511657D293D2539151 PUSH1 0x92 SHL PUSH1 0x44 DUP3 ADD MSTORE PUSH1 0x64 SWAP1 REVERT JUMPDEST PUSH1 0x40 MLOAD PUSH3 0x461BCD PUSH1 0xE5 SHL DUP2 MSTORE PUSH1 0x20 PUSH1 0x4 DUP3 ADD MSTORE PUSH1 0x18 PUSH1 0x24 DUP3 ADD MSTORE PUSH32 0x4D41585F5041525449434950414E54535F524541434845440000000000000000 PUSH1 0x44 DUP3 ADD MSTORE PUSH1 0x64 SWAP1 REVERT JUMPDEST PUSH1 0x40 MLOAD PUSH3 0x461BCD PUSH1 0xE5 SHL DUP2 MSTORE PUSH1 0x20 PUSH1 0x4 DUP3 ADD MSTORE PUSH1 0xF PUSH1 0x24 DUP3 ADD MSTORE PUSH15 0x1053149150511657D4D51054951151 PUSH1 0x8A SHL PUSH1 0x44 DUP3 ADD MSTORE PUSH1 0x64 SWAP1 REVERT JUMPDEST SWAP1 POP TIMESTAMP LT DUP2 PUSH2 0x2D6 JUMP JUMPDEST PUSH1 0x40 MLOAD PUSH3 0x461BCD PUSH1 0xE5 SHL DUP2 MSTORE PUSH1 0x20 PUSH1 0x4 DUP3 ADD MSTORE PUSH1 0xB PUSH1 0x24 DUP3 ADD MSTORE PUSH11 0x1293D25397D0D313D4D151 PUSH1 0xAA SHL PUSH1 0x44 DUP3 ADD MSTORE PUSH1 0x64 SWAP1 REVERT JUMPDEST CALLVALUE PUSH2 0x119 JUMPI PUSH1 0x0 CALLDATASIZE PUSH1 0x3 NOT ADD SLT PUSH2 0x119 JUMPI PUSH1 0x20 PUSH1 0x3 SLOAD PUSH1 0x40 MLOAD SWAP1 DUP2 MSTORE RETURN JUMPDEST CALLVALUE PUSH2 0x119 JUMPI PUSH1 0x0 CALLDATASIZE PUSH1 0x3 NOT ADD SLT PUSH2 0x119 JUMPI PUSH2 0x4C8 PUSH1 0xFF PUSH1 0x8 SLOAD AND PUSH1 0x40 MLOAD SWAP2 DUP3 SWAP2 DUP3 PUSH2 0x9D1 JUMP JUMPDEST SUB SWAP1 RETURN JUMPDEST CALLVALUE PUSH2 0x119 JUMPI PUSH1 0x0 CALLDATASIZE PUSH1 0x3 NOT ADD SLT PUSH2 0x119 JUMPI PUSH1 0x20 PUSH1 0xB SLOAD PUSH1 0x40 MLOAD SWAP1 DUP2 MSTORE RETURN JUMPDEST CALLVALUE PUSH2 0x119 JUMPI PUSH1 0x0 CALLDATASIZE PUSH1 0x3 NOT ADD SLT PUSH2 0x119 JUMPI PUSH1 0x20 PUSH2 0x505 PUSH2 0xCA5 JUMP JUMPDEST PUSH1 0x40 MLOAD SWAP1 DUP2 MSTORE RETURN JUMPDEST CALLVALUE PUSH2 0x119 JUMPI PUSH1 0x0 CALLDATASIZE PUSH1 0x3 NOT ADD SLT PUSH2 0x119 JUMPI PUSH1 0x20 PUSH1 0x5 SLOAD PUSH1 0x40 MLOAD SWAP1 DUP2 MSTORE RETURN JUMPDEST CALLVALUE PUSH2 0x119 JUMPI PUSH1 0x0 CALLDATASIZE PUSH1 0x3 NOT ADD SLT PUSH2 0x119 JUMPI PUSH1 0x20 PUSH1 0x4 SLOAD PUSH1 0x40 MLOAD SWAP1 DUP2 MSTORE RETURN JUMPDEST CALLVALUE PUSH2 0x119 JUMPI PUSH1 0x0 CALLDATASIZE PUSH1 0x3 NOT ADD SLT PUSH2 0x119 JUMPI PUSH1 0x0 PUSH1 0x40 MLOAD DUP2 PUSH1 0x1 SLOAD DUP1 PUSH1 0x1 SHR SWAP1 PUSH1 0x1 DUP2 AND DUP1 ISZERO PUSH2 0x65C JUMPI JUMPDEST PUSH1 0x20 DUP4 LT DUP2 EQ PUSH2 0x648 JUMPI DUP3 DUP6 MSTORE SWAP1 DUP2 ISZERO PUSH2 0x62C JUMPI POP PUSH1 0x1 EQ PUSH2 0x5D8 JUMPI JUMPDEST POP DUP2 SWAP1 SUB PUSH1 0x1F ADD PUSH1 0x1F NOT AND DUP2 ADD PUSH8 0xFFFFFFFFFFFFFFFF DUP2 GT DUP3 DUP3 LT OR PUSH2 0x5C4 JUMPI PUSH2 0x4C8 SWAP3 POP PUSH1 0x40 MSTORE PUSH1 0x40 MLOAD SWAP2 DUP3 SWAP2 DUP3 PUSH2 0x9E4 JUMP JUMPDEST PUSH4 0x4E487B71 PUSH1 0xE0 SHL DUP4 MSTORE PUSH1 0x41 PUSH1 0x4 MSTORE PUSH1 0x24 DUP4 REVERT JUMPDEST PUSH1 0x1 DUP5 MSTORE SWAP1 POP DUP3 PUSH32 0xB10E2D527612073B26EECDFD717E6A320CF44B4AFAC2B0732D9FCBE2B7FA0CF6 JUMPDEST DUP3 DUP3 LT PUSH2 0x616 JUMPI POP PUSH1 0x20 SWAP2 POP DUP3 ADD ADD DUP4 PUSH2 0x590 JUMP JUMPDEST PUSH1 0x1 DUP2 PUSH1 0x20 SWAP3 SLOAD DUP4 DUP6 DUP9 ADD ADD MSTORE ADD SWAP2 ADD SWAP1 PUSH2 0x601 JUMP JUMPDEST SWAP1 POP PUSH1 0x20 SWAP3 POP PUSH1 0xFF NOT AND DUP3 DUP5 ADD MSTORE ISZERO ISZERO PUSH1 0x5 SHL DUP3 ADD ADD DUP4 PUSH2 0x590 JUMP JUMPDEST PUSH4 0x4E487B71 PUSH1 0xE0 SHL DUP7 MSTORE PUSH1 0x22 PUSH1 0x4 MSTORE PUSH1 0x24 DUP7 REVERT JUMPDEST SWAP2 PUSH1 0x7F AND SWAP2 PUSH2 0x573 JUMP JUMPDEST CALLVALUE PUSH2 0x119 JUMPI PUSH1 0x20 CALLDATASIZE PUSH1 0x3 NOT ADD SLT PUSH2 0x119 JUMPI PUSH1 0x4 CALLDATALOAD PUSH1 0x1 PUSH1 0x1 PUSH1 0xA0 SHL SUB DUP2 AND SWAP1 DUP2 SWAP1 SUB PUSH2 0x119 JUMPI PUSH1 0x0 MSTORE PUSH1 0xD PUSH1 0x20 MSTORE PUSH1 0x40 PUSH1 0x0 KECCAK256 DUP1 SLOAD PUSH1 0x1 DUP3 ADD SLOAD SWAP2 PUSH1 0x0 NOT DUP4 EQ SWAP3 DUP4 PUSH1 0x0 EQ PUSH2 0x73F JUMPI PUSH1 0x2 PUSH1 0x0 SWAP3 JUMPDEST ADD SLOAD SWAP2 PUSH1 0xFF DUP5 PUSH1 0x8 SHR AND ISZERO DUP1 SWAP3 DUP2 PUSH2 0x733 JUMPI JUMPDEST POP DUP3 PUSH2 0x711 JUMPI JUMPDEST SWAP2 PUSH1 0xE0 SWAP6 SWAP2 PUSH1 0xFF SWAP5 SWAP4 DUP6 PUSH1 0x40 MLOAD SWAP8 AND ISZERO ISZERO DUP8 MSTORE ISZERO PUSH1 0x20 DUP8 ADD MSTORE PUSH1 0x40 DUP7 ADD MSTORE DUP4 DUP4 AND ISZERO ISZERO PUSH1 0x60 DUP7 ADD MSTORE ISZERO ISZERO PUSH1 0x80 DUP6 ADD MSTORE ISZERO PUSH1 0xA0 DUP5 ADD MSTORE PUSH1 0x8 SHR AND ISZERO ISZERO PUSH1 0xC0 DUP3 ADD MSTORE RETURN JUMPDEST SWAP3 SWAP2 POP SWAP4 PUSH1 0xFF PUSH1 0x8 SLOAD AND SWAP3 PUSH1 0x3 DUP5 LT ISZERO PUSH2 0x287 JUMPI SWAP1 SWAP5 SWAP2 SWAP3 PUSH1 0x2 EQ SWAP2 SWAP1 PUSH2 0x6CF JUMP JUMPDEST PUSH1 0x5 SLOAD EQ SWAP3 POP DUP7 PUSH2 0x6C8 JUMP JUMPDEST PUSH1 0x2 DUP2 SWAP3 PUSH2 0x6B5 JUMP JUMPDEST CALLVALUE PUSH2 0x119 JUMPI PUSH1 0x0 CALLDATASIZE PUSH1 0x3 NOT ADD SLT PUSH2 0x119 JUMPI PUSH2 0x76E PUSH1 0x1 DUP1 PUSH1 0xA0 SHL SUB PUSH1 0x2 SLOAD AND CALLER EQ PUSH2 0xC6A JUMP JUMPDEST PUSH1 0xFF PUSH1 0x8 SLOAD AND PUSH1 0x3 DUP2 LT ISZERO PUSH2 0x287 JUMPI PUSH2 0x819 JUMPI PUSH1 0x4 SLOAD PUSH2 0x7E0 JUMPI PUSH1 0xC SLOAD ISZERO PUSH2 0x7A9 JUMPI TIMESTAMP PUSH1 0x4 SSTORE PUSH1 0x8 DUP1 SLOAD PUSH1 0xFF NOT AND PUSH1 0x1 OR SWAP1 SSTORE PUSH1 0xC SLOAD PUSH1 0x9 SSTORE STOP JUMPDEST PUSH1 0x40 MLOAD PUSH3 0x461BCD PUSH1 0xE5 SHL DUP2 MSTORE PUSH1 0x20 PUSH1 0x4 DUP3 ADD MSTORE PUSH1 0xF PUSH1 0x24 DUP3 ADD MSTORE PUSH15 0x4E4F5F5041525449434950414E5453 PUSH1 0x88 SHL PUSH1 0x44 DUP3 ADD MSTORE PUSH1 0x64 SWAP1 REVERT JUMPDEST PUSH1 0x40 MLOAD PUSH3 0x461BCD PUSH1 0xE5 SHL DUP2 MSTORE PUSH1 0x20 PUSH1 0x4 DUP3 ADD MSTORE PUSH1 0x11 PUSH1 0x24 DUP3 ADD MSTORE PUSH17 0x1053149150511657D4D0D2115115531151 PUSH1 0x7A SHL PUSH1 0x44 DUP3 ADD MSTORE PUSH1 0x64 SWAP1 REVERT JUMPDEST PUSH1 0x40 MLOAD PUSH3 0x461BCD PUSH1 0xE5 SHL DUP2 MSTORE PUSH1 0x20 PUSH1 0x4 DUP3 ADD MSTORE PUSH1 0x1A PUSH1 0x24 DUP3 ADD MSTORE PUSH32 0x414C52454144595F535441525445445F4F525F534554544C4544000000000000 PUSH1 0x44 DUP3 ADD MSTORE PUSH1 0x64 SWAP1 REVERT JUMPDEST CALLVALUE PUSH2 0x119 JUMPI PUSH1 0x0 CALLDATASIZE PUSH1 0x3 NOT ADD SLT PUSH2 0x119 JUMPI PUSH1 0x0 PUSH1 0x40 MLOAD DUP2 DUP3 SLOAD DUP1 PUSH1 0x1 SHR SWAP1 PUSH1 0x1 DUP2 AND DUP1 ISZERO PUSH2 0x90E JUMPI JUMPDEST PUSH1 0x20 DUP4 LT DUP2 EQ PUSH2 0x648 JUMPI DUP3 DUP6 MSTORE SWAP1 DUP2 ISZERO PUSH2 0x62C JUMPI POP PUSH1 0x1 EQ PUSH2 0x8D7 JUMPI POP DUP2 SWAP1 SUB PUSH1 0x1F ADD PUSH1 0x1F NOT AND DUP2 ADD PUSH8 0xFFFFFFFFFFFFFFFF DUP2 GT DUP3 DUP3 LT OR PUSH2 0x5C4 JUMPI PUSH2 0x4C8 SWAP3 POP PUSH1 0x40 MSTORE PUSH1 0x40 MLOAD SWAP2 DUP3 SWAP2 DUP3 PUSH2 0x9E4 JUMP JUMPDEST SWAP1 POP DUP3 DUP1 MSTORE PUSH1 0x20 DUP4 KECCAK256 DUP4 SWAP1 JUMPDEST DUP3 DUP3 LT PUSH2 0x8F8 JUMPI POP PUSH1 0x20 SWAP2 POP DUP3 ADD ADD DUP4 PUSH2 0x590 JUMP JUMPDEST PUSH1 0x1 DUP2 PUSH1 0x20 SWAP3 SLOAD DUP4 DUP6 DUP9 ADD ADD MSTORE ADD SWAP2 ADD SWAP1 PUSH2 0x8E3 JUMP JUMPDEST SWAP2 PUSH1 0x7F AND SWAP2 PUSH2 0x887 JUMP JUMPDEST CALLVALUE PUSH2 0x119 JUMPI PUSH1 0x0 CALLDATASIZE PUSH1 0x3 NOT ADD SLT PUSH2 0x119 JUMPI PUSH1 0x20 PUSH1 0xA SLOAD PUSH1 0x40 MLOAD SWAP1 DUP2 MSTORE RETURN JUMPDEST CALLVALUE PUSH2 0x119 JUMPI PUSH1 0x0 CALLDATASIZE PUSH1 0x3 NOT ADD SLT PUSH2 0x119 JUMPI PUSH1 0x20 PUSH1 0xC SLOAD PUSH1 0x40 MLOAD SWAP1 DUP2 MSTORE RETURN JUMPDEST CALLVALUE PUSH2 0x119 JUMPI PUSH1 0x0 CALLDATASIZE PUSH1 0x3 NOT ADD SLT PUSH2 0x119 JUMPI PUSH1 0x20 PUSH1 0x7 SLOAD PUSH1 0x40 MLOAD SWAP1 DUP2 MSTORE RETURN JUMPDEST CALLVALUE PUSH2 0x119 JUMPI PUSH1 0x0 CALLDATASIZE PUSH1 0x3 NOT ADD SLT PUSH2 0x119 JUMPI PUSH2 0x98B PUSH2 0xA66 JUMP JUMPDEST STOP JUMPDEST CALLVALUE PUSH2 0x119 JUMPI PUSH1 0x0 CALLDATASIZE PUSH1 0x3 NOT ADD SLT PUSH2 0x119 JUMPI PUSH1 0x2 SLOAD PUSH1 0x40 MLOAD PUSH1 0x1 PUSH1 0x1 PUSH1 0xA0 SHL SUB SWAP1 SWAP2 AND DUP2 MSTORE PUSH1 0x20 SWAP1 RETURN JUMPDEST CALLVALUE PUSH2 0x119 JUMPI PUSH1 0x0 CALLDATASIZE PUSH1 0x3 NOT ADD SLT PUSH2 0x119 JUMPI PUSH1 0x20 SWAP1 PUSH1 0x9 SLOAD DUP2 MSTORE RETURN JUMPDEST SWAP2 SWAP1 PUSH1 0x20 DUP4 ADD SWAP3 PUSH1 0x3 DUP3 LT ISZERO PUSH2 0x287 JUMPI MSTORE JUMP JUMPDEST SWAP2 SWAP1 SWAP2 PUSH1 0x20 DUP2 MSTORE DUP3 MLOAD DUP1 PUSH1 0x20 DUP4 ADD MSTORE PUSH1 0x0 JUMPDEST DUP2 DUP2 LT PUSH2 0xA17 JUMPI POP PUSH1 0x40 SWAP3 SWAP4 POP PUSH1 0x0 DUP4 DUP3 DUP5 ADD ADD MSTORE PUSH1 0x1F DUP1 NOT SWAP2 ADD AND ADD ADD SWAP1 JUMP JUMPDEST DUP1 PUSH1 0x20 DUP1 SWAP3 DUP8 ADD ADD MLOAD PUSH1 0x40 DUP3 DUP7 ADD ADD MSTORE ADD PUSH2 0x9F6 JUMP JUMPDEST ISZERO PUSH2 0xA34 JUMPI JUMP JUMPDEST PUSH1 0x40 MLOAD PUSH3 0x461BCD PUSH1 0xE5 SHL DUP2 MSTORE PUSH1 0x20 PUSH1 0x4 DUP3 ADD MSTORE PUSH1 0xA PUSH1 0x24 DUP3 ADD MSTORE PUSH10 0x4E4F545F414354495645 PUSH1 0xB0 SHL PUSH1 0x44 DUP3 ADD MSTORE PUSH1 0x64 SWAP1 REVERT JUMPDEST PUSH2 0xA6E PUSH2 0xD0E JUMP JUMPDEST PUSH1 0xFF PUSH1 0x8 SLOAD AND PUSH1 0x3 DUP2 LT ISZERO PUSH2 0x287 JUMPI PUSH1 0x1 PUSH2 0xA89 SWAP2 EQ PUSH2 0xA2D JUMP JUMPDEST CALLER PUSH1 0x0 MSTORE PUSH1 0xD PUSH1 0x20 MSTORE PUSH1 0x40 PUSH1 0x0 KECCAK256 DUP1 SLOAD SWAP1 PUSH1 0xFF DUP3 AND ISZERO PUSH2 0xC38 JUMPI PUSH1 0xFF DUP3 PUSH1 0x8 SHR AND PUSH2 0xC06 JUMPI PUSH2 0xAB6 PUSH2 0xD4A JUMP JUMPDEST SWAP1 DUP2 ISZERO ISZERO DUP1 PUSH2 0xBFA JUMPI JUMPDEST ISZERO PUSH2 0xBC5 JUMPI PUSH1 0x1 DUP2 ADD SWAP1 DUP2 SLOAD SWAP4 DUP4 DUP6 EQ PUSH2 0xB8B JUMPI PUSH1 0x1 DUP5 GT PUSH2 0xB17 JUMPI JUMPDEST POP POP DUP2 SWAP3 POP SSTORE PUSH1 0x40 MLOAD SWAP1 DUP2 MSTORE TIMESTAMP PUSH1 0x20 DUP3 ADD MSTORE PUSH32 0xB9CFEA4717F167774A6E8643C33472935D3EF918453525EEFCA6936078B7CFDD PUSH1 0x40 CALLER SWAP3 LOG2 JUMP JUMPDEST PUSH1 0x0 NOT DUP5 ADD SWAP5 DUP5 DUP7 GT PUSH2 0xB75 JUMPI DUP6 EQ PUSH2 0xADD JUMPI PUSH2 0xFF00 NOT AND PUSH2 0x100 OR SWAP1 SSTORE POP POP PUSH1 0x9 SLOAD DUP1 ISZERO PUSH2 0xB75 JUMPI PUSH1 0x0 NOT ADD PUSH1 0x9 SSTORE PUSH1 0x40 MLOAD SWAP1 DUP2 MSTORE PUSH32 0x7B9FFF6875DA74091EF936E09402335C2F212C084276EE10155CF2FDDAFB7A5B PUSH1 0x20 CALLER SWAP3 LOG2 JUMP JUMPDEST PUSH4 0x4E487B71 PUSH1 0xE0 SHL PUSH1 0x0 MSTORE PUSH1 0x11 PUSH1 0x4 MSTORE PUSH1 0x24 PUSH1 0x0 REVERT JUMPDEST PUSH1 0x40 MLOAD PUSH3 0x461BCD PUSH1 0xE5 SHL DUP2 MSTORE PUSH1 0x20 PUSH1 0x4 DUP3 ADD MSTORE PUSH1 0x12 PUSH1 0x24 DUP3 ADD MSTORE PUSH18 0x20A62922A0A22CAFA1A422A1A5A2A22FA4A7 PUSH1 0x71 SHL PUSH1 0x44 DUP3 ADD MSTORE PUSH1 0x64 SWAP1 REVERT JUMPDEST PUSH1 0x40 MLOAD PUSH3 0x461BCD PUSH1 0xE5 SHL DUP2 MSTORE PUSH1 0x20 PUSH1 0x4 DUP3 ADD MSTORE PUSH1 0xD PUSH1 0x24 DUP3 ADD MSTORE PUSH13 0x1253959053125117D493D55391 PUSH1 0x9A SHL PUSH1 0x44 DUP3 ADD MSTORE PUSH1 0x64 SWAP1 REVERT JUMPDEST POP PUSH1 0x5 SLOAD DUP3 GT ISZERO PUSH2 0xAC0 JUMP JUMPDEST PUSH1 0x40 MLOAD PUSH3 0x461BCD PUSH1 0xE5 SHL DUP2 MSTORE PUSH1 0x20 PUSH1 0x4 DUP3 ADD MSTORE PUSH1 0xA PUSH1 0x24 DUP3 ADD MSTORE PUSH10 0x11531253525390551151 PUSH1 0xB2 SHL PUSH1 0x44 DUP3 ADD MSTORE PUSH1 0x64 SWAP1 REVERT JUMPDEST PUSH1 0x40 MLOAD PUSH3 0x461BCD PUSH1 0xE5 SHL DUP2 MSTORE PUSH1 0x20 PUSH1 0x4 DUP3 ADD MSTORE PUSH1 0xA PUSH1 0x24 DUP3 ADD MSTORE PUSH10 0x1393D517D293D2539151 PUSH1 0xB2 SHL PUSH1 0x44 DUP3 ADD MSTORE PUSH1 0x64 SWAP1 REVERT JUMPDEST ISZERO PUSH2 0xC71 JUMPI JUMP JUMPDEST PUSH1 0x40 MLOAD PUSH3 0x461BCD PUSH1 0xE5 SHL DUP2 MSTORE PUSH1 0x20 PUSH1 0x4 DUP3 ADD MSTORE PUSH1 0xC PUSH1 0x24 DUP3 ADD MSTORE PUSH12 0x27A7262CAFA1A922A0AA27A9 PUSH1 0xA1 SHL PUSH1 0x44 DUP3 ADD MSTORE PUSH1 0x64 SWAP1 REVERT JUMPDEST PUSH1 0xFF PUSH1 0x8 SLOAD AND PUSH1 0x3 DUP2 LT ISZERO PUSH2 0x287 JUMPI PUSH1 0x1 EQ DUP1 ISZERO SWAP1 PUSH2 0xCD3 JUMPI JUMPDEST PUSH2 0xCCE JUMPI PUSH2 0xCCB PUSH2 0xD4A JUMP JUMPDEST SWAP1 JUMP JUMPDEST PUSH1 0x0 SWAP1 JUMP JUMPDEST POP PUSH1 0x4 SLOAD ISZERO PUSH2 0xCBF JUMP JUMPDEST PUSH1 0xC SLOAD DUP2 LT ISZERO PUSH2 0xCF8 JUMPI PUSH1 0xC PUSH1 0x0 MSTORE PUSH1 0x20 PUSH1 0x0 KECCAK256 ADD SWAP1 PUSH1 0x0 SWAP1 JUMP JUMPDEST PUSH4 0x4E487B71 PUSH1 0xE0 SHL PUSH1 0x0 MSTORE PUSH1 0x32 PUSH1 0x4 MSTORE PUSH1 0x24 PUSH1 0x0 REVERT JUMPDEST PUSH1 0xFF PUSH1 0x8 SLOAD AND PUSH1 0x3 DUP2 LT ISZERO PUSH2 0x287 JUMPI PUSH1 0x1 EQ DUP1 ISZERO SWAP1 PUSH2 0xD40 JUMPI JUMPDEST PUSH2 0xD3E JUMPI PUSH2 0xD34 PUSH2 0xD4A JUMP JUMPDEST PUSH1 0x5 SLOAD LT PUSH2 0xD3E JUMPI JUMP JUMPDEST JUMP JUMPDEST POP PUSH1 0x4 SLOAD ISZERO PUSH2 0xD28 JUMP JUMPDEST PUSH1 0x4 SLOAD DUP1 ISZERO DUP1 ISZERO PUSH2 0xD98 JUMPI JUMPDEST PUSH2 0xD92 JUMPI TIMESTAMP SUB TIMESTAMP DUP2 GT PUSH2 0xB75 JUMPI PUSH1 0x6 SLOAD SWAP1 DUP2 ISZERO PUSH2 0xD7C JUMPI DIV PUSH1 0x1 DUP2 ADD DUP1 SWAP2 GT PUSH2 0xB75 JUMPI SWAP1 JUMP JUMPDEST PUSH4 0x4E487B71 PUSH1 0xE0 SHL PUSH1 0x0 MSTORE PUSH1 0x12 PUSH1 0x4 MSTORE PUSH1 0x24 PUSH1 0x0 REVERT JUMPDEST POP PUSH1 0x0 SWAP1 JUMP JUMPDEST POP DUP1 TIMESTAMP LT PUSH2 0xD56 JUMP INVALID LOG2 PUSH5 0x6970667358 0x22 SLT KECCAK256 0xB5 0xE6 ADD BLOCKHASH 0xAB DUP11 SWAP13 TIMESTAMP MULMOD PUSH8 0xA5B1DCA9B33C4209 0xE7 0xAF PUSH0 0xE 0x1E DUP12 0x2C TLOAD SWAP10 TIMESTAMP STATICCALL 0xE7 SWAP2 PUSH30 0x64736F6C634300081C003300000000000000000000000000000000000000 "},"methodIdentifiers":{"aliveCount()":"0145a938","checkIn()":"183ff085","createdAt()":"cf09e0d0","creator()":"02d05d3f","description()":"7284e416","endActivity()":"dcae7cc5","getCurrentRound()":"a32bf597","getParticipantInfo(address)":"71bdce55","joinActivity()":"d9d57c94","maxParticipants()":"24924bf7","participantCount()":"362f04c0","roundDuration()":"f7cb789a","settledAt()":"a99a67e6","startActivity()":"678f5ecc","startTime()":"78e97925","status()":"200d2ed2","title()":"4a79d50c","totalRounds()":"8a568299","viewStatus()":"ac60a269","winnersCount()":"49713811"}}}}}