{"contracts/ActivityFactory.sol":{"ActivityFactory":{"abi":[{"inputs":[{"internalType":"address","name":"_activityRegistry","type":"address"}],"stateMutability":"nonpayable","type":"constructor"},{"anonymous":false,"inputs":[{"indexed":true,"internalType":"address","name":"challengeAddress","type":"address"},{"indexed":true,"internalType":"address","name":"creator","type":"address"},{"indexed":true,"internalType":"uint256","name":"activityId","type":"uint256"},{"indexed":false,"internalType":"string","name":"title","type":"string"}],"name":"DepositChallengeCreated","type":"event"},{"inputs":[{"internalType":"uint256","name":"","type":"uint256"}],"name":"activities","outputs":[{"internalType":"address","name":"","type":"address"}],"stateMutability":"view","type":"function"},{"inputs":[],"name":"activityCount","outputs":[{"internalType":"uint256","name":"","type":"uint256"}],"stateMutability":"view","type":"function"},{"inputs":[],"name":"activityRegistry","outputs":[{"internalType":"contract ActivityRegistry","name":"","type":"address"}],"stateMutability":"view","type":"function"},{"inputs":[{"internalType":"string","name":"_title","type":"string"},{"internalType":"string","name":"_description","type":"string"},{"internalType":"uint256","name":"_depositAmount","type":"uint256"},{"internalType":"uint256","name":"_totalRounds","type":"uint256"},{"internalType":"uint256","name":"_maxParticipants","type":"uint256"},{"internalType":"bool","name":"_isPublic","type":"bool"},{"internalType":"string","name":"_creatorName","type":"string"}],"name":"createDepositChallenge","outputs":[{"internalType":"address","name":"challengeAddress","type":"address"},{"internalType":"uint256","name":"activityId","type":"uint256"}],"stateMutability":"nonpayable","type":"function"},{"inputs":[],"name":"getAllActivities","outputs":[{"internalType":"address[]","name":"","type":"address[]"}],"stateMutability":"view","type":"function"}],"evm":{"bytecode":{"linkReferences":{},"object":"60a0346100b057601f61245838819003918201601f19168301916001600160401b038311848410176100b5578084926020946040528339810103126100b057516001600160a01b038116908190036100b05780156100785760805260405161238c90816100cc8239608051818181608c015261034f0152f35b60405162461bcd60e51b815260206004820152601060248201526f494e56414c49445f524547495354525960801b6044820152606490fd5b600080fd5b634e487b7160e01b600052604160045260246000fdfe6080604052600436101561001257600080fd5b60003560e01c80630d1657e81461052e57806355665ade1461018657806365aa56c4146100bb578063af1b2217146100765763e6240deb1461005357600080fd5b34610071576000366003190112610071576020600054604051908152f35b600080fd5b34610071576000366003190112610071576040517f00000000000000000000000000000000000000000000000000000000000000006001600160a01b03168152602090f35b346100715760003660031901126100715760405180602060005492838152018092600080527f290decd9548b62a8d60345a988386fc84ba6bc95484008f6362f93160ef3e5639060005b818110610167575050508161011b9103826105a0565b6040519182916020830190602084525180915260408301919060005b818110610145575050500390f35b82516001600160a01b0316845285945060209384019390920191600101610137565b82546001600160a01b0316845260209093019260019283019201610105565b346100715760e03660031901126100715760043567ffffffffffffffff8111610071576101b79036906004016105c2565b60243567ffffffffffffffff8111610071576101d79036906004016105c2565b60443591606435916084359260a435938415158095036100715760c43567ffffffffffffffff8111610071576102119036906004016105c2565b9580156104d857821561048457811561042c5760405192611cfc80850185811067ffffffffffffffff82111761041657859460009360c09361065b883960e0835261027061026260e085018c610619565b84810360208601528a610619565b953360408501526060840152608083015260a0820152015203906000f0801561040a5760018060a01b031692600054916801000000000000000083101561041657610349610325926102ca85600160209701600055610570565b81546001600160a01b0360039290921b91821b19169089901b17905560405163011163e760e51b81526004810188905260e06024820152978894859461031360e487018a610619565b86810360031901604488015290610619565b916064850152600060848501523360a48501526003198483030160c4850152610619565b038160007f00000000000000000000000000000000000000000000000000000000000000006001600160a01b03165af192831561040a576000936103d5575b509180604093837fa54fe98c88ef7e8d9568052100a277ad74e1e159521f33326e0b53f5cc66ca14865160208152806103c633956020830190610619565b0390a482519182526020820152f35b92506020833d602011610402575b816103f0602093836105a0565b81010312610071576040925192610388565b3d91506103e3565b6040513d6000823e3d90fd5b634e487b7160e01b600052604160045260246000fd5b60405162461bcd60e51b815260206004820152602a60248201527f4d41585f5041525449434950414e54535f4d5553545f42455f475245415445526044820152695f5448414e5f5a45524f60b01b6064820152608490fd5b60405162461bcd60e51b815260206004820152602660248201527f544f54414c5f524f554e44535f4d5553545f42455f475245415445525f5448416044820152654e5f5a45524f60d01b6064820152608490fd5b60405162461bcd60e51b815260206004820152602860248201527f4445504f5349545f414d4f554e545f4d5553545f42455f475245415445525f5460448201526748414e5f5a45524f60c01b6064820152608490fd5b346100715760203660031901126100715760043560005481101561007157610557602091610570565b905460405160039290921b1c6001600160a01b03168152f35b60005481101561058a576000805260206000200190600090565b634e487b7160e01b600052603260045260246000fd5b90601f8019910116810190811067ffffffffffffffff82111761041657604052565b81601f820112156100715780359067ffffffffffffffff821161041657604051926105f7601f8401601f1916602001856105a0565b8284526020838301011161007157816000926020809301838601378301015290565b919082519283825260005b848110610645575050826000602080949584010152601f8019910116010190565b8060208092840101518282860101520161062456fe6080604052346104c357611cfc80380380610019816104c8565b92833981019060e0818303126104c35780516001600160401b0381116104c357826100459183016104ed565b602082015190926001600160401b0382116104c3576100659183016104ed565b60408201516001600160a01b038116908190036104c35760608301519060808401519260c060a086015195015195831561048f5784151580610484575b1561044e57851561040957861580156103ff575b156103ca578051906001600160401b0382116102ca5760005490600182811c921680156103c0575b60208310146102aa5781601f849311610351575b50602090601f83116001146102eb576000926102e0575b50508160011b916000199060031b1c1916176000555b8051906001600160401b0382116102ca5760015490600182811c921680156102c0575b60208310146102aa5781601f84931161023a575b50602090601f83116001146101d2576000926101c7575b50508160011b916000199060031b1c1916176001555b600280546001600160a01b03191691909117905560055560065560085562015180600755600455426003556009805460ff191690556040516117a390816105598239f35b01519050388061016d565b600160009081528281209350601f198516905b8181106102225750908460019594939210610209575b505050811b01600155610183565b015160001960f88460031b161c191690553880806101fb565b929360206001819287860151815501950193016101e5565b60016000529091507fb10e2d527612073b26eecdfd717e6a320cf44b4afac2b0732d9fcbe2b7fa0cf6601f840160051c810191602085106102a0575b90601f859493920160051c01905b8181106102915750610156565b60008155849350600101610284565b9091508190610276565b634e487b7160e01b600052602260045260246000fd5b91607f1691610142565b634e487b7160e01b600052604160045260246000fd5b015190503880610109565b60008080528281209350601f198516905b8181106103395750908460019594939210610320575b505050811b0160005561011f565b015160001960f88460031b161c19169055388080610312565b929360206001819287860151815501950193016102fc565b600080529091507f290decd9548b62a8d60345a988386fc84ba6bc95484008f6362f93160ef3e563601f840160051c810191602085106103b6575b90601f859493920160051c01905b8181106103a757506100f2565b6000815584935060010161039a565b909150819061038c565b91607f16916100de565b60405162461bcd60e51b815260206004820152600d60248201526c14d510549517d25397d41054d5609a1b6044820152606490fd5b50428710156100b6565b60405162461bcd60e51b815260206004820152601560248201527f5a45524f5f4d41585f5041525449434950414e545300000000000000000000006044820152606490fd5b60405162461bcd60e51b815260206004820152600e60248201526d494e56414c49445f524f554e445360901b6044820152606490fd5b50605a8511156100a2565b60405162461bcd60e51b815260206004820152600c60248201526b16915493d7d1115413d4d25560a21b6044820152606490fd5b600080fd5b6040519190601f01601f191682016001600160401b038111838210176102ca57604052565b81601f820112156104c3578051906001600160401b0382116102ca5761051c601f8301601f19166020016104c8565b92828452602083830101116104c35760005b82811061054357505060206000918301015290565b8060208092840101518282870101520161052e56fe60a080604052600436101561001357600080fd5b60003560e01c9081630145a93814610b615750806302d05d3f14610b38578063183ff08514610b1d578063200d2ed214610af757806324924bf714610ad95780633197cbb614610abe578063362f04c014610aa05780634051ddac146108e6578063419759f5146108c857806349713811146108aa5780634a79d50c146107d05780634ee0ab0d146107655780635aa68ac0146106995780636fe8022c1461064d57806371bdce551461052b5780637284e416146104fb57806378e97925146104dd5780638942d0b3146102c75780638a19c8bc146102a45780638a5682991461028657806396365d441461026a5780639abed90d1461024c578063a99a67e61461022e578063ac60a26914610202578063cf09e0d0146101e4578063f7cb789a146101c65763ff85fba21461014857600080fd5b346101c15760003660031901126101c15761016e60018060a01b03600254163314610ffd565b60ff6009541660038110156101ab5761018790156115dd565b610193600454156115dd565b6101a5600160ff196009541617600955565b42600455005b634e487b7160e01b600052602160045260246000fd5b600080fd5b346101c15760003660031901126101c1576020600754604051908152f35b346101c15760003660031901126101c1576020600354604051908152f35b346101c15760003660031901126101c15761022a61021e61167b565b60405191829182610b7c565b0390f35b346101c15760003660031901126101c1576020600d54604051908152f35b346101c15760003660031901126101c1576020600c54604051908152f35b346101c15760003660031901126101c157602047604051908152f35b346101c15760003660031901126101c1576020600654604051908152f35b346101c15760003660031901126101c15760206102bf61161b565b604051908152f35b60003660031901126101c1576102db6116b0565b60ff6009541660038110156101ab576104aa5761030460045480159081156104a0575b506115dd565b600554340361046b57600e5460085411156104265733600052600f6020526040600020805460ff81166103f05760ff191660019081178255600019910155600e54680100000000000000008110156103da578060016103669201600e55611038565b81546001600160a01b0360039290921b91821b19163390911b179055600a54600181019081106103c457600a55600e546040519081527f8123641a38ad3476ac345fc38496fa9edc26a110698c8c0c9fffc30f546f918c60203392a2005b634e487b7160e01b600052601160045260246000fd5b634e487b7160e01b600052604160045260246000fd5b60405162461bcd60e51b815260206004820152600e60248201526d1053149150511657d293d253915160921b6044820152606490fd5b60405162461bcd60e51b815260206004820152601860248201527f4d41585f5041525449434950414e54535f5245414348454400000000000000006044820152606490fd5b60405162461bcd60e51b815260206004820152600d60248201526c15d493d391d7d1115413d4d255609a1b6044820152606490fd5b90504210826102fe565b60405162461bcd60e51b815260206004820152600b60248201526a1293d25397d0d313d4d15160aa1b6044820152606490fd5b346101c15760003660031901126101c1576020600454604051908152f35b346101c15760003660031901126101c15761022a610517610bf2565b604051918291602083526020830190610b8f565b346101c15760203660031901126101c1576004356001600160a01b038116908190036101c157600052600f60205260406000206040519060a0820182811067ffffffffffffffff8211176103da5760405280549060ff82161515835260ff602084019260081c1615158252600260018201549160408501928352015492606081019160ff85161515835260ff608083019560081c161515855260ff600954169460038610156101ab57600260e096149182610642575b82610638575b8261062d575b5192511515945115159351151590511515936040519586526020860152826040860152606085015215156080840152600019141560a083015260c0820152f35b8151151592506105ed565b85511592506105e7565b8351151592506105e1565b346101c15760003660031901126101c157608061066861161b565b610670610fd8565b60045442101561067e610fd8565b42101591604051938452602084015260408301526060820152f35b346101c15760003660031901126101c157604051806020600e5492838152018092600e6000527fbb7b4a454dc3493923482f07822329ed19e8244eff582cc204f8554c3620c3fd9060005b81811061074657505050816106fa910382610bd0565b6040519182916020830190602084525180915260408301919060005b818110610724575050500390f35b82516001600160a01b0316845285945060209384019390920191600101610716565b82546001600160a01b03168452602090930192600192830192016106e4565b346101c15760003660031901126101c15760105460ff811661079f5760ff19166001176010556107936110d8565b6010805460ff19169055005b60405162461bcd60e51b815260206004820152600960248201526814915153951490539560ba1b6044820152606490fd5b346101c15760003660031901126101c15760405160008054600181811c918391811680156108a0575b60208410811461088c578386529081156108655750600114610826575b61022a8461051781860382610bd0565b80805260208120939250905b80821061084b5750909150810160200161051782610816565b919260018160209254838588010152019101909291610832565b60ff191660208087019190915292151560051b850190920192506105179150839050610816565b634e487b7160e01b83526022600452602483fd5b92607f16926107f9565b346101c15760003660031901126101c1576020600b54604051908152f35b346101c15760003660031901126101c1576020600554604051908152f35b346101c15760003660031901126101c1576108ff61167b565b600254600554600654600754600454929491936001600160a01b031692909160038110156101ab57600e54600a54600b5490600c5492600354944796600854986000608052604051608052600080548060011c906001811615610a96575b60208210600182161461088c578160805152600181169081600014610a765750600114610a1d575b506080516109969181900390610bd0565b61099e610bf2565b9b6040519d8e809e6101e082526101e08201608051906109bd91610b8f565b82810360208401526109ce91610b8f565b9d60408201526060015260808d015260a08c015260c08b015260ff1660e08a01526101008901526101208801526101408701526101608601526101808501526101a08401526101c08301520390f35b60008080529091507f290decd9548b62a8d60345a988386fc84ba6bc95484008f6362f93160ef3e5635b828210610a5e57506020915060805101018e610985565b60018160209254838560805101015201910190610a47565b90506020925060ff1916826080510152151560051b60805101018e610985565b90607f169061095d565b346101c15760003660031901126101c1576020600e54604051908152f35b346101c15760003660031901126101c15760206102bf610fd8565b346101c15760003660031901126101c1576020600854604051908152f35b346101c15760003660031901126101c15761022a60ff6009541660405191829182610b7c565b346101c15760003660031901126101c157610b36610d62565b005b346101c15760003660031901126101c1576002546040516001600160a01b039091168152602090f35b346101c15760003660031901126101c157602090600a548152f35b9190602083019260038210156101ab5752565b919082519283825260005b848110610bbb575050826000602080949584010152601f8019910116010190565b80602080928401015182828601015201610b9a565b90601f8019910116810190811067ffffffffffffffff8211176103da57604052565b604051906000600154908160011c91600181168015610cb8575b60208410811461088c578386528592918115610c995750600114610c39575b610c3792500383610bd0565b565b506001600090815290917fb10e2d527612073b26eecdfd717e6a320cf44b4afac2b0732d9fcbe2b7fa0cf65b818310610c7d575050906020610c3792820101610c2b565b6020919350806001915483858901015201910190918492610c65565b60209250610c3794915060ff191682840152151560051b820101610c2b565b92607f1692610c0c565b15610cc957565b60405162461bcd60e51b815260206004820152600a6024820152694e4f545f41435449564560b01b6044820152606490fd5b15610d0257565b60405162461bcd60e51b815260206004820152600b60248201526a1393d517d4d5105495115160aa1b6044820152606490fd5b919082018092116103c457565b818102929181159184041417156103c457565b919082039182116103c457565b610d6a6116b0565b60ff6009541660038110156101ab576001610d859114610cc2565b610d926004541515610cfb565b33600052600f6020526040600020805460ff811615610fa15760081c60ff16610f6f57610dbd61161b565b90600654821015610f355760018101805460006000198203610f1057505060005b80151580610f07575b610ef9578303610eb45760045460018401908185116103c457610e10610e169260075490610d42565b90610d35565b421015610e815782905560065460001981019081116103c4578214610e6b575b506040519081524260208201527fb9cfea4717f167774a6e8643c33472935d3ef918453525eefca6936078b7cfdd60403392a2565b600201805461ff00191661010017905538610e36565b60405162461bcd60e51b815260206004820152600b60248201526a11105657d156141254915160aa1b6044820152606490fd5b60405162461bcd60e51b815260206004820152601860248201527f414c52454144595f434845434b45445f494e5f544f44415900000000000000006044820152606490fd5b610c379350913391506116f7565b50808411610de7565b60018201809211610f215750610dde565b634e487b7160e01b81526011600452602490fd5b60405162461bcd60e51b815260206004820152601260248201527110d2105313115391d157d192539254d2115160721b6044820152606490fd5b60405162461bcd60e51b815260206004820152600a6024820152691153125352539055115160b21b6044820152606490fd5b60405162461bcd60e51b815260206004820152600f60248201526e1393d517d41054951250d254105395608a1b6044820152606490fd5b6004548015610ff757610ff490610e1060065460075490610d42565b90565b50600090565b1561100457565b60405162461bcd60e51b815260206004820152600c60248201526b27a7262cafa1a922a0aa27a960a11b6044820152606490fd5b600e5481101561105357600e60005260206000200190600090565b634e487b7160e01b600052603260045260246000fd5b60001981146103c45760010190565b3d156110b3573d9067ffffffffffffffff82116103da57604051916110a7601f8201601f191660200184610bd0565b82523d6000602084013e565b606090565b81156110c2570490565b634e487b7160e01b600052601260045260246000fd5b6110ed60018060a01b03600254163314610ffd565b60ff600954169060038210156101ab5761110960018314610cc2565b6111166004541515610cfb565b6002600092146115a657600654600019810192908311610f2157805b600e548110156112115761114581611038565b60018060a01b0391549060031b1c16808352600f6020526040832090815460ff811615908115611203575b506111f957600182015460001981148015806111f0575b156111a957505050600201805461ff0019166101001790556001905b01611132565b156111c35750600192916111be9185916116f7565b6111a3565b600181018091116111dc57600193926111be92906116f7565b634e487b7160e01b85526011600452602485fd5b50878214611187565b50506001906111a3565b60ff915060081c1638611170565b509150600260ff19600954161760095542600d558180600e54905b81811061152857505082600b5547921561145857600b548015611426576112638161125a61126993876110b8565b80600c55610d42565b84610d55565b918193825b600e548110156113535761128181611038565b905460039190911b1c6001600160a01b0316808552600f60205260408520805460ff81169081611344575b5080611333575b6112c2575b505060010161126e565b85808093600282949b969b01600160ff19825416179055600c54905af16112e7611078565b5015611300576112f8600191611069565b9590386112b8565b60405162461bcd60e51b815260206004820152600b60248201526a14105653d55517d190525360aa1b6044820152606490fd5b5060ff600282015460081c166112b3565b60ff915060081c1615386112ac565b5092909350806113c6575b505060407f97791d3ac1343e05805a2f905fa80b249c2ca58cf9fef455d4fa7ec13ce5832191600b547ff5b268a3ff315cc44ccceeef86259c9e8eef81ceecb14001543809115380dd6283600c54928151908152836020820152a182519182526020820152a1565b600254829182918291906001600160a01b03165af16113e3611078565b50156113f057388061135e565b60405162461bcd60e51b815260206004820152600e60248201526d14915350525391115497d190525360921b6044820152606490fd5b60405162461bcd60e51b815260206004820152600a6024820152694e4f5f57494e4e45525360b01b6044820152606490fd5b9091806114c1575b5060407f97791d3ac1343e05805a2f905fa80b249c2ca58cf9fef455d4fa7ec13ce58321917ff5b268a3ff315cc44ccceeef86259c9e8eef81ceecb14001543809115380dd62828051838152836020820152a18151908082526020820152a1565b60025482918291829182916001600160a01b03165af16114df611078565b50156114eb5738611460565b60405162461bcd60e51b815260206004820152601560248201527410d491505513d497d514905394d1915497d1905253605a1b6044820152606490fd5b61153181611038565b905460039190911b1c6001600160a01b03168352600f60205260408320805460ff8116919082611597575b5081611585575b50611571575b60010161122c565b9361157d600191611069565b949050611569565b60ff91506002015460081c1638611563565b60081c60ff161591503861155c565b60405162461bcd60e51b815260206004820152600f60248201526e1053149150511657d4d15515131151608a1b6044820152606490fd5b156115e457565b60405162461bcd60e51b815260206004820152600f60248201526e1053149150511657d4d51054951151608a1b6044820152606490fd5b61162361167b565b60038110156101ab5715611676576004548015610ff75742811161166b5761164e6116579142610d55565b600754906110b8565b60065480821015611666575090565b905090565b50611657600061164e565b600090565b60ff6009541660038110156101ab576002146116ab576004548015610ff7574210156116a657600090565b600190565b600290565b60045480156116f45760ff6009541660038110156101ab571590816116e9575b506116d757565b610c37600160ff196009541617600955565b9050421015386116d0565b50565b805460ff8160081c166117675761ff001916610100179055600a5480611751575b506040519182526001600160a01b0316907f7b9fff6875da74091ef936e09402335c2f212c084276ee10155cf2fddafb7a5b90602090a2565b60001981019081116103c457600a556020611718565b5050505056fea264697066735822122016ea1238a26bd621aaaf617e76035e6597437f319dcde35cbbc3ddd448b04aa464736f6c634300081c0033a2646970667358221220898bb490ee1f668a346bf44239dcbac78b39b4a38d85a68db0b0e0f5f8636f3964736f6c634300081c0033","opcodes":"PUSH1 0xA0 CALLVALUE PUSH2 0xB0 JUMPI PUSH1 0x1F PUSH2 0x2458 CODESIZE DUP2 SWAP1 SUB SWAP2 DUP3 ADD PUSH1 0x1F NOT AND DUP4 ADD SWAP2 PUSH1 0x1 PUSH1 0x1 PUSH1 0x40 SHL SUB DUP4 GT DUP5 DUP5 LT OR PUSH2 0xB5 JUMPI DUP1 DUP5 SWAP3 PUSH1 0x20 SWAP5 PUSH1 0x40 MSTORE DUP4 CODECOPY DUP2 ADD SUB SLT PUSH2 0xB0 JUMPI MLOAD PUSH1 0x1 PUSH1 0x1 PUSH1 0xA0 SHL SUB DUP2 AND SWAP1 DUP2 SWAP1 SUB PUSH2 0xB0 JUMPI DUP1 ISZERO PUSH2 0x78 JUMPI PUSH1 0x80 MSTORE PUSH1 0x40 MLOAD PUSH2 0x238C SWAP1 DUP2 PUSH2 0xCC DUP3 CODECOPY PUSH1 0x80 MLOAD DUP2 DUP2 DUP2 PUSH1 0x8C ADD MSTORE PUSH2 0x34F ADD MSTORE RETURN JUMPDEST PUSH1 0x40 MLOAD PUSH3 0x461BCD PUSH1 0xE5 SHL DUP2 MSTORE PUSH1 0x20 PUSH1 0x4 DUP3 ADD MSTORE PUSH1 0x10 PUSH1 0x24 DUP3 ADD MSTORE PUSH16 0x494E56414C49445F5245474953545259 PUSH1 0x80 SHL PUSH1 0x44 DUP3 ADD MSTORE PUSH1 0x64 SWAP1 REVERT JUMPDEST PUSH1 0x0 DUP1 REVERT JUMPDEST PUSH4 0x4E487B71 PUSH1 0xE0 SHL PUSH1 0x0 MSTORE PUSH1 0x41 PUSH1 0x4 MSTORE PUSH1 0x24 PUSH1 0x0 REVERT INVALID PUSH1 0x80 PUSH1 0x40 MSTORE PUSH1 0x4 CALLDATASIZE LT ISZERO PUSH2 0x12 JUMPI PUSH1 0x0 DUP1 REVERT JUMPDEST PUSH1 0x0 CALLDATALOAD PUSH1 0xE0 SHR DUP1 PUSH4 0xD1657E8 EQ PUSH2 0x52E JUMPI DUP1 PUSH4 0x55665ADE EQ PUSH2 0x186 JUMPI DUP1 PUSH4 0x65AA56C4 EQ PUSH2 0xBB JUMPI DUP1 PUSH4 0xAF1B2217 EQ PUSH2 0x76 JUMPI PUSH4 0xE6240DEB EQ PUSH2 0x53 JUMPI PUSH1 0x0 DUP1 REVERT JUMPDEST CALLVALUE PUSH2 0x71 JUMPI PUSH1 0x0 CALLDATASIZE PUSH1 0x3 NOT ADD SLT PUSH2 0x71 JUMPI PUSH1 0x20 PUSH1 0x0 SLOAD PUSH1 0x40 MLOAD SWAP1 DUP2 MSTORE RETURN JUMPDEST PUSH1 0x0 DUP1 REVERT JUMPDEST CALLVALUE PUSH2 0x71 JUMPI PUSH1 0x0 CALLDATASIZE PUSH1 0x3 NOT ADD SLT PUSH2 0x71 JUMPI PUSH1 0x40 MLOAD PUSH32 0x0 PUSH1 0x1 PUSH1 0x1 PUSH1 0xA0 SHL SUB AND DUP2 MSTORE PUSH1 0x20 SWAP1 RETURN JUMPDEST CALLVALUE PUSH2 0x71 JUMPI PUSH1 0x0 CALLDATASIZE PUSH1 0x3 NOT ADD SLT PUSH2 0x71 JUMPI PUSH1 0x40 MLOAD DUP1 PUSH1 0x20 PUSH1 0x0 SLOAD SWAP3 DUP4 DUP2 MSTORE ADD DUP1 SWAP3 PUSH1 0x0 DUP1 MSTORE PUSH32 0x290DECD9548B62A8D60345A988386FC84BA6BC95484008F6362F93160EF3E563 SWAP1 PUSH1 0x0 JUMPDEST DUP2 DUP2 LT PUSH2 0x167 JUMPI POP POP POP DUP2 PUSH2 0x11B SWAP2 SUB DUP3 PUSH2 0x5A0 JUMP JUMPDEST PUSH1 0x40 MLOAD SWAP2 DUP3 SWAP2 PUSH1 0x20 DUP4 ADD SWAP1 PUSH1 0x20 DUP5 MSTORE MLOAD DUP1 SWAP2 MSTORE PUSH1 0x40 DUP4 ADD SWAP2 SWAP1 PUSH1 0x0 JUMPDEST DUP2 DUP2 LT PUSH2 0x145 JUMPI POP POP POP SUB SWAP1 RETURN JUMPDEST DUP3 MLOAD PUSH1 0x1 PUSH1 0x1 PUSH1 0xA0 SHL SUB AND DUP5 MSTORE DUP6 SWAP5 POP PUSH1 0x20 SWAP4 DUP5 ADD SWAP4 SWAP1 SWAP3 ADD SWAP2 PUSH1 0x1 ADD PUSH2 0x137 JUMP JUMPDEST DUP3 SLOAD PUSH1 0x1 PUSH1 0x1 PUSH1 0xA0 SHL SUB AND DUP5 MSTORE PUSH1 0x20 SWAP1 SWAP4 ADD SWAP3 PUSH1 0x1 SWAP3 DUP4 ADD SWAP3 ADD PUSH2 0x105 JUMP JUMPDEST CALLVALUE PUSH2 0x71 JUMPI PUSH1 0xE0 CALLDATASIZE PUSH1 0x3 NOT ADD SLT PUSH2 0x71 JUMPI PUSH1 0x4 CALLDATALOAD PUSH8 0xFFFFFFFFFFFFFFFF DUP2 GT PUSH2 0x71 JUMPI PUSH2 0x1B7 SWAP1 CALLDATASIZE SWAP1 PUSH1 0x4 ADD PUSH2 0x5C2 JUMP JUMPDEST PUSH1 0x24 CALLDATALOAD PUSH8 0xFFFFFFFFFFFFFFFF DUP2 GT PUSH2 0x71 JUMPI PUSH2 0x1D7 SWAP1 CALLDATASIZE SWAP1 PUSH1 0x4 ADD PUSH2 0x5C2 JUMP JUMPDEST PUSH1 0x44 CALLDATALOAD SWAP2 PUSH1 0x64 CALLDATALOAD SWAP2 PUSH1 0x84 CALLDATALOAD SWAP3 PUSH1 0xA4 CALLDATALOAD SWAP4 DUP5 ISZERO ISZERO DUP1 SWAP6 SUB PUSH2 0x71 JUMPI PUSH1 0xC4 CALLDATALOAD PUSH8 0xFFFFFFFFFFFFFFFF DUP2 GT PUSH2 0x71 JUMPI PUSH2 0x211 SWAP1 CALLDATASIZE SWAP1 PUSH1 0x4 ADD PUSH2 0x5C2 JUMP JUMPDEST SWAP6 DUP1 ISZERO PUSH2 0x4D8 JUMPI DUP3 ISZERO PUSH2 0x484 JUMPI DUP2 ISZERO PUSH2 0x42C JUMPI PUSH1 0x40 MLOAD SWAP3 PUSH2 0x1CFC DUP1 DUP6 ADD DUP6 DUP2 LT PUSH8 0xFFFFFFFFFFFFFFFF DUP3 GT OR PUSH2 0x416 JUMPI DUP6 SWAP5 PUSH1 0x0 SWAP4 PUSH1 0xC0 SWAP4 PUSH2 0x65B DUP9 CODECOPY PUSH1 0xE0 DUP4 MSTORE PUSH2 0x270 PUSH2 0x262 PUSH1 0xE0 DUP6 ADD DUP13 PUSH2 0x619 JUMP JUMPDEST DUP5 DUP2 SUB PUSH1 0x20 DUP7 ADD MSTORE DUP11 PUSH2 0x619 JUMP JUMPDEST SWAP6 CALLER PUSH1 0x40 DUP6 ADD MSTORE PUSH1 0x60 DUP5 ADD MSTORE PUSH1 0x80 DUP4 ADD MSTORE PUSH1 0xA0 DUP3 ADD MSTORE ADD MSTORE SUB SWAP1 PUSH1 0x0 CREATE DUP1 ISZERO PUSH2 0x40A JUMPI PUSH1 0x1 DUP1 PUSH1 0xA0 SHL SUB AND SWAP3 PUSH1 0x0 SLOAD SWAP2 PUSH9 0x10000000000000000 DUP4 LT ISZERO PUSH2 0x416 JUMPI PUSH2 0x349 PUSH2 0x325 SWAP3 PUSH2 0x2CA DUP6 PUSH1 0x1 PUSH1 0x20 SWAP8 ADD PUSH1 0x0 SSTORE PUSH2 0x570 JUMP JUMPDEST DUP2 SLOAD PUSH1 0x1 PUSH1 0x1 PUSH1 0xA0 SHL SUB PUSH1 0x3 SWAP3 SWAP1 SWAP3 SHL SWAP2 DUP3 SHL NOT AND SWAP1 DUP10 SWAP1 SHL OR SWAP1 SSTORE PUSH1 0x40 MLOAD PUSH4 0x11163E7 PUSH1 0xE5 SHL DUP2 MSTORE PUSH1 0x4 DUP2 ADD DUP9 SWAP1 MSTORE PUSH1 0xE0 PUSH1 0x24 DUP3 ADD MSTORE SWAP8 DUP9 SWAP5 DUP6 SWAP5 PUSH2 0x313 PUSH1 0xE4 DUP8 ADD DUP11 PUSH2 0x619 JUMP JUMPDEST DUP7 DUP2 SUB PUSH1 0x3 NOT ADD PUSH1 0x44 DUP9 ADD MSTORE SWAP1 PUSH2 0x619 JUMP JUMPDEST SWAP2 PUSH1 0x64 DUP6 ADD MSTORE PUSH1 0x0 PUSH1 0x84 DUP6 ADD MSTORE CALLER PUSH1 0xA4 DUP6 ADD MSTORE PUSH1 0x3 NOT DUP5 DUP4 SUB ADD PUSH1 0xC4 DUP6 ADD MSTORE PUSH2 0x619 JUMP JUMPDEST SUB DUP2 PUSH1 0x0 PUSH32 0x0 PUSH1 0x1 PUSH1 0x1 PUSH1 0xA0 SHL SUB AND GAS CALL SWAP3 DUP4 ISZERO PUSH2 0x40A JUMPI PUSH1 0x0 SWAP4 PUSH2 0x3D5 JUMPI JUMPDEST POP SWAP2 DUP1 PUSH1 0x40 SWAP4 DUP4 PUSH32 0xA54FE98C88EF7E8D9568052100A277AD74E1E159521F33326E0B53F5CC66CA14 DUP7 MLOAD PUSH1 0x20 DUP2 MSTORE DUP1 PUSH2 0x3C6 CALLER SWAP6 PUSH1 0x20 DUP4 ADD SWAP1 PUSH2 0x619 JUMP JUMPDEST SUB SWAP1 LOG4 DUP3 MLOAD SWAP2 DUP3 MSTORE PUSH1 0x20 DUP3 ADD MSTORE RETURN JUMPDEST SWAP3 POP PUSH1 0x20 DUP4 RETURNDATASIZE PUSH1 0x20 GT PUSH2 0x402 JUMPI JUMPDEST DUP2 PUSH2 0x3F0 PUSH1 0x20 SWAP4 DUP4 PUSH2 0x5A0 JUMP JUMPDEST DUP2 ADD SUB SLT PUSH2 0x71 JUMPI PUSH1 0x40 SWAP3 MLOAD SWAP3 PUSH2 0x388 JUMP JUMPDEST RETURNDATASIZE SWAP2 POP PUSH2 0x3E3 JUMP JUMPDEST PUSH1 0x40 MLOAD RETURNDATASIZE PUSH1 0x0 DUP3 RETURNDATACOPY RETURNDATASIZE SWAP1 REVERT JUMPDEST PUSH4 0x4E487B71 PUSH1 0xE0 SHL PUSH1 0x0 MSTORE PUSH1 0x41 PUSH1 0x4 MSTORE PUSH1 0x24 PUSH1 0x0 REVERT JUMPDEST PUSH1 0x40 MLOAD PUSH3 0x461BCD PUSH1 0xE5 SHL DUP2 MSTORE PUSH1 0x20 PUSH1 0x4 DUP3 ADD MSTORE PUSH1 0x2A PUSH1 0x24 DUP3 ADD MSTORE PUSH32 0x4D41585F5041525449434950414E54535F4D5553545F42455F47524541544552 PUSH1 0x44 DUP3 ADD MSTORE PUSH10 0x5F5448414E5F5A45524F PUSH1 0xB0 SHL PUSH1 0x64 DUP3 ADD MSTORE PUSH1 0x84 SWAP1 REVERT JUMPDEST PUSH1 0x40 MLOAD PUSH3 0x461BCD PUSH1 0xE5 SHL DUP2 MSTORE PUSH1 0x20 PUSH1 0x4 DUP3 ADD MSTORE PUSH1 0x26 PUSH1 0x24 DUP3 ADD MSTORE PUSH32 0x544F54414C5F524F554E44535F4D5553545F42455F475245415445525F544841 PUSH1 0x44 DUP3 ADD MSTORE PUSH6 0x4E5F5A45524F PUSH1 0xD0 SHL PUSH1 0x64 DUP3 ADD MSTORE PUSH1 0x84 SWAP1 REVERT JUMPDEST PUSH1 0x40 MLOAD PUSH3 0x461BCD PUSH1 0xE5 SHL DUP2 MSTORE PUSH1 0x20 PUSH1 0x4 DUP3 ADD MSTORE PUSH1 0x28 PUSH1 0x24 DUP3 ADD MSTORE PUSH32 0x4445504F5349545F414D4F554E545F4D5553545F42455F475245415445525F54 PUSH1 0x44 DUP3 ADD MSTORE PUSH8 0x48414E5F5A45524F PUSH1 0xC0 SHL PUSH1 0x64 DUP3 ADD MSTORE PUSH1 0x84 SWAP1 REVERT JUMPDEST CALLVALUE PUSH2 0x71 JUMPI PUSH1 0x20 CALLDATASIZE PUSH1 0x3 NOT ADD SLT PUSH2 0x71 JUMPI PUSH1 0x4 CALLDATALOAD PUSH1 0x0 SLOAD DUP2 LT ISZERO PUSH2 0x71 JUMPI PUSH2 0x557 PUSH1 0x20 SWAP2 PUSH2 0x570 JUMP JUMPDEST SWAP1 SLOAD PUSH1 0x40 MLOAD PUSH1 0x3 SWAP3 SWAP1 SWAP3 SHL SHR PUSH1 0x1 PUSH1 0x1 PUSH1 0xA0 SHL SUB AND DUP2 MSTORE RETURN JUMPDEST PUSH1 0x0 SLOAD DUP2 LT ISZERO PUSH2 0x58A JUMPI PUSH1 0x0 DUP1 MSTORE PUSH1 0x20 PUSH1 0x0 KECCAK256 ADD SWAP1 PUSH1 0x0 SWAP1 JUMP JUMPDEST PUSH4 0x4E487B71 PUSH1 0xE0 SHL PUSH1 0x0 MSTORE PUSH1 0x32 PUSH1 0x4 MSTORE PUSH1 0x24 PUSH1 0x0 REVERT JUMPDEST SWAP1 PUSH1 0x1F DUP1 NOT SWAP2 ADD AND DUP2 ADD SWAP1 DUP2 LT PUSH8 0xFFFFFFFFFFFFFFFF DUP3 GT OR PUSH2 0x416 JUMPI PUSH1 0x40 MSTORE JUMP JUMPDEST DUP2 PUSH1 0x1F DUP3 ADD SLT ISZERO PUSH2 0x71 JUMPI DUP1 CALLDATALOAD SWAP1 PUSH8 0xFFFFFFFFFFFFFFFF DUP3 GT PUSH2 0x416 JUMPI PUSH1 0x40 MLOAD SWAP3 PUSH2 0x5F7 PUSH1 0x1F DUP5 ADD PUSH1 0x1F NOT AND PUSH1 0x20 ADD DUP6 PUSH2 0x5A0 JUMP JUMPDEST DUP3 DUP5 MSTORE PUSH1 0x20 DUP4 DUP4 ADD ADD GT PUSH2 0x71 JUMPI DUP2 PUSH1 0x0 SWAP3 PUSH1 0x20 DUP1 SWAP4 ADD DUP4 DUP7 ADD CALLDATACOPY DUP4 ADD ADD MSTORE SWAP1 JUMP JUMPDEST SWAP2 SWAP1 DUP3 MLOAD SWAP3 DUP4 DUP3 MSTORE PUSH1 0x0 JUMPDEST DUP5 DUP2 LT PUSH2 0x645 JUMPI POP POP DUP3 PUSH1 0x0 PUSH1 0x20 DUP1 SWAP5 SWAP6 DUP5 ADD ADD MSTORE PUSH1 0x1F DUP1 NOT SWAP2 ADD AND ADD ADD SWAP1 JUMP JUMPDEST DUP1 PUSH1 0x20 DUP1 SWAP3 DUP5 ADD ADD MLOAD DUP3 DUP3 DUP7 ADD ADD MSTORE ADD PUSH2 0x624 JUMP INVALID PUSH1 0x80 PUSH1 0x40 MSTORE CALLVALUE PUSH2 0x4C3 JUMPI PUSH2 0x1CFC DUP1 CODESIZE SUB DUP1 PUSH2 0x19 DUP2 PUSH2 0x4C8 JUMP JUMPDEST SWAP3 DUP4 CODECOPY DUP2 ADD SWAP1 PUSH1 0xE0 DUP2 DUP4 SUB SLT PUSH2 0x4C3 JUMPI DUP1 MLOAD PUSH1 0x1 PUSH1 0x1 PUSH1 0x40 SHL SUB DUP2 GT PUSH2 0x4C3 JUMPI DUP3 PUSH2 0x45 SWAP2 DUP4 ADD PUSH2 0x4ED JUMP JUMPDEST PUSH1 0x20 DUP3 ADD MLOAD SWAP1 SWAP3 PUSH1 0x1 PUSH1 0x1 PUSH1 0x40 SHL SUB DUP3 GT PUSH2 0x4C3 JUMPI PUSH2 0x65 SWAP2 DUP4 ADD PUSH2 0x4ED JUMP JUMPDEST PUSH1 0x40 DUP3 ADD MLOAD PUSH1 0x1 PUSH1 0x1 PUSH1 0xA0 SHL SUB DUP2 AND SWAP1 DUP2 SWAP1 SUB PUSH2 0x4C3 JUMPI PUSH1 0x60 DUP4 ADD MLOAD SWAP1 PUSH1 0x80 DUP5 ADD MLOAD SWAP3 PUSH1 0xC0 PUSH1 0xA0 DUP7 ADD MLOAD SWAP6 ADD MLOAD SWAP6 DUP4 ISZERO PUSH2 0x48F JUMPI DUP5 ISZERO ISZERO DUP1 PUSH2 0x484 JUMPI JUMPDEST ISZERO PUSH2 0x44E JUMPI DUP6 ISZERO PUSH2 0x409 JUMPI DUP7 ISZERO DUP1 ISZERO PUSH2 0x3FF JUMPI JUMPDEST ISZERO PUSH2 0x3CA JUMPI DUP1 MLOAD SWAP1 PUSH1 0x1 PUSH1 0x1 PUSH1 0x40 SHL SUB DUP3 GT PUSH2 0x2CA JUMPI PUSH1 0x0 SLOAD SWAP1 PUSH1 0x1 DUP3 DUP2 SHR SWAP3 AND DUP1 ISZERO PUSH2 0x3C0 JUMPI JUMPDEST PUSH1 0x20 DUP4 LT EQ PUSH2 0x2AA JUMPI DUP2 PUSH1 0x1F DUP5 SWAP4 GT PUSH2 0x351 JUMPI JUMPDEST POP PUSH1 0x20 SWAP1 PUSH1 0x1F DUP4 GT PUSH1 0x1 EQ PUSH2 0x2EB JUMPI PUSH1 0x0 SWAP3 PUSH2 0x2E0 JUMPI JUMPDEST POP POP DUP2 PUSH1 0x1 SHL SWAP2 PUSH1 0x0 NOT SWAP1 PUSH1 0x3 SHL SHR NOT AND OR PUSH1 0x0 SSTORE JUMPDEST DUP1 MLOAD SWAP1 PUSH1 0x1 PUSH1 0x1 PUSH1 0x40 SHL SUB DUP3 GT PUSH2 0x2CA JUMPI PUSH1 0x1 SLOAD SWAP1 PUSH1 0x1 DUP3 DUP2 SHR SWAP3 AND DUP1 ISZERO PUSH2 0x2C0 JUMPI JUMPDEST PUSH1 0x20 DUP4 LT EQ PUSH2 0x2AA JUMPI DUP2 PUSH1 0x1F DUP5 SWAP4 GT PUSH2 0x23A JUMPI JUMPDEST POP PUSH1 0x20 SWAP1 PUSH1 0x1F DUP4 GT PUSH1 0x1 EQ PUSH2 0x1D2 JUMPI PUSH1 0x0 SWAP3 PUSH2 0x1C7 JUMPI JUMPDEST POP POP DUP2 PUSH1 0x1 SHL SWAP2 PUSH1 0x0 NOT SWAP1 PUSH1 0x3 SHL SHR NOT AND OR PUSH1 0x1 SSTORE JUMPDEST PUSH1 0x2 DUP1 SLOAD PUSH1 0x1 PUSH1 0x1 PUSH1 0xA0 SHL SUB NOT AND SWAP2 SWAP1 SWAP2 OR SWAP1 SSTORE PUSH1 0x5 SSTORE PUSH1 0x6 SSTORE PUSH1 0x8 SSTORE PUSH3 0x15180 PUSH1 0x7 SSTORE PUSH1 0x4 SSTORE TIMESTAMP PUSH1 0x3 SSTORE PUSH1 0x9 DUP1 SLOAD PUSH1 0xFF NOT AND SWAP1 SSTORE PUSH1 0x40 MLOAD PUSH2 0x17A3 SWAP1 DUP2 PUSH2 0x559 DUP3 CODECOPY RETURN JUMPDEST ADD MLOAD SWAP1 POP CODESIZE DUP1 PUSH2 0x16D JUMP JUMPDEST PUSH1 0x1 PUSH1 0x0 SWAP1 DUP2 MSTORE DUP3 DUP2 KECCAK256 SWAP4 POP PUSH1 0x1F NOT DUP6 AND SWAP1 JUMPDEST DUP2 DUP2 LT PUSH2 0x222 JUMPI POP SWAP1 DUP5 PUSH1 0x1 SWAP6 SWAP5 SWAP4 SWAP3 LT PUSH2 0x209 JUMPI JUMPDEST POP POP POP DUP2 SHL ADD PUSH1 0x1 SSTORE PUSH2 0x183 JUMP JUMPDEST ADD MLOAD PUSH1 0x0 NOT PUSH1 0xF8 DUP5 PUSH1 0x3 SHL AND SHR NOT AND SWAP1 SSTORE CODESIZE DUP1 DUP1 PUSH2 0x1FB JUMP JUMPDEST SWAP3 SWAP4 PUSH1 0x20 PUSH1 0x1 DUP2 SWAP3 DUP8 DUP7 ADD MLOAD DUP2 SSTORE ADD SWAP6 ADD SWAP4 ADD PUSH2 0x1E5 JUMP JUMPDEST PUSH1 0x1 PUSH1 0x0 MSTORE SWAP1 SWAP2 POP PUSH32 0xB10E2D527612073B26EECDFD717E6A320CF44B4AFAC2B0732D9FCBE2B7FA0CF6 PUSH1 0x1F DUP5 ADD PUSH1 0x5 SHR DUP2 ADD SWAP2 PUSH1 0x20 DUP6 LT PUSH2 0x2A0 JUMPI JUMPDEST SWAP1 PUSH1 0x1F DUP6 SWAP5 SWAP4 SWAP3 ADD PUSH1 0x5 SHR ADD SWAP1 JUMPDEST DUP2 DUP2 LT PUSH2 0x291 JUMPI POP PUSH2 0x156 JUMP JUMPDEST PUSH1 0x0 DUP2 SSTORE DUP5 SWAP4 POP PUSH1 0x1 ADD PUSH2 0x284 JUMP JUMPDEST SWAP1 SWAP2 POP DUP2 SWAP1 PUSH2 0x276 JUMP JUMPDEST PUSH4 0x4E487B71 PUSH1 0xE0 SHL PUSH1 0x0 MSTORE PUSH1 0x22 PUSH1 0x4 MSTORE PUSH1 0x24 PUSH1 0x0 REVERT JUMPDEST SWAP2 PUSH1 0x7F AND SWAP2 PUSH2 0x142 JUMP JUMPDEST PUSH4 0x4E487B71 PUSH1 0xE0 SHL PUSH1 0x0 MSTORE PUSH1 0x41 PUSH1 0x4 MSTORE PUSH1 0x24 PUSH1 0x0 REVERT JUMPDEST ADD MLOAD SWAP1 POP CODESIZE DUP1 PUSH2 0x109 JUMP JUMPDEST PUSH1 0x0 DUP1 DUP1 MSTORE DUP3 DUP2 KECCAK256 SWAP4 POP PUSH1 0x1F NOT DUP6 AND SWAP1 JUMPDEST DUP2 DUP2 LT PUSH2 0x339 JUMPI POP SWAP1 DUP5 PUSH1 0x1 SWAP6 SWAP5 SWAP4 SWAP3 LT PUSH2 0x320 JUMPI JUMPDEST POP POP POP DUP2 SHL ADD PUSH1 0x0 SSTORE PUSH2 0x11F JUMP JUMPDEST ADD MLOAD PUSH1 0x0 NOT PUSH1 0xF8 DUP5 PUSH1 0x3 SHL AND SHR NOT AND SWAP1 SSTORE CODESIZE DUP1 DUP1 PUSH2 0x312 JUMP JUMPDEST SWAP3 SWAP4 PUSH1 0x20 PUSH1 0x1 DUP2 SWAP3 DUP8 DUP7 ADD MLOAD DUP2 SSTORE ADD SWAP6 ADD SWAP4 ADD PUSH2 0x2FC JUMP JUMPDEST PUSH1 0x0 DUP1 MSTORE SWAP1 SWAP2 POP PUSH32 0x290DECD9548B62A8D60345A988386FC84BA6BC95484008F6362F93160EF3E563 PUSH1 0x1F DUP5 ADD PUSH1 0x5 SHR DUP2 ADD SWAP2 PUSH1 0x20 DUP6 LT PUSH2 0x3B6 JUMPI JUMPDEST SWAP1 PUSH1 0x1F DUP6 SWAP5 SWAP4 SWAP3 ADD PUSH1 0x5 SHR ADD SWAP1 JUMPDEST DUP2 DUP2 LT PUSH2 0x3A7 JUMPI POP PUSH2 0xF2 JUMP JUMPDEST PUSH1 0x0 DUP2 SSTORE DUP5 SWAP4 POP PUSH1 0x1 ADD PUSH2 0x39A JUMP JUMPDEST SWAP1 SWAP2 POP DUP2 SWAP1 PUSH2 0x38C JUMP JUMPDEST SWAP2 PUSH1 0x7F AND SWAP2 PUSH2 0xDE JUMP JUMPDEST PUSH1 0x40 MLOAD PUSH3 0x461BCD PUSH1 0xE5 SHL DUP2 MSTORE PUSH1 0x20 PUSH1 0x4 DUP3 ADD MSTORE PUSH1 0xD PUSH1 0x24 DUP3 ADD MSTORE PUSH13 0x14D510549517D25397D41054D5 PUSH1 0x9A SHL PUSH1 0x44 DUP3 ADD MSTORE PUSH1 0x64 SWAP1 REVERT JUMPDEST POP TIMESTAMP DUP8 LT ISZERO PUSH2 0xB6 JUMP JUMPDEST PUSH1 0x40 MLOAD PUSH3 0x461BCD PUSH1 0xE5 SHL DUP2 MSTORE PUSH1 0x20 PUSH1 0x4 DUP3 ADD MSTORE PUSH1 0x15 PUSH1 0x24 DUP3 ADD MSTORE PUSH32 0x5A45524F5F4D41585F5041525449434950414E54530000000000000000000000 PUSH1 0x44 DUP3 ADD MSTORE PUSH1 0x64 SWAP1 REVERT JUMPDEST PUSH1 0x40 MLOAD PUSH3 0x461BCD PUSH1 0xE5 SHL DUP2 MSTORE PUSH1 0x20 PUSH1 0x4 DUP3 ADD MSTORE PUSH1 0xE PUSH1 0x24 DUP3 ADD MSTORE PUSH14 0x494E56414C49445F524F554E4453 PUSH1 0x90 SHL PUSH1 0x44 DUP3 ADD MSTORE PUSH1 0x64 SWAP1 REVERT JUMPDEST POP PUSH1 0x5A DUP6 GT ISZERO PUSH2 0xA2 JUMP JUMPDEST PUSH1 0x40 MLOAD PUSH3 0x461BCD PUSH1 0xE5 SHL DUP2 MSTORE PUSH1 0x20 PUSH1 0x4 DUP3 ADD MSTORE PUSH1 0xC PUSH1 0x24 DUP3 ADD MSTORE PUSH12 0x16915493D7D1115413D4D255 PUSH1 0xA2 SHL PUSH1 0x44 DUP3 ADD MSTORE PUSH1 0x64 SWAP1 REVERT JUMPDEST PUSH1 0x0 DUP1 REVERT JUMPDEST PUSH1 0x40 MLOAD SWAP2 SWAP1 PUSH1 0x1F ADD PUSH1 0x1F NOT AND DUP3 ADD PUSH1 0x1 PUSH1 0x1 PUSH1 0x40 SHL SUB DUP2 GT DUP4 DUP3 LT OR PUSH2 0x2CA JUMPI PUSH1 0x40 MSTORE JUMP JUMPDEST DUP2 PUSH1 0x1F DUP3 ADD SLT ISZERO PUSH2 0x4C3 JUMPI DUP1 MLOAD SWAP1 PUSH1 0x1 PUSH1 0x1 PUSH1 0x40 SHL SUB DUP3 GT PUSH2 0x2CA JUMPI PUSH2 0x51C PUSH1 0x1F DUP4 ADD PUSH1 0x1F NOT AND PUSH1 0x20 ADD PUSH2 0x4C8 JUMP JUMPDEST SWAP3 DUP3 DUP5 MSTORE PUSH1 0x20 DUP4 DUP4 ADD ADD GT PUSH2 0x4C3 JUMPI PUSH1 0x0 JUMPDEST DUP3 DUP2 LT PUSH2 0x543 JUMPI POP POP PUSH1 0x20 PUSH1 0x0 SWAP2 DUP4 ADD ADD MSTORE SWAP1 JUMP JUMPDEST DUP1 PUSH1 0x20 DUP1 SWAP3 DUP5 ADD ADD MLOAD DUP3 DUP3 DUP8 ADD ADD MSTORE ADD PUSH2 0x52E JUMP INVALID PUSH1 0xA0 DUP1 PUSH1 0x40 MSTORE PUSH1 0x4 CALLDATASIZE LT ISZERO PUSH2 0x13 JUMPI PUSH1 0x0 DUP1 REVERT JUMPDEST PUSH1 0x0 CALLDATALOAD PUSH1 0xE0 SHR SWAP1 DUP2 PUSH4 0x145A938 EQ PUSH2 0xB61 JUMPI POP DUP1 PUSH4 0x2D05D3F EQ PUSH2 0xB38 JUMPI DUP1 PUSH4 0x183FF085 EQ PUSH2 0xB1D JUMPI DUP1 PUSH4 0x200D2ED2 EQ PUSH2 0xAF7 JUMPI DUP1 PUSH4 0x24924BF7 EQ PUSH2 0xAD9 JUMPI DUP1 PUSH4 0x3197CBB6 EQ PUSH2 0xABE JUMPI DUP1 PUSH4 0x362F04C0 EQ PUSH2 0xAA0 JUMPI DUP1 PUSH4 0x4051DDAC EQ PUSH2 0x8E6 JUMPI DUP1 PUSH4 0x419759F5 EQ PUSH2 0x8C8 JUMPI DUP1 PUSH4 0x49713811 EQ PUSH2 0x8AA JUMPI DUP1 PUSH4 0x4A79D50C EQ PUSH2 0x7D0 JUMPI DUP1 PUSH4 0x4EE0AB0D EQ PUSH2 0x765 JUMPI DUP1 PUSH4 0x5AA68AC0 EQ PUSH2 0x699 JUMPI DUP1 PUSH4 0x6FE8022C EQ PUSH2 0x64D JUMPI DUP1 PUSH4 0x71BDCE55 EQ PUSH2 0x52B JUMPI DUP1 PUSH4 0x7284E416 EQ PUSH2 0x4FB JUMPI DUP1 PUSH4 0x78E97925 EQ PUSH2 0x4DD JUMPI DUP1 PUSH4 0x8942D0B3 EQ PUSH2 0x2C7 JUMPI DUP1 PUSH4 0x8A19C8BC EQ PUSH2 0x2A4 JUMPI DUP1 PUSH4 0x8A568299 EQ PUSH2 0x286 JUMPI DUP1 PUSH4 0x96365D44 EQ PUSH2 0x26A JUMPI DUP1 PUSH4 0x9ABED90D EQ PUSH2 0x24C JUMPI DUP1 PUSH4 0xA99A67E6 EQ PUSH2 0x22E JUMPI DUP1 PUSH4 0xAC60A269 EQ PUSH2 0x202 JUMPI DUP1 PUSH4 0xCF09E0D0 EQ PUSH2 0x1E4 JUMPI DUP1 PUSH4 0xF7CB789A EQ PUSH2 0x1C6 JUMPI PUSH4 0xFF85FBA2 EQ PUSH2 0x148 JUMPI PUSH1 0x0 DUP1 REVERT JUMPDEST CALLVALUE PUSH2 0x1C1 JUMPI PUSH1 0x0 CALLDATASIZE PUSH1 0x3 NOT ADD SLT PUSH2 0x1C1 JUMPI PUSH2 0x16E PUSH1 0x1 DUP1 PUSH1 0xA0 SHL SUB PUSH1 0x2 SLOAD AND CALLER EQ PUSH2 0xFFD JUMP JUMPDEST PUSH1 0xFF PUSH1 0x9 SLOAD AND PUSH1 0x3 DUP2 LT ISZERO PUSH2 0x1AB JUMPI PUSH2 0x187 SWAP1 ISZERO PUSH2 0x15DD JUMP JUMPDEST PUSH2 0x193 PUSH1 0x4 SLOAD ISZERO PUSH2 0x15DD JUMP JUMPDEST PUSH2 0x1A5 PUSH1 0x1 PUSH1 0xFF NOT PUSH1 0x9 SLOAD AND OR PUSH1 0x9 SSTORE JUMP JUMPDEST TIMESTAMP PUSH1 0x4 SSTORE STOP JUMPDEST PUSH4 0x4E487B71 PUSH1 0xE0 SHL PUSH1 0x0 MSTORE PUSH1 0x21 PUSH1 0x4 MSTORE PUSH1 0x24 PUSH1 0x0 REVERT JUMPDEST PUSH1 0x0 DUP1 REVERT JUMPDEST CALLVALUE PUSH2 0x1C1 JUMPI PUSH1 0x0 CALLDATASIZE PUSH1 0x3 NOT ADD SLT PUSH2 0x1C1 JUMPI PUSH1 0x20 PUSH1 0x7 SLOAD PUSH1 0x40 MLOAD SWAP1 DUP2 MSTORE RETURN JUMPDEST CALLVALUE PUSH2 0x1C1 JUMPI PUSH1 0x0 CALLDATASIZE PUSH1 0x3 NOT ADD SLT PUSH2 0x1C1 JUMPI PUSH1 0x20 PUSH1 0x3 SLOAD PUSH1 0x40 MLOAD SWAP1 DUP2 MSTORE RETURN JUMPDEST CALLVALUE PUSH2 0x1C1 JUMPI PUSH1 0x0 CALLDATASIZE PUSH1 0x3 NOT ADD SLT PUSH2 0x1C1 JUMPI PUSH2 0x22A PUSH2 0x21E PUSH2 0x167B JUMP JUMPDEST PUSH1 0x40 MLOAD SWAP2 DUP3 SWAP2 DUP3 PUSH2 0xB7C JUMP JUMPDEST SUB SWAP1 RETURN JUMPDEST CALLVALUE PUSH2 0x1C1 JUMPI PUSH1 0x0 CALLDATASIZE PUSH1 0x3 NOT ADD SLT PUSH2 0x1C1 JUMPI PUSH1 0x20 PUSH1 0xD SLOAD PUSH1 0x40 MLOAD SWAP1 DUP2 MSTORE RETURN JUMPDEST CALLVALUE PUSH2 0x1C1 JUMPI PUSH1 0x0 CALLDATASIZE PUSH1 0x3 NOT ADD SLT PUSH2 0x1C1 JUMPI PUSH1 0x20 PUSH1 0xC SLOAD PUSH1 0x40 MLOAD SWAP1 DUP2 MSTORE RETURN JUMPDEST CALLVALUE PUSH2 0x1C1 JUMPI PUSH1 0x0 CALLDATASIZE PUSH1 0x3 NOT ADD SLT PUSH2 0x1C1 JUMPI PUSH1 0x20 SELFBALANCE PUSH1 0x40 MLOAD SWAP1 DUP2 MSTORE RETURN JUMPDEST CALLVALUE PUSH2 0x1C1 JUMPI PUSH1 0x0 CALLDATASIZE PUSH1 0x3 NOT ADD SLT PUSH2 0x1C1 JUMPI PUSH1 0x20 PUSH1 0x6 SLOAD PUSH1 0x40 MLOAD SWAP1 DUP2 MSTORE RETURN JUMPDEST CALLVALUE PUSH2 0x1C1 JUMPI PUSH1 0x0 CALLDATASIZE PUSH1 0x3 NOT ADD SLT PUSH2 0x1C1 JUMPI PUSH1 0x20 PUSH2 0x2BF PUSH2 0x161B JUMP JUMPDEST PUSH1 0x40 MLOAD SWAP1 DUP2 MSTORE RETURN JUMPDEST PUSH1 0x0 CALLDATASIZE PUSH1 0x3 NOT ADD SLT PUSH2 0x1C1 JUMPI PUSH2 0x2DB PUSH2 0x16B0 JUMP JUMPDEST PUSH1 0xFF PUSH1 0x9 SLOAD AND PUSH1 0x3 DUP2 LT ISZERO PUSH2 0x1AB JUMPI PUSH2 0x4AA JUMPI PUSH2 0x304 PUSH1 0x4 SLOAD DUP1 ISZERO SWAP1 DUP2 ISZERO PUSH2 0x4A0 JUMPI JUMPDEST POP PUSH2 0x15DD JUMP JUMPDEST PUSH1 0x5 SLOAD CALLVALUE SUB PUSH2 0x46B JUMPI PUSH1 0xE SLOAD PUSH1 0x8 SLOAD GT ISZERO PUSH2 0x426 JUMPI CALLER PUSH1 0x0 MSTORE PUSH1 0xF PUSH1 0x20 MSTORE PUSH1 0x40 PUSH1 0x0 KECCAK256 DUP1 SLOAD PUSH1 0xFF DUP2 AND PUSH2 0x3F0 JUMPI PUSH1 0xFF NOT AND PUSH1 0x1 SWAP1 DUP2 OR DUP3 SSTORE PUSH1 0x0 NOT SWAP2 ADD SSTORE PUSH1 0xE SLOAD PUSH9 0x10000000000000000 DUP2 LT ISZERO PUSH2 0x3DA JUMPI DUP1 PUSH1 0x1 PUSH2 0x366 SWAP3 ADD PUSH1 0xE SSTORE PUSH2 0x1038 JUMP JUMPDEST DUP2 SLOAD PUSH1 0x1 PUSH1 0x1 PUSH1 0xA0 SHL SUB PUSH1 0x3 SWAP3 SWAP1 SWAP3 SHL SWAP2 DUP3 SHL NOT AND CALLER SWAP1 SWAP2 SHL OR SWAP1 SSTORE PUSH1 0xA SLOAD PUSH1 0x1 DUP2 ADD SWAP1 DUP2 LT PUSH2 0x3C4 JUMPI PUSH1 0xA SSTORE PUSH1 0xE SLOAD PUSH1 0x40 MLOAD SWAP1 DUP2 MSTORE PUSH32 0x8123641A38AD3476AC345FC38496FA9EDC26A110698C8C0C9FFFC30F546F918C PUSH1 0x20 CALLER SWAP3 LOG2 STOP JUMPDEST PUSH4 0x4E487B71 PUSH1 0xE0 SHL PUSH1 0x0 MSTORE PUSH1 0x11 PUSH1 0x4 MSTORE PUSH1 0x24 PUSH1 0x0 REVERT JUMPDEST PUSH4 0x4E487B71 PUSH1 0xE0 SHL PUSH1 0x0 MSTORE PUSH1 0x41 PUSH1 0x4 MSTORE PUSH1 0x24 PUSH1 0x0 REVERT JUMPDEST PUSH1 0x40 MLOAD PUSH3 0x461BCD PUSH1 0xE5 SHL DUP2 MSTORE PUSH1 0x20 PUSH1 0x4 DUP3 ADD MSTORE PUSH1 0xE PUSH1 0x24 DUP3 ADD MSTORE PUSH14 0x1053149150511657D293D2539151 PUSH1 0x92 SHL PUSH1 0x44 DUP3 ADD MSTORE PUSH1 0x64 SWAP1 REVERT JUMPDEST PUSH1 0x40 MLOAD PUSH3 0x461BCD PUSH1 0xE5 SHL DUP2 MSTORE PUSH1 0x20 PUSH1 0x4 DUP3 ADD MSTORE PUSH1 0x18 PUSH1 0x24 DUP3 ADD MSTORE PUSH32 0x4D41585F5041525449434950414E54535F524541434845440000000000000000 PUSH1 0x44 DUP3 ADD MSTORE PUSH1 0x64 SWAP1 REVERT JUMPDEST PUSH1 0x40 MLOAD PUSH3 0x461BCD PUSH1 0xE5 SHL DUP2 MSTORE PUSH1 0x20 PUSH1 0x4 DUP3 ADD MSTORE PUSH1 0xD PUSH1 0x24 DUP3 ADD MSTORE PUSH13 0x15D493D391D7D1115413D4D255 PUSH1 0x9A SHL PUSH1 0x44 DUP3 ADD MSTORE PUSH1 0x64 SWAP1 REVERT JUMPDEST SWAP1 POP TIMESTAMP LT DUP3 PUSH2 0x2FE JUMP JUMPDEST PUSH1 0x40 MLOAD PUSH3 0x461BCD PUSH1 0xE5 SHL DUP2 MSTORE PUSH1 0x20 PUSH1 0x4 DUP3 ADD MSTORE PUSH1 0xB PUSH1 0x24 DUP3 ADD MSTORE PUSH11 0x1293D25397D0D313D4D151 PUSH1 0xAA SHL PUSH1 0x44 DUP3 ADD MSTORE PUSH1 0x64 SWAP1 REVERT JUMPDEST CALLVALUE PUSH2 0x1C1 JUMPI PUSH1 0x0 CALLDATASIZE PUSH1 0x3 NOT ADD SLT PUSH2 0x1C1 JUMPI PUSH1 0x20 PUSH1 0x4 SLOAD PUSH1 0x40 MLOAD SWAP1 DUP2 MSTORE RETURN JUMPDEST CALLVALUE PUSH2 0x1C1 JUMPI PUSH1 0x0 CALLDATASIZE PUSH1 0x3 NOT ADD SLT PUSH2 0x1C1 JUMPI PUSH2 0x22A PUSH2 0x517 PUSH2 0xBF2 JUMP JUMPDEST PUSH1 0x40 MLOAD SWAP2 DUP3 SWAP2 PUSH1 0x20 DUP4 MSTORE PUSH1 0x20 DUP4 ADD SWAP1 PUSH2 0xB8F JUMP JUMPDEST CALLVALUE PUSH2 0x1C1 JUMPI PUSH1 0x20 CALLDATASIZE PUSH1 0x3 NOT ADD SLT PUSH2 0x1C1 JUMPI PUSH1 0x4 CALLDATALOAD PUSH1 0x1 PUSH1 0x1 PUSH1 0xA0 SHL SUB DUP2 AND SWAP1 DUP2 SWAP1 SUB PUSH2 0x1C1 JUMPI PUSH1 0x0 MSTORE PUSH1 0xF PUSH1 0x20 MSTORE PUSH1 0x40 PUSH1 0x0 KECCAK256 PUSH1 0x40 MLOAD SWAP1 PUSH1 0xA0 DUP3 ADD DUP3 DUP2 LT PUSH8 0xFFFFFFFFFFFFFFFF DUP3 GT OR PUSH2 0x3DA JUMPI PUSH1 0x40 MSTORE DUP1 SLOAD SWAP1 PUSH1 0xFF DUP3 AND ISZERO ISZERO DUP4 MSTORE PUSH1 0xFF PUSH1 0x20 DUP5 ADD SWAP3 PUSH1 0x8 SHR AND ISZERO ISZERO DUP3 MSTORE PUSH1 0x2 PUSH1 0x1 DUP3 ADD SLOAD SWAP2 PUSH1 0x40 DUP6 ADD SWAP3 DUP4 MSTORE ADD SLOAD SWAP3 PUSH1 0x60 DUP2 ADD SWAP2 PUSH1 0xFF DUP6 AND ISZERO ISZERO DUP4 MSTORE PUSH1 0xFF PUSH1 0x80 DUP4 ADD SWAP6 PUSH1 0x8 SHR AND ISZERO ISZERO DUP6 MSTORE PUSH1 0xFF PUSH1 0x9 SLOAD AND SWAP5 PUSH1 0x3 DUP7 LT ISZERO PUSH2 0x1AB JUMPI PUSH1 0x2 PUSH1 0xE0 SWAP7 EQ SWAP2 DUP3 PUSH2 0x642 JUMPI JUMPDEST DUP3 PUSH2 0x638 JUMPI JUMPDEST DUP3 PUSH2 0x62D JUMPI JUMPDEST MLOAD SWAP3 MLOAD ISZERO ISZERO SWAP5 MLOAD ISZERO ISZERO SWAP4 MLOAD ISZERO ISZERO SWAP1 MLOAD ISZERO ISZERO SWAP4 PUSH1 0x40 MLOAD SWAP6 DUP7 MSTORE PUSH1 0x20 DUP7 ADD MSTORE DUP3 PUSH1 0x40 DUP7 ADD MSTORE PUSH1 0x60 DUP6 ADD MSTORE ISZERO ISZERO PUSH1 0x80 DUP5 ADD MSTORE PUSH1 0x0 NOT EQ ISZERO PUSH1 0xA0 DUP4 ADD MSTORE PUSH1 0xC0 DUP3 ADD MSTORE RETURN JUMPDEST DUP2 MLOAD ISZERO ISZERO SWAP3 POP PUSH2 0x5ED JUMP JUMPDEST DUP6 MLOAD ISZERO SWAP3 POP PUSH2 0x5E7 JUMP JUMPDEST DUP4 MLOAD ISZERO ISZERO SWAP3 POP PUSH2 0x5E1 JUMP JUMPDEST CALLVALUE PUSH2 0x1C1 JUMPI PUSH1 0x0 CALLDATASIZE PUSH1 0x3 NOT ADD SLT PUSH2 0x1C1 JUMPI PUSH1 0x80 PUSH2 0x668 PUSH2 0x161B JUMP JUMPDEST PUSH2 0x670 PUSH2 0xFD8 JUMP JUMPDEST PUSH1 0x4 SLOAD TIMESTAMP LT ISZERO PUSH2 0x67E PUSH2 0xFD8 JUMP JUMPDEST TIMESTAMP LT ISZERO SWAP2 PUSH1 0x40 MLOAD SWAP4 DUP5 MSTORE PUSH1 0x20 DUP5 ADD MSTORE PUSH1 0x40 DUP4 ADD MSTORE PUSH1 0x60 DUP3 ADD MSTORE RETURN JUMPDEST CALLVALUE PUSH2 0x1C1 JUMPI PUSH1 0x0 CALLDATASIZE PUSH1 0x3 NOT ADD SLT PUSH2 0x1C1 JUMPI PUSH1 0x40 MLOAD DUP1 PUSH1 0x20 PUSH1 0xE SLOAD SWAP3 DUP4 DUP2 MSTORE ADD DUP1 SWAP3 PUSH1 0xE PUSH1 0x0 MSTORE PUSH32 0xBB7B4A454DC3493923482F07822329ED19E8244EFF582CC204F8554C3620C3FD SWAP1 PUSH1 0x0 JUMPDEST DUP2 DUP2 LT PUSH2 0x746 JUMPI POP POP POP DUP2 PUSH2 0x6FA SWAP2 SUB DUP3 PUSH2 0xBD0 JUMP JUMPDEST PUSH1 0x40 MLOAD SWAP2 DUP3 SWAP2 PUSH1 0x20 DUP4 ADD SWAP1 PUSH1 0x20 DUP5 MSTORE MLOAD DUP1 SWAP2 MSTORE PUSH1 0x40 DUP4 ADD SWAP2 SWAP1 PUSH1 0x0 JUMPDEST DUP2 DUP2 LT PUSH2 0x724 JUMPI POP POP POP SUB SWAP1 RETURN JUMPDEST DUP3 MLOAD PUSH1 0x1 PUSH1 0x1 PUSH1 0xA0 SHL SUB AND DUP5 MSTORE DUP6 SWAP5 POP PUSH1 0x20 SWAP4 DUP5 ADD SWAP4 SWAP1 SWAP3 ADD SWAP2 PUSH1 0x1 ADD PUSH2 0x716 JUMP JUMPDEST DUP3 SLOAD PUSH1 0x1 PUSH1 0x1 PUSH1 0xA0 SHL SUB AND DUP5 MSTORE PUSH1 0x20 SWAP1 SWAP4 ADD SWAP3 PUSH1 0x1 SWAP3 DUP4 ADD SWAP3 ADD PUSH2 0x6E4 JUMP JUMPDEST CALLVALUE PUSH2 0x1C1 JUMPI PUSH1 0x0 CALLDATASIZE PUSH1 0x3 NOT ADD SLT PUSH2 0x1C1 JUMPI PUSH1 0x10 SLOAD PUSH1 0xFF DUP2 AND PUSH2 0x79F JUMPI PUSH1 0xFF NOT AND PUSH1 0x1 OR PUSH1 0x10 SSTORE PUSH2 0x793 PUSH2 0x10D8 JUMP JUMPDEST PUSH1 0x10 DUP1 SLOAD PUSH1 0xFF NOT AND SWAP1 SSTORE STOP JUMPDEST PUSH1 0x40 MLOAD PUSH3 0x461BCD PUSH1 0xE5 SHL DUP2 MSTORE PUSH1 0x20 PUSH1 0x4 DUP3 ADD MSTORE PUSH1 0x9 PUSH1 0x24 DUP3 ADD MSTORE PUSH9 0x149151539514905395 PUSH1 0xBA SHL PUSH1 0x44 DUP3 ADD MSTORE PUSH1 0x64 SWAP1 REVERT JUMPDEST CALLVALUE PUSH2 0x1C1 JUMPI PUSH1 0x0 CALLDATASIZE PUSH1 0x3 NOT ADD SLT PUSH2 0x1C1 JUMPI PUSH1 0x40 MLOAD PUSH1 0x0 DUP1 SLOAD PUSH1 0x1 DUP2 DUP2 SHR SWAP2 DUP4 SWAP2 DUP2 AND DUP1 ISZERO PUSH2 0x8A0 JUMPI JUMPDEST PUSH1 0x20 DUP5 LT DUP2 EQ PUSH2 0x88C JUMPI DUP4 DUP7 MSTORE SWAP1 DUP2 ISZERO PUSH2 0x865 JUMPI POP PUSH1 0x1 EQ PUSH2 0x826 JUMPI JUMPDEST PUSH2 0x22A DUP5 PUSH2 0x517 DUP2 DUP7 SUB DUP3 PUSH2 0xBD0 JUMP JUMPDEST DUP1 DUP1 MSTORE PUSH1 0x20 DUP2 KECCAK256 SWAP4 SWAP3 POP SWAP1 JUMPDEST DUP1 DUP3 LT PUSH2 0x84B JUMPI POP SWAP1 SWAP2 POP DUP2 ADD PUSH1 0x20 ADD PUSH2 0x517 DUP3 PUSH2 0x816 JUMP JUMPDEST SWAP2 SWAP3 PUSH1 0x1 DUP2 PUSH1 0x20 SWAP3 SLOAD DUP4 DUP6 DUP9 ADD ADD MSTORE ADD SWAP2 ADD SWAP1 SWAP3 SWAP2 PUSH2 0x832 JUMP JUMPDEST PUSH1 0xFF NOT AND PUSH1 0x20 DUP1 DUP8 ADD SWAP2 SWAP1 SWAP2 MSTORE SWAP3 ISZERO ISZERO PUSH1 0x5 SHL DUP6 ADD SWAP1 SWAP3 ADD SWAP3 POP PUSH2 0x517 SWAP2 POP DUP4 SWAP1 POP PUSH2 0x816 JUMP JUMPDEST PUSH4 0x4E487B71 PUSH1 0xE0 SHL DUP4 MSTORE PUSH1 0x22 PUSH1 0x4 MSTORE PUSH1 0x24 DUP4 REVERT JUMPDEST SWAP3 PUSH1 0x7F AND SWAP3 PUSH2 0x7F9 JUMP JUMPDEST CALLVALUE PUSH2 0x1C1 JUMPI PUSH1 0x0 CALLDATASIZE PUSH1 0x3 NOT ADD SLT PUSH2 0x1C1 JUMPI PUSH1 0x20 PUSH1 0xB SLOAD PUSH1 0x40 MLOAD SWAP1 DUP2 MSTORE RETURN JUMPDEST CALLVALUE PUSH2 0x1C1 JUMPI PUSH1 0x0 CALLDATASIZE PUSH1 0x3 NOT ADD SLT PUSH2 0x1C1 JUMPI PUSH1 0x20 PUSH1 0x5 SLOAD PUSH1 0x40 MLOAD SWAP1 DUP2 MSTORE RETURN JUMPDEST CALLVALUE PUSH2 0x1C1 JUMPI PUSH1 0x0 CALLDATASIZE PUSH1 0x3 NOT ADD SLT PUSH2 0x1C1 JUMPI PUSH2 0x8FF PUSH2 0x167B JUMP JUMPDEST PUSH1 0x2 SLOAD PUSH1 0x5 SLOAD PUSH1 0x6 SLOAD PUSH1 0x7 SLOAD PUSH1 0x4 SLOAD SWAP3 SWAP5 SWAP2 SWAP4 PUSH1 0x1 PUSH1 0x1 PUSH1 0xA0 SHL SUB AND SWAP3 SWAP1 SWAP2 PUSH1 0x3 DUP2 LT ISZERO PUSH2 0x1AB JUMPI PUSH1 0xE SLOAD PUSH1 0xA SLOAD PUSH1 0xB SLOAD SWAP1 PUSH1 0xC SLOAD SWAP3 PUSH1 0x3 SLOAD SWAP5 SELFBALANCE SWAP7 PUSH1 0x8 SLOAD SWAP9 PUSH1 0x0 PUSH1 0x80 MSTORE PUSH1 0x40 MLOAD PUSH1 0x80 MSTORE PUSH1 0x0 DUP1 SLOAD DUP1 PUSH1 0x1 SHR SWAP1 PUSH1 0x1 DUP2 AND ISZERO PUSH2 0xA96 JUMPI JUMPDEST PUSH1 0x20 DUP3 LT PUSH1 0x1 DUP3 AND EQ PUSH2 0x88C JUMPI DUP2 PUSH1 0x80 MLOAD MSTORE PUSH1 0x1 DUP2 AND SWAP1 DUP2 PUSH1 0x0 EQ PUSH2 0xA76 JUMPI POP PUSH1 0x1 EQ PUSH2 0xA1D JUMPI JUMPDEST POP PUSH1 0x80 MLOAD PUSH2 0x996 SWAP2 DUP2 SWAP1 SUB SWAP1 PUSH2 0xBD0 JUMP JUMPDEST PUSH2 0x99E PUSH2 0xBF2 JUMP JUMPDEST SWAP12 PUSH1 0x40 MLOAD SWAP14 DUP15 DUP1 SWAP15 PUSH2 0x1E0 DUP3 MSTORE PUSH2 0x1E0 DUP3 ADD PUSH1 0x80 MLOAD SWAP1 PUSH2 0x9BD SWAP2 PUSH2 0xB8F JUMP JUMPDEST DUP3 DUP2 SUB PUSH1 0x20 DUP5 ADD MSTORE PUSH2 0x9CE SWAP2 PUSH2 0xB8F JUMP JUMPDEST SWAP14 PUSH1 0x40 DUP3 ADD MSTORE PUSH1 0x60 ADD MSTORE PUSH1 0x80 DUP14 ADD MSTORE PUSH1 0xA0 DUP13 ADD MSTORE PUSH1 0xC0 DUP12 ADD MSTORE PUSH1 0xFF AND PUSH1 0xE0 DUP11 ADD MSTORE PUSH2 0x100 DUP10 ADD MSTORE PUSH2 0x120 DUP9 ADD MSTORE PUSH2 0x140 DUP8 ADD MSTORE PUSH2 0x160 DUP7 ADD MSTORE PUSH2 0x180 DUP6 ADD MSTORE PUSH2 0x1A0 DUP5 ADD MSTORE PUSH2 0x1C0 DUP4 ADD MSTORE SUB SWAP1 RETURN JUMPDEST PUSH1 0x0 DUP1 DUP1 MSTORE SWAP1 SWAP2 POP PUSH32 0x290DECD9548B62A8D60345A988386FC84BA6BC95484008F6362F93160EF3E563 JUMPDEST DUP3 DUP3 LT PUSH2 0xA5E JUMPI POP PUSH1 0x20 SWAP2 POP PUSH1 0x80 MLOAD ADD ADD DUP15 PUSH2 0x985 JUMP JUMPDEST PUSH1 0x1 DUP2 PUSH1 0x20 SWAP3 SLOAD DUP4 DUP6 PUSH1 0x80 MLOAD ADD ADD MSTORE ADD SWAP2 ADD SWAP1 PUSH2 0xA47 JUMP JUMPDEST SWAP1 POP PUSH1 0x20 SWAP3 POP PUSH1 0xFF NOT AND DUP3 PUSH1 0x80 MLOAD ADD MSTORE ISZERO ISZERO PUSH1 0x5 SHL PUSH1 0x80 MLOAD ADD ADD DUP15 PUSH2 0x985 JUMP JUMPDEST SWAP1 PUSH1 0x7F AND SWAP1 PUSH2 0x95D JUMP JUMPDEST CALLVALUE PUSH2 0x1C1 JUMPI PUSH1 0x0 CALLDATASIZE PUSH1 0x3 NOT ADD SLT PUSH2 0x1C1 JUMPI PUSH1 0x20 PUSH1 0xE SLOAD PUSH1 0x40 MLOAD SWAP1 DUP2 MSTORE RETURN JUMPDEST CALLVALUE PUSH2 0x1C1 JUMPI PUSH1 0x0 CALLDATASIZE PUSH1 0x3 NOT ADD SLT PUSH2 0x1C1 JUMPI PUSH1 0x20 PUSH2 0x2BF PUSH2 0xFD8 JUMP JUMPDEST CALLVALUE PUSH2 0x1C1 JUMPI PUSH1 0x0 CALLDATASIZE PUSH1 0x3 NOT ADD SLT PUSH2 0x1C1 JUMPI PUSH1 0x20 PUSH1 0x8 SLOAD PUSH1 0x40 MLOAD SWAP1 DUP2 MSTORE RETURN JUMPDEST CALLVALUE PUSH2 0x1C1 JUMPI PUSH1 0x0 CALLDATASIZE PUSH1 0x3 NOT ADD SLT PUSH2 0x1C1 JUMPI PUSH2 0x22A PUSH1 0xFF PUSH1 0x9 SLOAD AND PUSH1 0x40 MLOAD SWAP2 DUP3 SWAP2 DUP3 PUSH2 0xB7C JUMP JUMPDEST CALLVALUE PUSH2 0x1C1 JUMPI PUSH1 0x0 CALLDATASIZE PUSH1 0x3 NOT ADD SLT PUSH2 0x1C1 JUMPI PUSH2 0xB36 PUSH2 0xD62 JUMP JUMPDEST STOP JUMPDEST CALLVALUE PUSH2 0x1C1 JUMPI PUSH1 0x0 CALLDATASIZE PUSH1 0x3 NOT ADD SLT PUSH2 0x1C1 JUMPI PUSH1 0x2 SLOAD PUSH1 0x40 MLOAD PUSH1 0x1 PUSH1 0x1 PUSH1 0xA0 SHL SUB SWAP1 SWAP2 AND DUP2 MSTORE PUSH1 0x20 SWAP1 RETURN JUMPDEST CALLVALUE PUSH2 0x1C1 JUMPI PUSH1 0x0 CALLDATASIZE PUSH1 0x3 NOT ADD SLT PUSH2 0x1C1 JUMPI PUSH1 0x20 SWAP1 PUSH1 0xA SLOAD DUP2 MSTORE RETURN JUMPDEST SWAP2 SWAP1 PUSH1 0x20 DUP4 ADD SWAP3 PUSH1 0x3 DUP3 LT ISZERO PUSH2 0x1AB JUMPI MSTORE JUMP JUMPDEST SWAP2 SWAP1 DUP3 MLOAD SWAP3 DUP4 DUP3 MSTORE PUSH1 0x0 JUMPDEST DUP5 DUP2 LT PUSH2 0xBBB JUMPI POP POP DUP3 PUSH1 0x0 PUSH1 0x20 DUP1 SWAP5 SWAP6 DUP5 ADD ADD MSTORE PUSH1 0x1F DUP1 NOT SWAP2 ADD AND ADD ADD SWAP1 JUMP JUMPDEST DUP1 PUSH1 0x20 DUP1 SWAP3 DUP5 ADD ADD MLOAD DUP3 DUP3 DUP7 ADD ADD MSTORE ADD PUSH2 0xB9A JUMP JUMPDEST SWAP1 PUSH1 0x1F DUP1 NOT SWAP2 ADD AND DUP2 ADD SWAP1 DUP2 LT PUSH8 0xFFFFFFFFFFFFFFFF DUP3 GT OR PUSH2 0x3DA JUMPI PUSH1 0x40 MSTORE JUMP JUMPDEST PUSH1 0x40 MLOAD SWAP1 PUSH1 0x0 PUSH1 0x1 SLOAD SWAP1 DUP2 PUSH1 0x1 SHR SWAP2 PUSH1 0x1 DUP2 AND DUP1 ISZERO PUSH2 0xCB8 JUMPI JUMPDEST PUSH1 0x20 DUP5 LT DUP2 EQ PUSH2 0x88C JUMPI DUP4 DUP7 MSTORE DUP6 SWAP3 SWAP2 DUP2 ISZERO PUSH2 0xC99 JUMPI POP PUSH1 0x1 EQ PUSH2 0xC39 JUMPI JUMPDEST PUSH2 0xC37 SWAP3 POP SUB DUP4 PUSH2 0xBD0 JUMP JUMPDEST JUMP JUMPDEST POP PUSH1 0x1 PUSH1 0x0 SWAP1 DUP2 MSTORE SWAP1 SWAP2 PUSH32 0xB10E2D527612073B26EECDFD717E6A320CF44B4AFAC2B0732D9FCBE2B7FA0CF6 JUMPDEST DUP2 DUP4 LT PUSH2 0xC7D JUMPI POP POP SWAP1 PUSH1 0x20 PUSH2 0xC37 SWAP3 DUP3 ADD ADD PUSH2 0xC2B JUMP JUMPDEST PUSH1 0x20 SWAP2 SWAP4 POP DUP1 PUSH1 0x1 SWAP2 SLOAD DUP4 DUP6 DUP10 ADD ADD MSTORE ADD SWAP2 ADD SWAP1 SWAP2 DUP5 SWAP3 PUSH2 0xC65 JUMP JUMPDEST PUSH1 0x20 SWAP3 POP PUSH2 0xC37 SWAP5 SWAP2 POP PUSH1 0xFF NOT AND DUP3 DUP5 ADD MSTORE ISZERO ISZERO PUSH1 0x5 SHL DUP3 ADD ADD PUSH2 0xC2B JUMP JUMPDEST SWAP3 PUSH1 0x7F AND SWAP3 PUSH2 0xC0C JUMP JUMPDEST ISZERO PUSH2 0xCC9 JUMPI JUMP JUMPDEST PUSH1 0x40 MLOAD PUSH3 0x461BCD PUSH1 0xE5 SHL DUP2 MSTORE PUSH1 0x20 PUSH1 0x4 DUP3 ADD MSTORE PUSH1 0xA PUSH1 0x24 DUP3 ADD MSTORE PUSH10 0x4E4F545F414354495645 PUSH1 0xB0 SHL PUSH1 0x44 DUP3 ADD MSTORE PUSH1 0x64 SWAP1 REVERT JUMPDEST ISZERO PUSH2 0xD02 JUMPI JUMP JUMPDEST PUSH1 0x40 MLOAD PUSH3 0x461BCD PUSH1 0xE5 SHL DUP2 MSTORE PUSH1 0x20 PUSH1 0x4 DUP3 ADD MSTORE PUSH1 0xB PUSH1 0x24 DUP3 ADD MSTORE PUSH11 0x1393D517D4D51054951151 PUSH1 0xAA SHL PUSH1 0x44 DUP3 ADD MSTORE PUSH1 0x64 SWAP1 REVERT JUMPDEST SWAP2 SWAP1 DUP3 ADD DUP1 SWAP3 GT PUSH2 0x3C4 JUMPI JUMP JUMPDEST DUP2 DUP2 MUL SWAP3 SWAP2 DUP2 ISZERO SWAP2 DUP5 DIV EQ OR ISZERO PUSH2 0x3C4 JUMPI JUMP JUMPDEST SWAP2 SWAP1 DUP3 SUB SWAP2 DUP3 GT PUSH2 0x3C4 JUMPI JUMP JUMPDEST PUSH2 0xD6A PUSH2 0x16B0 JUMP JUMPDEST PUSH1 0xFF PUSH1 0x9 SLOAD AND PUSH1 0x3 DUP2 LT ISZERO PUSH2 0x1AB JUMPI PUSH1 0x1 PUSH2 0xD85 SWAP2 EQ PUSH2 0xCC2 JUMP JUMPDEST PUSH2 0xD92 PUSH1 0x4 SLOAD ISZERO ISZERO PUSH2 0xCFB JUMP JUMPDEST CALLER PUSH1 0x0 MSTORE PUSH1 0xF PUSH1 0x20 MSTORE PUSH1 0x40 PUSH1 0x0 KECCAK256 DUP1 SLOAD PUSH1 0xFF DUP2 AND ISZERO PUSH2 0xFA1 JUMPI PUSH1 0x8 SHR PUSH1 0xFF AND PUSH2 0xF6F JUMPI PUSH2 0xDBD PUSH2 0x161B JUMP JUMPDEST SWAP1 PUSH1 0x6 SLOAD DUP3 LT ISZERO PUSH2 0xF35 JUMPI PUSH1 0x1 DUP2 ADD DUP1 SLOAD PUSH1 0x0 PUSH1 0x0 NOT DUP3 SUB PUSH2 0xF10 JUMPI POP POP PUSH1 0x0 JUMPDEST DUP1 ISZERO ISZERO DUP1 PUSH2 0xF07 JUMPI JUMPDEST PUSH2 0xEF9 JUMPI DUP4 SUB PUSH2 0xEB4 JUMPI PUSH1 0x4 SLOAD PUSH1 0x1 DUP5 ADD SWAP1 DUP2 DUP6 GT PUSH2 0x3C4 JUMPI PUSH2 0xE10 PUSH2 0xE16 SWAP3 PUSH1 0x7 SLOAD SWAP1 PUSH2 0xD42 JUMP JUMPDEST SWAP1 PUSH2 0xD35 JUMP JUMPDEST TIMESTAMP LT ISZERO PUSH2 0xE81 JUMPI DUP3 SWAP1 SSTORE PUSH1 0x6 SLOAD PUSH1 0x0 NOT DUP2 ADD SWAP1 DUP2 GT PUSH2 0x3C4 JUMPI DUP3 EQ PUSH2 0xE6B JUMPI JUMPDEST POP PUSH1 0x40 MLOAD SWAP1 DUP2 MSTORE TIMESTAMP PUSH1 0x20 DUP3 ADD MSTORE PUSH32 0xB9CFEA4717F167774A6E8643C33472935D3EF918453525EEFCA6936078B7CFDD PUSH1 0x40 CALLER SWAP3 LOG2 JUMP JUMPDEST PUSH1 0x2 ADD DUP1 SLOAD PUSH2 0xFF00 NOT AND PUSH2 0x100 OR SWAP1 SSTORE CODESIZE PUSH2 0xE36 JUMP JUMPDEST PUSH1 0x40 MLOAD PUSH3 0x461BCD PUSH1 0xE5 SHL DUP2 MSTORE PUSH1 0x20 PUSH1 0x4 DUP3 ADD MSTORE PUSH1 0xB PUSH1 0x24 DUP3 ADD MSTORE PUSH11 0x11105657D1561412549151 PUSH1 0xAA SHL PUSH1 0x44 DUP3 ADD MSTORE PUSH1 0x64 SWAP1 REVERT JUMPDEST PUSH1 0x40 MLOAD PUSH3 0x461BCD PUSH1 0xE5 SHL DUP2 MSTORE PUSH1 0x20 PUSH1 0x4 DUP3 ADD MSTORE PUSH1 0x18 PUSH1 0x24 DUP3 ADD MSTORE PUSH32 0x414C52454144595F434845434B45445F494E5F544F4441590000000000000000 PUSH1 0x44 DUP3 ADD MSTORE PUSH1 0x64 SWAP1 REVERT JUMPDEST PUSH2 0xC37 SWAP4 POP SWAP2 CALLER SWAP2 POP PUSH2 0x16F7 JUMP JUMPDEST POP DUP1 DUP5 GT PUSH2 0xDE7 JUMP JUMPDEST PUSH1 0x1 DUP3 ADD DUP1 SWAP3 GT PUSH2 0xF21 JUMPI POP PUSH2 0xDDE JUMP JUMPDEST PUSH4 0x4E487B71 PUSH1 0xE0 SHL DUP2 MSTORE PUSH1 0x11 PUSH1 0x4 MSTORE PUSH1 0x24 SWAP1 REVERT JUMPDEST PUSH1 0x40 MLOAD PUSH3 0x461BCD PUSH1 0xE5 SHL DUP2 MSTORE PUSH1 0x20 PUSH1 0x4 DUP3 ADD MSTORE PUSH1 0x12 PUSH1 0x24 DUP3 ADD MSTORE PUSH18 0x10D2105313115391D157D192539254D21151 PUSH1 0x72 SHL PUSH1 0x44 DUP3 ADD MSTORE PUSH1 0x64 SWAP1 REVERT JUMPDEST PUSH1 0x40 MLOAD PUSH3 0x461BCD PUSH1 0xE5 SHL DUP2 MSTORE PUSH1 0x20 PUSH1 0x4 DUP3 ADD MSTORE PUSH1 0xA PUSH1 0x24 DUP3 ADD MSTORE PUSH10 0x11531253525390551151 PUSH1 0xB2 SHL PUSH1 0x44 DUP3 ADD MSTORE PUSH1 0x64 SWAP1 REVERT JUMPDEST PUSH1 0x40 MLOAD PUSH3 0x461BCD PUSH1 0xE5 SHL DUP2 MSTORE PUSH1 0x20 PUSH1 0x4 DUP3 ADD MSTORE PUSH1 0xF PUSH1 0x24 DUP3 ADD MSTORE PUSH15 0x1393D517D41054951250D254105395 PUSH1 0x8A SHL PUSH1 0x44 DUP3 ADD MSTORE PUSH1 0x64 SWAP1 REVERT JUMPDEST PUSH1 0x4 SLOAD DUP1 ISZERO PUSH2 0xFF7 JUMPI PUSH2 0xFF4 SWAP1 PUSH2 0xE10 PUSH1 0x6 SLOAD PUSH1 0x7 SLOAD SWAP1 PUSH2 0xD42 JUMP JUMPDEST SWAP1 JUMP JUMPDEST POP PUSH1 0x0 SWAP1 JUMP JUMPDEST ISZERO PUSH2 0x1004 JUMPI JUMP JUMPDEST PUSH1 0x40 MLOAD PUSH3 0x461BCD PUSH1 0xE5 SHL DUP2 MSTORE PUSH1 0x20 PUSH1 0x4 DUP3 ADD MSTORE PUSH1 0xC PUSH1 0x24 DUP3 ADD MSTORE PUSH12 0x27A7262CAFA1A922A0AA27A9 PUSH1 0xA1 SHL PUSH1 0x44 DUP3 ADD MSTORE PUSH1 0x64 SWAP1 REVERT JUMPDEST PUSH1 0xE SLOAD DUP2 LT ISZERO PUSH2 0x1053 JUMPI PUSH1 0xE PUSH1 0x0 MSTORE PUSH1 0x20 PUSH1 0x0 KECCAK256 ADD SWAP1 PUSH1 0x0 SWAP1 JUMP JUMPDEST PUSH4 0x4E487B71 PUSH1 0xE0 SHL PUSH1 0x0 MSTORE PUSH1 0x32 PUSH1 0x4 MSTORE PUSH1 0x24 PUSH1 0x0 REVERT JUMPDEST PUSH1 0x0 NOT DUP2 EQ PUSH2 0x3C4 JUMPI PUSH1 0x1 ADD SWAP1 JUMP JUMPDEST RETURNDATASIZE ISZERO PUSH2 0x10B3 JUMPI RETURNDATASIZE SWAP1 PUSH8 0xFFFFFFFFFFFFFFFF DUP3 GT PUSH2 0x3DA JUMPI PUSH1 0x40 MLOAD SWAP2 PUSH2 0x10A7 PUSH1 0x1F DUP3 ADD PUSH1 0x1F NOT AND PUSH1 0x20 ADD DUP5 PUSH2 0xBD0 JUMP JUMPDEST DUP3 MSTORE RETURNDATASIZE PUSH1 0x0 PUSH1 0x20 DUP5 ADD RETURNDATACOPY JUMP JUMPDEST PUSH1 0x60 SWAP1 JUMP JUMPDEST DUP2 ISZERO PUSH2 0x10C2 JUMPI DIV SWAP1 JUMP JUMPDEST PUSH4 0x4E487B71 PUSH1 0xE0 SHL PUSH1 0x0 MSTORE PUSH1 0x12 PUSH1 0x4 MSTORE PUSH1 0x24 PUSH1 0x0 REVERT JUMPDEST PUSH2 0x10ED PUSH1 0x1 DUP1 PUSH1 0xA0 SHL SUB PUSH1 0x2 SLOAD AND CALLER EQ PUSH2 0xFFD JUMP JUMPDEST PUSH1 0xFF PUSH1 0x9 SLOAD AND SWAP1 PUSH1 0x3 DUP3 LT ISZERO PUSH2 0x1AB JUMPI PUSH2 0x1109 PUSH1 0x1 DUP4 EQ PUSH2 0xCC2 JUMP JUMPDEST PUSH2 0x1116 PUSH1 0x4 SLOAD ISZERO ISZERO PUSH2 0xCFB JUMP JUMPDEST PUSH1 0x2 PUSH1 0x0 SWAP3 EQ PUSH2 0x15A6 JUMPI PUSH1 0x6 SLOAD PUSH1 0x0 NOT DUP2 ADD SWAP3 SWAP1 DUP4 GT PUSH2 0xF21 JUMPI DUP1 JUMPDEST PUSH1 0xE SLOAD DUP2 LT ISZERO PUSH2 0x1211 JUMPI PUSH2 0x1145 DUP2 PUSH2 0x1038 JUMP JUMPDEST PUSH1 0x1 DUP1 PUSH1 0xA0 SHL SUB SWAP2 SLOAD SWAP1 PUSH1 0x3 SHL SHR AND DUP1 DUP4 MSTORE PUSH1 0xF PUSH1 0x20 MSTORE PUSH1 0x40 DUP4 KECCAK256 SWAP1 DUP2 SLOAD PUSH1 0xFF DUP2 AND ISZERO SWAP1 DUP2 ISZERO PUSH2 0x1203 JUMPI JUMPDEST POP PUSH2 0x11F9 JUMPI PUSH1 0x1 DUP3 ADD SLOAD PUSH1 0x0 NOT DUP2 EQ DUP1 ISZERO DUP1 PUSH2 0x11F0 JUMPI JUMPDEST ISZERO PUSH2 0x11A9 JUMPI POP POP POP PUSH1 0x2 ADD DUP1 SLOAD PUSH2 0xFF00 NOT AND PUSH2 0x100 OR SWAP1 SSTORE PUSH1 0x1 SWAP1 JUMPDEST ADD PUSH2 0x1132 JUMP JUMPDEST ISZERO PUSH2 0x11C3 JUMPI POP PUSH1 0x1 SWAP3 SWAP2 PUSH2 0x11BE SWAP2 DUP6 SWAP2 PUSH2 0x16F7 JUMP JUMPDEST PUSH2 0x11A3 JUMP JUMPDEST PUSH1 0x1 DUP2 ADD DUP1 SWAP2 GT PUSH2 0x11DC JUMPI PUSH1 0x1 SWAP4 SWAP3 PUSH2 0x11BE SWAP3 SWAP1 PUSH2 0x16F7 JUMP JUMPDEST PUSH4 0x4E487B71 PUSH1 0xE0 SHL DUP6 MSTORE PUSH1 0x11 PUSH1 0x4 MSTORE PUSH1 0x24 DUP6 REVERT JUMPDEST POP DUP8 DUP3 EQ PUSH2 0x1187 JUMP JUMPDEST POP POP PUSH1 0x1 SWAP1 PUSH2 0x11A3 JUMP JUMPDEST PUSH1 0xFF SWAP2 POP PUSH1 0x8 SHR AND CODESIZE PUSH2 0x1170 JUMP JUMPDEST POP SWAP2 POP PUSH1 0x2 PUSH1 0xFF NOT PUSH1 0x9 SLOAD AND OR PUSH1 0x9 SSTORE TIMESTAMP PUSH1 0xD SSTORE DUP2 DUP1 PUSH1 0xE SLOAD SWAP1 JUMPDEST DUP2 DUP2 LT PUSH2 0x1528 JUMPI POP POP DUP3 PUSH1 0xB SSTORE SELFBALANCE SWAP3 ISZERO PUSH2 0x1458 JUMPI PUSH1 0xB SLOAD DUP1 ISZERO PUSH2 0x1426 JUMPI PUSH2 0x1263 DUP2 PUSH2 0x125A PUSH2 0x1269 SWAP4 DUP8 PUSH2 0x10B8 JUMP JUMPDEST DUP1 PUSH1 0xC SSTORE PUSH2 0xD42 JUMP JUMPDEST DUP5 PUSH2 0xD55 JUMP JUMPDEST SWAP2 DUP2 SWAP4 DUP3 JUMPDEST PUSH1 0xE SLOAD DUP2 LT ISZERO PUSH2 0x1353 JUMPI PUSH2 0x1281 DUP2 PUSH2 0x1038 JUMP JUMPDEST SWAP1 SLOAD PUSH1 0x3 SWAP2 SWAP1 SWAP2 SHL SHR PUSH1 0x1 PUSH1 0x1 PUSH1 0xA0 SHL SUB AND DUP1 DUP6 MSTORE PUSH1 0xF PUSH1 0x20 MSTORE PUSH1 0x40 DUP6 KECCAK256 DUP1 SLOAD PUSH1 0xFF DUP2 AND SWAP1 DUP2 PUSH2 0x1344 JUMPI JUMPDEST POP DUP1 PUSH2 0x1333 JUMPI JUMPDEST PUSH2 0x12C2 JUMPI JUMPDEST POP POP PUSH1 0x1 ADD PUSH2 0x126E JUMP JUMPDEST DUP6 DUP1 DUP1 SWAP4 PUSH1 0x2 DUP3 SWAP5 SWAP12 SWAP7 SWAP12 ADD PUSH1 0x1 PUSH1 0xFF NOT DUP3 SLOAD AND OR SWAP1 SSTORE PUSH1 0xC SLOAD SWAP1 GAS CALL PUSH2 0x12E7 PUSH2 0x1078 JUMP JUMPDEST POP ISZERO PUSH2 0x1300 JUMPI PUSH2 0x12F8 PUSH1 0x1 SWAP2 PUSH2 0x1069 JUMP JUMPDEST SWAP6 SWAP1 CODESIZE PUSH2 0x12B8 JUMP JUMPDEST PUSH1 0x40 MLOAD PUSH3 0x461BCD PUSH1 0xE5 SHL DUP2 MSTORE PUSH1 0x20 PUSH1 0x4 DUP3 ADD MSTORE PUSH1 0xB PUSH1 0x24 DUP3 ADD MSTORE PUSH11 0x14105653D55517D1905253 PUSH1 0xAA SHL PUSH1 0x44 DUP3 ADD MSTORE PUSH1 0x64 SWAP1 REVERT JUMPDEST POP PUSH1 0xFF PUSH1 0x2 DUP3 ADD SLOAD PUSH1 0x8 SHR AND PUSH2 0x12B3 JUMP JUMPDEST PUSH1 0xFF SWAP2 POP PUSH1 0x8 SHR AND ISZERO CODESIZE PUSH2 0x12AC JUMP JUMPDEST POP SWAP3 SWAP1 SWAP4 POP DUP1 PUSH2 0x13C6 JUMPI JUMPDEST POP POP PUSH1 0x40 PUSH32 0x97791D3AC1343E05805A2F905FA80B249C2CA58CF9FEF455D4FA7EC13CE58321 SWAP2 PUSH1 0xB SLOAD PUSH32 0xF5B268A3FF315CC44CCCEEEF86259C9E8EEF81CEECB14001543809115380DD62 DUP4 PUSH1 0xC SLOAD SWAP3 DUP2 MLOAD SWAP1 DUP2 MSTORE DUP4 PUSH1 0x20 DUP3 ADD MSTORE LOG1 DUP3 MLOAD SWAP2 DUP3 MSTORE PUSH1 0x20 DUP3 ADD MSTORE LOG1 JUMP JUMPDEST PUSH1 0x2 SLOAD DUP3 SWAP2 DUP3 SWAP2 DUP3 SWAP2 SWAP1 PUSH1 0x1 PUSH1 0x1 PUSH1 0xA0 SHL SUB AND GAS CALL PUSH2 0x13E3 PUSH2 0x1078 JUMP JUMPDEST POP ISZERO PUSH2 0x13F0 JUMPI CODESIZE DUP1 PUSH2 0x135E JUMP JUMPDEST PUSH1 0x40 MLOAD PUSH3 0x461BCD PUSH1 0xE5 SHL DUP2 MSTORE PUSH1 0x20 PUSH1 0x4 DUP3 ADD MSTORE PUSH1 0xE PUSH1 0x24 DUP3 ADD MSTORE PUSH14 0x14915350525391115497D1905253 PUSH1 0x92 SHL PUSH1 0x44 DUP3 ADD MSTORE PUSH1 0x64 SWAP1 REVERT JUMPDEST PUSH1 0x40 MLOAD PUSH3 0x461BCD PUSH1 0xE5 SHL DUP2 MSTORE PUSH1 0x20 PUSH1 0x4 DUP3 ADD MSTORE PUSH1 0xA PUSH1 0x24 DUP3 ADD MSTORE PUSH10 0x4E4F5F57494E4E455253 PUSH1 0xB0 SHL PUSH1 0x44 DUP3 ADD MSTORE PUSH1 0x64 SWAP1 REVERT JUMPDEST SWAP1 SWAP2 DUP1 PUSH2 0x14C1 JUMPI JUMPDEST POP PUSH1 0x40 PUSH32 0x97791D3AC1343E05805A2F905FA80B249C2CA58CF9FEF455D4FA7EC13CE58321 SWAP2 PUSH32 0xF5B268A3FF315CC44CCCEEEF86259C9E8EEF81CEECB14001543809115380DD62 DUP3 DUP1 MLOAD DUP4 DUP2 MSTORE DUP4 PUSH1 0x20 DUP3 ADD MSTORE LOG1 DUP2 MLOAD SWAP1 DUP1 DUP3 MSTORE PUSH1 0x20 DUP3 ADD MSTORE LOG1 JUMP JUMPDEST PUSH1 0x2 SLOAD DUP3 SWAP2 DUP3 SWAP2 DUP3 SWAP2 DUP3 SWAP2 PUSH1 0x1 PUSH1 0x1 PUSH1 0xA0 SHL SUB AND GAS CALL PUSH2 0x14DF PUSH2 0x1078 JUMP JUMPDEST POP ISZERO PUSH2 0x14EB JUMPI CODESIZE PUSH2 0x1460 JUMP JUMPDEST PUSH1 0x40 MLOAD PUSH3 0x461BCD PUSH1 0xE5 SHL DUP2 MSTORE PUSH1 0x20 PUSH1 0x4 DUP3 ADD MSTORE PUSH1 0x15 PUSH1 0x24 DUP3 ADD MSTORE PUSH21 0x10D491505513D497D514905394D1915497D1905253 PUSH1 0x5A SHL PUSH1 0x44 DUP3 ADD MSTORE PUSH1 0x64 SWAP1 REVERT JUMPDEST PUSH2 0x1531 DUP2 PUSH2 0x1038 JUMP JUMPDEST SWAP1 SLOAD PUSH1 0x3 SWAP2 SWAP1 SWAP2 SHL SHR PUSH1 0x1 PUSH1 0x1 PUSH1 0xA0 SHL SUB AND DUP4 MSTORE PUSH1 0xF PUSH1 0x20 MSTORE PUSH1 0x40 DUP4 KECCAK256 DUP1 SLOAD PUSH1 0xFF DUP2 AND SWAP2 SWAP1 DUP3 PUSH2 0x1597 JUMPI JUMPDEST POP DUP2 PUSH2 0x1585 JUMPI JUMPDEST POP PUSH2 0x1571 JUMPI JUMPDEST PUSH1 0x1 ADD PUSH2 0x122C JUMP JUMPDEST SWAP4 PUSH2 0x157D PUSH1 0x1 SWAP2 PUSH2 0x1069 JUMP JUMPDEST SWAP5 SWAP1 POP PUSH2 0x1569 JUMP JUMPDEST PUSH1 0xFF SWAP2 POP PUSH1 0x2 ADD SLOAD PUSH1 0x8 SHR AND CODESIZE PUSH2 0x1563 JUMP JUMPDEST PUSH1 0x8 SHR PUSH1 0xFF AND ISZERO SWAP2 POP CODESIZE PUSH2 0x155C JUMP JUMPDEST PUSH1 0x40 MLOAD PUSH3 0x461BCD PUSH1 0xE5 SHL DUP2 MSTORE PUSH1 0x20 PUSH1 0x4 DUP3 ADD MSTORE PUSH1 0xF PUSH1 0x24 DUP3 ADD MSTORE PUSH15 0x1053149150511657D4D15515131151 PUSH1 0x8A SHL PUSH1 0x44 DUP3 ADD MSTORE PUSH1 0x64 SWAP1 REVERT JUMPDEST ISZERO PUSH2 0x15E4 JUMPI JUMP JUMPDEST PUSH1 0x40 MLOAD PUSH3 0x461BCD PUSH1 0xE5 SHL DUP2 MSTORE PUSH1 0x20 PUSH1 0x4 DUP3 ADD MSTORE PUSH1 0xF PUSH1 0x24 DUP3 ADD MSTORE PUSH15 0x1053149150511657D4D51054951151 PUSH1 0x8A SHL PUSH1 0x44 DUP3 ADD MSTORE PUSH1 0x64 SWAP1 REVERT JUMPDEST PUSH2 0x1623 PUSH2 0x167B JUMP JUMPDEST PUSH1 0x3 DUP2 LT ISZERO PUSH2 0x1AB JUMPI ISZERO PUSH2 0x1676 JUMPI PUSH1 0x4 SLOAD DUP1 ISZERO PUSH2 0xFF7 JUMPI TIMESTAMP DUP2 GT PUSH2 0x166B JUMPI PUSH2 0x164E PUSH2 0x1657 SWAP2 TIMESTAMP PUSH2 0xD55 JUMP JUMPDEST PUSH1 0x7 SLOAD SWAP1 PUSH2 0x10B8 JUMP JUMPDEST PUSH1 0x6 SLOAD DUP1 DUP3 LT ISZERO PUSH2 0x1666 JUMPI POP SWAP1 JUMP JUMPDEST SWAP1 POP SWAP1 JUMP JUMPDEST POP PUSH2 0x1657 PUSH1 0x0 PUSH2 0x164E JUMP JUMPDEST PUSH1 0x0 SWAP1 JUMP JUMPDEST PUSH1 0xFF PUSH1 0x9 SLOAD AND PUSH1 0x3 DUP2 LT ISZERO PUSH2 0x1AB JUMPI PUSH1 0x2 EQ PUSH2 0x16AB JUMPI PUSH1 0x4 SLOAD DUP1 ISZERO PUSH2 0xFF7 JUMPI TIMESTAMP LT ISZERO PUSH2 0x16A6 JUMPI PUSH1 0x0 SWAP1 JUMP JUMPDEST PUSH1 0x1 SWAP1 JUMP JUMPDEST PUSH1 0x2 SWAP1 JUMP JUMPDEST PUSH1 0x4 SLOAD DUP1 ISZERO PUSH2 0x16F4 JUMPI PUSH1 0xFF PUSH1 0x9 SLOAD AND PUSH1 0x3 DUP2 LT ISZERO PUSH2 0x1AB JUMPI ISZERO SWAP1 DUP2 PUSH2 0x16E9 JUMPI JUMPDEST POP PUSH2 0x16D7 JUMPI JUMP JUMPDEST PUSH2 0xC37 PUSH1 0x1 PUSH1 0xFF NOT PUSH1 0x9 SLOAD AND OR PUSH1 0x9 SSTORE JUMP JUMPDEST SWAP1 POP TIMESTAMP LT ISZERO CODESIZE PUSH2 0x16D0 JUMP JUMPDEST POP JUMP JUMPDEST DUP1 SLOAD PUSH1 0xFF DUP2 PUSH1 0x8 SHR AND PUSH2 0x1767 JUMPI PUSH2 0xFF00 NOT AND PUSH2 0x100 OR SWAP1 SSTORE PUSH1 0xA SLOAD DUP1 PUSH2 0x1751 JUMPI JUMPDEST POP PUSH1 0x40 MLOAD SWAP2 DUP3 MSTORE PUSH1 0x1 PUSH1 0x1 PUSH1 0xA0 SHL SUB AND SWAP1 PUSH32 0x7B9FFF6875DA74091EF936E09402335C2F212C084276EE10155CF2FDDAFB7A5B SWAP1 PUSH1 0x20 SWAP1 LOG2 JUMP JUMPDEST PUSH1 0x0 NOT DUP2 ADD SWAP1 DUP2 GT PUSH2 0x3C4 JUMPI PUSH1 0xA SSTORE PUSH1 0x20 PUSH2 0x1718 JUMP JUMPDEST POP POP POP POP JUMP INVALID LOG2 PUSH5 0x6970667358 0x22 SLT KECCAK256 AND 0xEA SLT CODESIZE LOG2 PUSH12 0xD621AAAF617E76035E659743 PUSH32 0x319DCDE35CBBC3DDD448B04AA464736F6C634300081C0033A264697066735822 SLT KECCAK256 DUP10 DUP12 0xB4 SWAP1 0xEE 0x1F PUSH7 0x8A346BF44239DC 0xBA 0xC7 DUP12 CODECOPY 0xB4 LOG3 DUP14 DUP6 0xA6 DUP14 0xB0 0xB0 0xE0 CREATE2 0xF8 PUSH4 0x6F396473 PUSH16 0x6C634300081C00330000000000000000 "},"methodIdentifiers":{"activities(uint256)":"0d1657e8","activityCount()":"e6240deb","activityRegistry()":"af1b2217","createDepositChallenge(string,string,uint256,uint256,uint256,bool,string)":"55665ade","getAllActivities()":"65aa56c4"}}}}}