{"contracts/ActivityRegistry.sol":{"ActivityRegistry":{"abi":[{"anonymous":false,"inputs":[{"indexed":true,"internalType":"uint256","name":"activityId","type":"uint256"},{"indexed":true,"internalType":"address","name":"creator","type":"address"},{"indexed":false,"internalType":"address","name":"activityContract","type":"address"},{"indexed":false,"internalType":"string","name":"title","type":"string"}],"name":"ActivityRegistered","type":"event"},{"inputs":[{"internalType":"uint256","name":"","type":"uint256"}],"name":"activities","outputs":[{"internalType":"address","name":"activityContract","type":"address"},{"internalType":"address","name":"creator","type":"address"},{"internalType":"string","name":"creatorName","type":"string"},{"internalType":"string","name":"title","type":"string"},{"internalType":"string","name":"description","type":"string"},{"internalType":"uint256","name":"createdAt","type":"uint256"},{"internalType":"bool","name":"isPublic","type":"bool"},{"internalType":"uint8","name":"incentiveType","type":"uint8"}],"stateMutability":"view","type":"function"},{"inputs":[],"name":"activityCount","outputs":[{"internalType":"uint256","name":"","type":"uint256"}],"stateMutability":"view","type":"function"},{"inputs":[{"internalType":"address","name":"","type":"address"}],"name":"contractToActivity","outputs":[{"internalType":"uint256","name":"","type":"uint256"}],"stateMutability":"view","type":"function"},{"inputs":[{"internalType":"uint256","name":"_activityId","type":"uint256"}],"name":"getActivityMetadata","outputs":[{"components":[{"internalType":"address","name":"activityContract","type":"address"},{"internalType":"address","name":"creator","type":"address"},{"internalType":"string","name":"creatorName","type":"string"},{"internalType":"string","name":"title","type":"string"},{"internalType":"string","name":"description","type":"string"},{"internalType":"uint256","name":"createdAt","type":"uint256"},{"internalType":"bool","name":"isPublic","type":"bool"},{"internalType":"uint8","name":"incentiveType","type":"uint8"}],"internalType":"struct ActivityRegistry.ActivityMetadata","name":"","type":"tuple"}],"stateMutability":"view","type":"function"},{"inputs":[{"internalType":"uint256","name":"_activityId","type":"uint256"}],"name":"getActivityMetadataTuple","outputs":[{"internalType":"address","name":"activityContract","type":"address"},{"internalType":"address","name":"creator","type":"address"},{"internalType":"string","name":"creatorName","type":"string"},{"internalType":"string","name":"title","type":"string"},{"internalType":"string","name":"description","type":"string"},{"internalType":"uint256","name":"createdAt","type":"uint256"},{"internalType":"bool","name":"isPublic","type":"bool"},{"internalType":"uint8","name":"incentiveType","type":"uint8"}],"stateMutability":"view","type":"function"},{"inputs":[{"internalType":"address","name":"_user","type":"address"}],"name":"getUserActivities","outputs":[{"internalType":"uint256[]","name":"","type":"uint256[]"}],"stateMutability":"view","type":"function"},{"inputs":[{"internalType":"address","name":"_activityContract","type":"address"},{"internalType":"string","name":"_title","type":"string"},{"internalType":"string","name":"_description","type":"string"},{"internalType":"bool","name":"_isPublic","type":"bool"},{"internalType":"uint8","name":"_incentiveType","type":"uint8"},{"internalType":"address","name":"_creator","type":"address"},{"internalType":"string","name":"_creatorName","type":"string"}],"name":"registerActivity","outputs":[{"internalType":"uint256","name":"","type":"uint256"}],"stateMutability":"nonpayable","type":"function"},{"inputs":[{"internalType":"address","name":"","type":"address"},{"internalType":"uint256","name":"","type":"uint256"}],"name":"userActivities","outputs":[{"internalType":"uint256","name":"","type":"uint256"}],"stateMutability":"view","type":"function"}],"evm":{"bytecode":{"linkReferences":{},"object":"60808060405234601557610d87908161001b8239f35b600080fdfe6080604052600436101561001257600080fd5b60003560e01c80630d1657e814610a92578063222c7ce0146104295780632e092f9d146103d857806342fda79d1461039e578063b42696c8146102e4578063c3315ec014610208578063d2a4247e146100975763e6240deb1461007457600080fd5b34610092576000366003190112610092576020600154604051908152f35b600080fd5b3461009257602036600319011261009257600060e06040516100b881610b50565b82815282602082015260606040820152606080820152606060808201528260a08201528260c08201520152600435600052600060205260406000206040516100ff81610b50565b81546001600160a01b039081168252600183015416602082019081529160ff61012a60028301610b8f565b6040840190815261013d60038401610b8f565b90606085019182526101ed61015460048601610b8f565b608087019081526101da600660058801549760a08a019889520154946101c760c08a0195888816151587528860e08c019860081c1688526040519b8c9b60208d5260018060a01b0390511660208d015260018060a01b0390511660408c01525161010060608c01526101208b0190610c33565b9051898203601f190160808b0152610c33565b9051878203601f190160a0890152610c33565b935160c086015251151560e085015251166101008301520390f35b34610092576020366003190112610092576004356000526000602052604060002060405161023581610b50565b81546001600160a01b03908116825260018301541660208201908152906102e09061026260028501610b8f565b936040820194855261027660038201610b8f565b906060830191825261028a60048201610b8f565b80608085015260066005830154928360a087015201549260ff8085161515948560c088015260081c16948560e082015260018060a01b039051169660018060a01b03905116975190519060405198899889610c74565b0390f35b34610092576020366003190112610092576001600160a01b03610305610ce4565b16600052600260205260406000206040518060208354918281520190819360005260206000209060005b8181106103885750505081610345910382610b6d565b6040519182916020830190602084525180915260408301919060005b81811061036f575050500390f35b8251845285945060209384019390920191600101610361565b825484526020909301926001928301920161032f565b34610092576020366003190112610092576001600160a01b036103bf610ce4565b1660005260036020526020604060002054604051908152f35b34610092576040366003190112610092576103f1610ce4565b6001600160a01b0316600090815260026020526040902080546024359081101561009257602091600052816000200154604051908152f35b346100925760e036600319011261009257610442610ce4565b60243567ffffffffffffffff811161009257610462903690600401610cfa565b9060443567ffffffffffffffff811161009257610483903690600401610cfa565b90606435801515809103610092576084359060ff82168092036100925760a4356001600160a01b03811691908281036100925760c43567ffffffffffffffff8111610092576104d6903690600401610cfa565b946001600160a01b0316928315610a5a57875115610a24578551156109e757156109df57925b60015460001981146109c95760010195866001556040519061051d82610b50565b8482526001600160a01b03958616602080840182815260408086019a8b52606086018d8152608087019586524260a0880190815260c08801998a5260e0880198895260008e8152948590529190932095518654908b166001600160a01b0319918216178755915160018701805491909b1692169190911790985597518051919891600285019167ffffffffffffffff821161082d5781906105be8454610b16565b601f8111610976575b50602090601f831160011461091157600092610906575b50508160011b916000199060031b1c19161790555b518051600384019167ffffffffffffffff821161082d5781906106168454610b16565b601f81116108b3575b50602090601f831160011461084e57600092610843575b50508160011b916000199060031b1c19161790555b518051600483019167ffffffffffffffff821161082d5761066c8354610b16565b601f81116107e5575b509160209a9593918a9795938c90601f831160011461073b57918060069594927f80549e0cd4c1295665fce479f419866bc743021127c4bb1c915a14e069c898569b9c94600092610730575b50508160011b916000199060031b1c19161790555b51600582015501915115159060ff61ff008454925160081b1692169061ffff19161717905580600052600387528360406000205561072560405192839283526040898401526040830190610c33565b0390a3604051908152f35b015190508f806106c1565b99929190601f1982169a83600052816000209b60005b8181106107b457509b60019284926006989796957f80549e0cd4c1295665fce479f419866bc743021127c4bb1c915a14e069c898569e9f1061079b575b505050811b0190556106d6565b015160001960f88460031b161c191690558f808061078e565b939597999b509091939597999b8f600181928786015181550195019301908e9b9997959392919c9a9896949c610751565b836000526020600020601f840160051c81019160208510610823575b601f0160051c01905b8181106108175750610675565b6000815560010161080a565b9091508190610801565b634e487b7160e01b600052604160045260246000fd5b015190508c80610636565b60008581528281209350601f198516905b81811061089b5750908460019594939210610882575b505050811b01905561064b565b015160001960f88460031b161c191690558c8080610875565b9293602060018192878601518155019501930161085f565b909150836000526020600020601f840160051c810191602085106108fc575b90601f859493920160051c01905b8181106108ed575061061f565b600081558493506001016108e0565b90915081906108d2565b015190508d806105de565b60008581528281209350601f198516905b81811061095e5750908460019594939210610945575b505050811b0190556105f3565b015160001960f88460031b161c191690558d8080610938565b92936020600181928786015181550195019301610922565b909150836000526020600020601f840160051c810191602085106109bf575b90601f859493920160051c01905b8181106109b057506105c7565b600081558493506001016109a3565b9091508190610995565b634e487b7160e01b600052601160045260246000fd5b5033926104fc565b60405162461bcd60e51b815260206004820152601560248201527410d491505513d497d390535157d491545552549151605a1b6044820152606490fd5b60405162461bcd60e51b815260206004820152600e60248201526d151255131157d49154555254915160921b6044820152606490fd5b60405162461bcd60e51b815260206004820152601060248201526f1253959053125117d0d3d395149050d560821b6044820152606490fd5b34610092576020366003190112610092576004356000908152602081905260409020805460018201546001600160a01b03918216929116906102e090610ada60028201610b8f565b93610ae760038301610b8f565b91610af460048201610b8f565b600660058301549201549360405197889760ff808860081c1697169589610c74565b90600182811c92168015610b46575b6020831014610b3057565b634e487b7160e01b600052602260045260246000fd5b91607f1691610b25565b610100810190811067ffffffffffffffff82111761082d57604052565b90601f8019910116810190811067ffffffffffffffff82111761082d57604052565b9060405191826000825492610ba384610b16565b8084529360018116908115610c115750600114610bca575b50610bc892500383610b6d565b565b90506000929192526020600020906000915b818310610bf5575050906020610bc89282010138610bbb565b6020919350806001915483858901015201910190918492610bdc565b905060209250610bc894915060ff191682840152151560051b82010138610bbb565b919082519283825260005b848110610c5f575050826000602080949584010152601f8019910116010190565b80602080928401015182828601015201610c3e565b969260e096999894610cb5610cc392610cd19560ff999560018060a01b03168c5260018060a01b031660208c015261010060408c01526101008b0190610c33565b9089820360608b0152610c33565b908782036080890152610c33565b9660a0860152151560c085015216910152565b600435906001600160a01b038216820361009257565b81601f820112156100925780359067ffffffffffffffff821161082d5760405192610d2f601f8401601f191660200185610b6d565b828452602083830101116100925781600092602080930183860137830101529056fea2646970667358221220303f539437ceffc56ef7c0609d6eff94ba9edf54c4264af4e313b2c7f609eb9964736f6c634300081c0033","opcodes":"PUSH1 0x80 DUP1 PUSH1 0x40 MSTORE CALLVALUE PUSH1 0x15 JUMPI PUSH2 0xD87 SWAP1 DUP2 PUSH2 0x1B DUP3 CODECOPY RETURN JUMPDEST PUSH1 0x0 DUP1 REVERT INVALID PUSH1 0x80 PUSH1 0x40 MSTORE PUSH1 0x4 CALLDATASIZE LT ISZERO PUSH2 0x12 JUMPI PUSH1 0x0 DUP1 REVERT JUMPDEST PUSH1 0x0 CALLDATALOAD PUSH1 0xE0 SHR DUP1 PUSH4 0xD1657E8 EQ PUSH2 0xA92 JUMPI DUP1 PUSH4 0x222C7CE0 EQ PUSH2 0x429 JUMPI DUP1 PUSH4 0x2E092F9D EQ PUSH2 0x3D8 JUMPI DUP1 PUSH4 0x42FDA79D EQ PUSH2 0x39E JUMPI DUP1 PUSH4 0xB42696C8 EQ PUSH2 0x2E4 JUMPI DUP1 PUSH4 0xC3315EC0 EQ PUSH2 0x208 JUMPI DUP1 PUSH4 0xD2A4247E EQ PUSH2 0x97 JUMPI PUSH4 0xE6240DEB EQ PUSH2 0x74 JUMPI PUSH1 0x0 DUP1 REVERT JUMPDEST CALLVALUE PUSH2 0x92 JUMPI PUSH1 0x0 CALLDATASIZE PUSH1 0x3 NOT ADD SLT PUSH2 0x92 JUMPI PUSH1 0x20 PUSH1 0x1 SLOAD PUSH1 0x40 MLOAD SWAP1 DUP2 MSTORE RETURN JUMPDEST PUSH1 0x0 DUP1 REVERT JUMPDEST CALLVALUE PUSH2 0x92 JUMPI PUSH1 0x20 CALLDATASIZE PUSH1 0x3 NOT ADD SLT PUSH2 0x92 JUMPI PUSH1 0x0 PUSH1 0xE0 PUSH1 0x40 MLOAD PUSH2 0xB8 DUP2 PUSH2 0xB50 JUMP JUMPDEST DUP3 DUP2 MSTORE DUP3 PUSH1 0x20 DUP3 ADD MSTORE PUSH1 0x60 PUSH1 0x40 DUP3 ADD MSTORE PUSH1 0x60 DUP1 DUP3 ADD MSTORE PUSH1 0x60 PUSH1 0x80 DUP3 ADD MSTORE DUP3 PUSH1 0xA0 DUP3 ADD MSTORE DUP3 PUSH1 0xC0 DUP3 ADD MSTORE ADD MSTORE PUSH1 0x4 CALLDATALOAD PUSH1 0x0 MSTORE PUSH1 0x0 PUSH1 0x20 MSTORE PUSH1 0x40 PUSH1 0x0 KECCAK256 PUSH1 0x40 MLOAD PUSH2 0xFF DUP2 PUSH2 0xB50 JUMP JUMPDEST DUP2 SLOAD PUSH1 0x1 PUSH1 0x1 PUSH1 0xA0 SHL SUB SWAP1 DUP2 AND DUP3 MSTORE PUSH1 0x1 DUP4 ADD SLOAD AND PUSH1 0x20 DUP3 ADD SWAP1 DUP2 MSTORE SWAP2 PUSH1 0xFF PUSH2 0x12A PUSH1 0x2 DUP4 ADD PUSH2 0xB8F JUMP JUMPDEST PUSH1 0x40 DUP5 ADD SWAP1 DUP2 MSTORE PUSH2 0x13D PUSH1 0x3 DUP5 ADD PUSH2 0xB8F JUMP JUMPDEST SWAP1 PUSH1 0x60 DUP6 ADD SWAP2 DUP3 MSTORE PUSH2 0x1ED PUSH2 0x154 PUSH1 0x4 DUP7 ADD PUSH2 0xB8F JUMP JUMPDEST PUSH1 0x80 DUP8 ADD SWAP1 DUP2 MSTORE PUSH2 0x1DA PUSH1 0x6 PUSH1 0x5 DUP9 ADD SLOAD SWAP8 PUSH1 0xA0 DUP11 ADD SWAP9 DUP10 MSTORE ADD SLOAD SWAP5 PUSH2 0x1C7 PUSH1 0xC0 DUP11 ADD SWAP6 DUP9 DUP9 AND ISZERO ISZERO DUP8 MSTORE DUP9 PUSH1 0xE0 DUP13 ADD SWAP9 PUSH1 0x8 SHR AND DUP9 MSTORE PUSH1 0x40 MLOAD SWAP12 DUP13 SWAP12 PUSH1 0x20 DUP14 MSTORE PUSH1 0x1 DUP1 PUSH1 0xA0 SHL SUB SWAP1 MLOAD AND PUSH1 0x20 DUP14 ADD MSTORE PUSH1 0x1 DUP1 PUSH1 0xA0 SHL SUB SWAP1 MLOAD AND PUSH1 0x40 DUP13 ADD MSTORE MLOAD PUSH2 0x100 PUSH1 0x60 DUP13 ADD MSTORE PUSH2 0x120 DUP12 ADD SWAP1 PUSH2 0xC33 JUMP JUMPDEST SWAP1 MLOAD DUP10 DUP3 SUB PUSH1 0x1F NOT ADD PUSH1 0x80 DUP12 ADD MSTORE PUSH2 0xC33 JUMP JUMPDEST SWAP1 MLOAD DUP8 DUP3 SUB PUSH1 0x1F NOT ADD PUSH1 0xA0 DUP10 ADD MSTORE PUSH2 0xC33 JUMP JUMPDEST SWAP4 MLOAD PUSH1 0xC0 DUP7 ADD MSTORE MLOAD ISZERO ISZERO PUSH1 0xE0 DUP6 ADD MSTORE MLOAD AND PUSH2 0x100 DUP4 ADD MSTORE SUB SWAP1 RETURN JUMPDEST CALLVALUE PUSH2 0x92 JUMPI PUSH1 0x20 CALLDATASIZE PUSH1 0x3 NOT ADD SLT PUSH2 0x92 JUMPI PUSH1 0x4 CALLDATALOAD PUSH1 0x0 MSTORE PUSH1 0x0 PUSH1 0x20 MSTORE PUSH1 0x40 PUSH1 0x0 KECCAK256 PUSH1 0x40 MLOAD PUSH2 0x235 DUP2 PUSH2 0xB50 JUMP JUMPDEST DUP2 SLOAD PUSH1 0x1 PUSH1 0x1 PUSH1 0xA0 SHL SUB SWAP1 DUP2 AND DUP3 MSTORE PUSH1 0x1 DUP4 ADD SLOAD AND PUSH1 0x20 DUP3 ADD SWAP1 DUP2 MSTORE SWAP1 PUSH2 0x2E0 SWAP1 PUSH2 0x262 PUSH1 0x2 DUP6 ADD PUSH2 0xB8F JUMP JUMPDEST SWAP4 PUSH1 0x40 DUP3 ADD SWAP5 DUP6 MSTORE PUSH2 0x276 PUSH1 0x3 DUP3 ADD PUSH2 0xB8F JUMP JUMPDEST SWAP1 PUSH1 0x60 DUP4 ADD SWAP2 DUP3 MSTORE PUSH2 0x28A PUSH1 0x4 DUP3 ADD PUSH2 0xB8F JUMP JUMPDEST DUP1 PUSH1 0x80 DUP6 ADD MSTORE PUSH1 0x6 PUSH1 0x5 DUP4 ADD SLOAD SWAP3 DUP4 PUSH1 0xA0 DUP8 ADD MSTORE ADD SLOAD SWAP3 PUSH1 0xFF DUP1 DUP6 AND ISZERO ISZERO SWAP5 DUP6 PUSH1 0xC0 DUP9 ADD MSTORE PUSH1 0x8 SHR AND SWAP5 DUP6 PUSH1 0xE0 DUP3 ADD MSTORE PUSH1 0x1 DUP1 PUSH1 0xA0 SHL SUB SWAP1 MLOAD AND SWAP7 PUSH1 0x1 DUP1 PUSH1 0xA0 SHL SUB SWAP1 MLOAD AND SWAP8 MLOAD SWAP1 MLOAD SWAP1 PUSH1 0x40 MLOAD SWAP9 DUP10 SWAP9 DUP10 PUSH2 0xC74 JUMP JUMPDEST SUB SWAP1 RETURN JUMPDEST CALLVALUE PUSH2 0x92 JUMPI PUSH1 0x20 CALLDATASIZE PUSH1 0x3 NOT ADD SLT PUSH2 0x92 JUMPI PUSH1 0x1 PUSH1 0x1 PUSH1 0xA0 SHL SUB PUSH2 0x305 PUSH2 0xCE4 JUMP JUMPDEST AND PUSH1 0x0 MSTORE PUSH1 0x2 PUSH1 0x20 MSTORE PUSH1 0x40 PUSH1 0x0 KECCAK256 PUSH1 0x40 MLOAD DUP1 PUSH1 0x20 DUP4 SLOAD SWAP2 DUP3 DUP2 MSTORE ADD SWAP1 DUP2 SWAP4 PUSH1 0x0 MSTORE PUSH1 0x20 PUSH1 0x0 KECCAK256 SWAP1 PUSH1 0x0 JUMPDEST DUP2 DUP2 LT PUSH2 0x388 JUMPI POP POP POP DUP2 PUSH2 0x345 SWAP2 SUB DUP3 PUSH2 0xB6D JUMP JUMPDEST PUSH1 0x40 MLOAD SWAP2 DUP3 SWAP2 PUSH1 0x20 DUP4 ADD SWAP1 PUSH1 0x20 DUP5 MSTORE MLOAD DUP1 SWAP2 MSTORE PUSH1 0x40 DUP4 ADD SWAP2 SWAP1 PUSH1 0x0 JUMPDEST DUP2 DUP2 LT PUSH2 0x36F JUMPI POP POP POP SUB SWAP1 RETURN JUMPDEST DUP3 MLOAD DUP5 MSTORE DUP6 SWAP5 POP PUSH1 0x20 SWAP4 DUP5 ADD SWAP4 SWAP1 SWAP3 ADD SWAP2 PUSH1 0x1 ADD PUSH2 0x361 JUMP JUMPDEST DUP3 SLOAD DUP5 MSTORE PUSH1 0x20 SWAP1 SWAP4 ADD SWAP3 PUSH1 0x1 SWAP3 DUP4 ADD SWAP3 ADD PUSH2 0x32F JUMP JUMPDEST CALLVALUE PUSH2 0x92 JUMPI PUSH1 0x20 CALLDATASIZE PUSH1 0x3 NOT ADD SLT PUSH2 0x92 JUMPI PUSH1 0x1 PUSH1 0x1 PUSH1 0xA0 SHL SUB PUSH2 0x3BF PUSH2 0xCE4 JUMP JUMPDEST AND PUSH1 0x0 MSTORE PUSH1 0x3 PUSH1 0x20 MSTORE PUSH1 0x20 PUSH1 0x40 PUSH1 0x0 KECCAK256 SLOAD PUSH1 0x40 MLOAD SWAP1 DUP2 MSTORE RETURN JUMPDEST CALLVALUE PUSH2 0x92 JUMPI PUSH1 0x40 CALLDATASIZE PUSH1 0x3 NOT ADD SLT PUSH2 0x92 JUMPI PUSH2 0x3F1 PUSH2 0xCE4 JUMP JUMPDEST PUSH1 0x1 PUSH1 0x1 PUSH1 0xA0 SHL SUB AND PUSH1 0x0 SWAP1 DUP2 MSTORE PUSH1 0x2 PUSH1 0x20 MSTORE PUSH1 0x40 SWAP1 KECCAK256 DUP1 SLOAD PUSH1 0x24 CALLDATALOAD SWAP1 DUP2 LT ISZERO PUSH2 0x92 JUMPI PUSH1 0x20 SWAP2 PUSH1 0x0 MSTORE DUP2 PUSH1 0x0 KECCAK256 ADD SLOAD PUSH1 0x40 MLOAD SWAP1 DUP2 MSTORE RETURN JUMPDEST CALLVALUE PUSH2 0x92 JUMPI PUSH1 0xE0 CALLDATASIZE PUSH1 0x3 NOT ADD SLT PUSH2 0x92 JUMPI PUSH2 0x442 PUSH2 0xCE4 JUMP JUMPDEST PUSH1 0x24 CALLDATALOAD PUSH8 0xFFFFFFFFFFFFFFFF DUP2 GT PUSH2 0x92 JUMPI PUSH2 0x462 SWAP1 CALLDATASIZE SWAP1 PUSH1 0x4 ADD PUSH2 0xCFA JUMP JUMPDEST SWAP1 PUSH1 0x44 CALLDATALOAD PUSH8 0xFFFFFFFFFFFFFFFF DUP2 GT PUSH2 0x92 JUMPI PUSH2 0x483 SWAP1 CALLDATASIZE SWAP1 PUSH1 0x4 ADD PUSH2 0xCFA JUMP JUMPDEST SWAP1 PUSH1 0x64 CALLDATALOAD DUP1 ISZERO ISZERO DUP1 SWAP2 SUB PUSH2 0x92 JUMPI PUSH1 0x84 CALLDATALOAD SWAP1 PUSH1 0xFF DUP3 AND DUP1 SWAP3 SUB PUSH2 0x92 JUMPI PUSH1 0xA4 CALLDATALOAD PUSH1 0x1 PUSH1 0x1 PUSH1 0xA0 SHL SUB DUP2 AND SWAP2 SWAP1 DUP3 DUP2 SUB PUSH2 0x92 JUMPI PUSH1 0xC4 CALLDATALOAD PUSH8 0xFFFFFFFFFFFFFFFF DUP2 GT PUSH2 0x92 JUMPI PUSH2 0x4D6 SWAP1 CALLDATASIZE SWAP1 PUSH1 0x4 ADD PUSH2 0xCFA JUMP JUMPDEST SWAP5 PUSH1 0x1 PUSH1 0x1 PUSH1 0xA0 SHL SUB AND SWAP3 DUP4 ISZERO PUSH2 0xA5A JUMPI DUP8 MLOAD ISZERO PUSH2 0xA24 JUMPI DUP6 MLOAD ISZERO PUSH2 0x9E7 JUMPI ISZERO PUSH2 0x9DF JUMPI SWAP3 JUMPDEST PUSH1 0x1 SLOAD PUSH1 0x0 NOT DUP2 EQ PUSH2 0x9C9 JUMPI PUSH1 0x1 ADD SWAP6 DUP7 PUSH1 0x1 SSTORE PUSH1 0x40 MLOAD SWAP1 PUSH2 0x51D DUP3 PUSH2 0xB50 JUMP JUMPDEST DUP5 DUP3 MSTORE PUSH1 0x1 PUSH1 0x1 PUSH1 0xA0 SHL SUB SWAP6 DUP7 AND PUSH1 0x20 DUP1 DUP5 ADD DUP3 DUP2 MSTORE PUSH1 0x40 DUP1 DUP7 ADD SWAP11 DUP12 MSTORE PUSH1 0x60 DUP7 ADD DUP14 DUP2 MSTORE PUSH1 0x80 DUP8 ADD SWAP6 DUP7 MSTORE TIMESTAMP PUSH1 0xA0 DUP9 ADD SWAP1 DUP2 MSTORE PUSH1 0xC0 DUP9 ADD SWAP10 DUP11 MSTORE PUSH1 0xE0 DUP9 ADD SWAP9 DUP10 MSTORE PUSH1 0x0 DUP15 DUP2 MSTORE SWAP5 DUP6 SWAP1 MSTORE SWAP2 SWAP1 SWAP4 KECCAK256 SWAP6 MLOAD DUP7 SLOAD SWAP1 DUP12 AND PUSH1 0x1 PUSH1 0x1 PUSH1 0xA0 SHL SUB NOT SWAP2 DUP3 AND OR DUP8 SSTORE SWAP2 MLOAD PUSH1 0x1 DUP8 ADD DUP1 SLOAD SWAP2 SWAP1 SWAP12 AND SWAP3 AND SWAP2 SWAP1 SWAP2 OR SWAP1 SWAP9 SSTORE SWAP8 MLOAD DUP1 MLOAD SWAP2 SWAP9 SWAP2 PUSH1 0x2 DUP6 ADD SWAP2 PUSH8 0xFFFFFFFFFFFFFFFF DUP3 GT PUSH2 0x82D JUMPI DUP2 SWAP1 PUSH2 0x5BE DUP5 SLOAD PUSH2 0xB16 JUMP JUMPDEST PUSH1 0x1F DUP2 GT PUSH2 0x976 JUMPI JUMPDEST POP PUSH1 0x20 SWAP1 PUSH1 0x1F DUP4 GT PUSH1 0x1 EQ PUSH2 0x911 JUMPI PUSH1 0x0 SWAP3 PUSH2 0x906 JUMPI JUMPDEST POP POP DUP2 PUSH1 0x1 SHL SWAP2 PUSH1 0x0 NOT SWAP1 PUSH1 0x3 SHL SHR NOT AND OR SWAP1 SSTORE JUMPDEST MLOAD DUP1 MLOAD PUSH1 0x3 DUP5 ADD SWAP2 PUSH8 0xFFFFFFFFFFFFFFFF DUP3 GT PUSH2 0x82D JUMPI DUP2 SWAP1 PUSH2 0x616 DUP5 SLOAD PUSH2 0xB16 JUMP JUMPDEST PUSH1 0x1F DUP2 GT PUSH2 0x8B3 JUMPI JUMPDEST POP PUSH1 0x20 SWAP1 PUSH1 0x1F DUP4 GT PUSH1 0x1 EQ PUSH2 0x84E JUMPI PUSH1 0x0 SWAP3 PUSH2 0x843 JUMPI JUMPDEST POP POP DUP2 PUSH1 0x1 SHL SWAP2 PUSH1 0x0 NOT SWAP1 PUSH1 0x3 SHL SHR NOT AND OR SWAP1 SSTORE JUMPDEST MLOAD DUP1 MLOAD PUSH1 0x4 DUP4 ADD SWAP2 PUSH8 0xFFFFFFFFFFFFFFFF DUP3 GT PUSH2 0x82D JUMPI PUSH2 0x66C DUP4 SLOAD PUSH2 0xB16 JUMP JUMPDEST PUSH1 0x1F DUP2 GT PUSH2 0x7E5 JUMPI JUMPDEST POP SWAP2 PUSH1 0x20 SWAP11 SWAP6 SWAP4 SWAP2 DUP11 SWAP8 SWAP6 SWAP4 DUP13 SWAP1 PUSH1 0x1F DUP4 GT PUSH1 0x1 EQ PUSH2 0x73B JUMPI SWAP2 DUP1 PUSH1 0x6 SWAP6 SWAP5 SWAP3 PUSH32 0x80549E0CD4C1295665FCE479F419866BC743021127C4BB1C915A14E069C89856 SWAP12 SWAP13 SWAP5 PUSH1 0x0 SWAP3 PUSH2 0x730 JUMPI JUMPDEST POP POP DUP2 PUSH1 0x1 SHL SWAP2 PUSH1 0x0 NOT SWAP1 PUSH1 0x3 SHL SHR NOT AND OR SWAP1 SSTORE JUMPDEST MLOAD PUSH1 0x5 DUP3 ADD SSTORE ADD SWAP2 MLOAD ISZERO ISZERO SWAP1 PUSH1 0xFF PUSH2 0xFF00 DUP5 SLOAD SWAP3 MLOAD PUSH1 0x8 SHL AND SWAP3 AND SWAP1 PUSH2 0xFFFF NOT AND OR OR SWAP1 SSTORE DUP1 PUSH1 0x0 MSTORE PUSH1 0x3 DUP8 MSTORE DUP4 PUSH1 0x40 PUSH1 0x0 KECCAK256 SSTORE PUSH2 0x725 PUSH1 0x40 MLOAD SWAP3 DUP4 SWAP3 DUP4 MSTORE PUSH1 0x40 DUP10 DUP5 ADD MSTORE PUSH1 0x40 DUP4 ADD SWAP1 PUSH2 0xC33 JUMP JUMPDEST SUB SWAP1 LOG3 PUSH1 0x40 MLOAD SWAP1 DUP2 MSTORE RETURN JUMPDEST ADD MLOAD SWAP1 POP DUP16 DUP1 PUSH2 0x6C1 JUMP JUMPDEST SWAP10 SWAP3 SWAP2 SWAP1 PUSH1 0x1F NOT DUP3 AND SWAP11 DUP4 PUSH1 0x0 MSTORE DUP2 PUSH1 0x0 KECCAK256 SWAP12 PUSH1 0x0 JUMPDEST DUP2 DUP2 LT PUSH2 0x7B4 JUMPI POP SWAP12 PUSH1 0x1 SWAP3 DUP5 SWAP3 PUSH1 0x6 SWAP9 SWAP8 SWAP7 SWAP6 PUSH32 0x80549E0CD4C1295665FCE479F419866BC743021127C4BB1C915A14E069C89856 SWAP15 SWAP16 LT PUSH2 0x79B JUMPI JUMPDEST POP POP POP DUP2 SHL ADD SWAP1 SSTORE PUSH2 0x6D6 JUMP JUMPDEST ADD MLOAD PUSH1 0x0 NOT PUSH1 0xF8 DUP5 PUSH1 0x3 SHL AND SHR NOT AND SWAP1 SSTORE DUP16 DUP1 DUP1 PUSH2 0x78E JUMP JUMPDEST SWAP4 SWAP6 SWAP8 SWAP10 SWAP12 POP SWAP1 SWAP2 SWAP4 SWAP6 SWAP8 SWAP10 SWAP12 DUP16 PUSH1 0x1 DUP2 SWAP3 DUP8 DUP7 ADD MLOAD DUP2 SSTORE ADD SWAP6 ADD SWAP4 ADD SWAP1 DUP15 SWAP12 SWAP10 SWAP8 SWAP6 SWAP4 SWAP3 SWAP2 SWAP13 SWAP11 SWAP9 SWAP7 SWAP5 SWAP13 PUSH2 0x751 JUMP JUMPDEST DUP4 PUSH1 0x0 MSTORE PUSH1 0x20 PUSH1 0x0 KECCAK256 PUSH1 0x1F DUP5 ADD PUSH1 0x5 SHR DUP2 ADD SWAP2 PUSH1 0x20 DUP6 LT PUSH2 0x823 JUMPI JUMPDEST PUSH1 0x1F ADD PUSH1 0x5 SHR ADD SWAP1 JUMPDEST DUP2 DUP2 LT PUSH2 0x817 JUMPI POP PUSH2 0x675 JUMP JUMPDEST PUSH1 0x0 DUP2 SSTORE PUSH1 0x1 ADD PUSH2 0x80A JUMP JUMPDEST SWAP1 SWAP2 POP DUP2 SWAP1 PUSH2 0x801 JUMP JUMPDEST PUSH4 0x4E487B71 PUSH1 0xE0 SHL PUSH1 0x0 MSTORE PUSH1 0x41 PUSH1 0x4 MSTORE PUSH1 0x24 PUSH1 0x0 REVERT JUMPDEST ADD MLOAD SWAP1 POP DUP13 DUP1 PUSH2 0x636 JUMP JUMPDEST PUSH1 0x0 DUP6 DUP2 MSTORE DUP3 DUP2 KECCAK256 SWAP4 POP PUSH1 0x1F NOT DUP6 AND SWAP1 JUMPDEST DUP2 DUP2 LT PUSH2 0x89B JUMPI POP SWAP1 DUP5 PUSH1 0x1 SWAP6 SWAP5 SWAP4 SWAP3 LT PUSH2 0x882 JUMPI JUMPDEST POP POP POP DUP2 SHL ADD SWAP1 SSTORE PUSH2 0x64B JUMP JUMPDEST ADD MLOAD PUSH1 0x0 NOT PUSH1 0xF8 DUP5 PUSH1 0x3 SHL AND SHR NOT AND SWAP1 SSTORE DUP13 DUP1 DUP1 PUSH2 0x875 JUMP JUMPDEST SWAP3 SWAP4 PUSH1 0x20 PUSH1 0x1 DUP2 SWAP3 DUP8 DUP7 ADD MLOAD DUP2 SSTORE ADD SWAP6 ADD SWAP4 ADD PUSH2 0x85F JUMP JUMPDEST SWAP1 SWAP2 POP DUP4 PUSH1 0x0 MSTORE PUSH1 0x20 PUSH1 0x0 KECCAK256 PUSH1 0x1F DUP5 ADD PUSH1 0x5 SHR DUP2 ADD SWAP2 PUSH1 0x20 DUP6 LT PUSH2 0x8FC JUMPI JUMPDEST SWAP1 PUSH1 0x1F DUP6 SWAP5 SWAP4 SWAP3 ADD PUSH1 0x5 SHR ADD SWAP1 JUMPDEST DUP2 DUP2 LT PUSH2 0x8ED JUMPI POP PUSH2 0x61F JUMP JUMPDEST PUSH1 0x0 DUP2 SSTORE DUP5 SWAP4 POP PUSH1 0x1 ADD PUSH2 0x8E0 JUMP JUMPDEST SWAP1 SWAP2 POP DUP2 SWAP1 PUSH2 0x8D2 JUMP JUMPDEST ADD MLOAD SWAP1 POP DUP14 DUP1 PUSH2 0x5DE JUMP JUMPDEST PUSH1 0x0 DUP6 DUP2 MSTORE DUP3 DUP2 KECCAK256 SWAP4 POP PUSH1 0x1F NOT DUP6 AND SWAP1 JUMPDEST DUP2 DUP2 LT PUSH2 0x95E JUMPI POP SWAP1 DUP5 PUSH1 0x1 SWAP6 SWAP5 SWAP4 SWAP3 LT PUSH2 0x945 JUMPI JUMPDEST POP POP POP DUP2 SHL ADD SWAP1 SSTORE PUSH2 0x5F3 JUMP JUMPDEST ADD MLOAD PUSH1 0x0 NOT PUSH1 0xF8 DUP5 PUSH1 0x3 SHL AND SHR NOT AND SWAP1 SSTORE DUP14 DUP1 DUP1 PUSH2 0x938 JUMP JUMPDEST SWAP3 SWAP4 PUSH1 0x20 PUSH1 0x1 DUP2 SWAP3 DUP8 DUP7 ADD MLOAD DUP2 SSTORE ADD SWAP6 ADD SWAP4 ADD PUSH2 0x922 JUMP JUMPDEST SWAP1 SWAP2 POP DUP4 PUSH1 0x0 MSTORE PUSH1 0x20 PUSH1 0x0 KECCAK256 PUSH1 0x1F DUP5 ADD PUSH1 0x5 SHR DUP2 ADD SWAP2 PUSH1 0x20 DUP6 LT PUSH2 0x9BF JUMPI JUMPDEST SWAP1 PUSH1 0x1F DUP6 SWAP5 SWAP4 SWAP3 ADD PUSH1 0x5 SHR ADD SWAP1 JUMPDEST DUP2 DUP2 LT PUSH2 0x9B0 JUMPI POP PUSH2 0x5C7 JUMP JUMPDEST PUSH1 0x0 DUP2 SSTORE DUP5 SWAP4 POP PUSH1 0x1 ADD PUSH2 0x9A3 JUMP JUMPDEST SWAP1 SWAP2 POP DUP2 SWAP1 PUSH2 0x995 JUMP JUMPDEST PUSH4 0x4E487B71 PUSH1 0xE0 SHL PUSH1 0x0 MSTORE PUSH1 0x11 PUSH1 0x4 MSTORE PUSH1 0x24 PUSH1 0x0 REVERT JUMPDEST POP CALLER SWAP3 PUSH2 0x4FC JUMP JUMPDEST PUSH1 0x40 MLOAD PUSH3 0x461BCD PUSH1 0xE5 SHL DUP2 MSTORE PUSH1 0x20 PUSH1 0x4 DUP3 ADD MSTORE PUSH1 0x15 PUSH1 0x24 DUP3 ADD MSTORE PUSH21 0x10D491505513D497D390535157D491545552549151 PUSH1 0x5A SHL PUSH1 0x44 DUP3 ADD MSTORE PUSH1 0x64 SWAP1 REVERT JUMPDEST PUSH1 0x40 MLOAD PUSH3 0x461BCD PUSH1 0xE5 SHL DUP2 MSTORE PUSH1 0x20 PUSH1 0x4 DUP3 ADD MSTORE PUSH1 0xE PUSH1 0x24 DUP3 ADD MSTORE PUSH14 0x151255131157D491545552549151 PUSH1 0x92 SHL PUSH1 0x44 DUP3 ADD MSTORE PUSH1 0x64 SWAP1 REVERT JUMPDEST PUSH1 0x40 MLOAD PUSH3 0x461BCD PUSH1 0xE5 SHL DUP2 MSTORE PUSH1 0x20 PUSH1 0x4 DUP3 ADD MSTORE PUSH1 0x10 PUSH1 0x24 DUP3 ADD MSTORE PUSH16 0x1253959053125117D0D3D395149050D5 PUSH1 0x82 SHL PUSH1 0x44 DUP3 ADD MSTORE PUSH1 0x64 SWAP1 REVERT JUMPDEST CALLVALUE PUSH2 0x92 JUMPI PUSH1 0x20 CALLDATASIZE PUSH1 0x3 NOT ADD SLT PUSH2 0x92 JUMPI PUSH1 0x4 CALLDATALOAD PUSH1 0x0 SWAP1 DUP2 MSTORE PUSH1 0x20 DUP2 SWAP1 MSTORE PUSH1 0x40 SWAP1 KECCAK256 DUP1 SLOAD PUSH1 0x1 DUP3 ADD SLOAD PUSH1 0x1 PUSH1 0x1 PUSH1 0xA0 SHL SUB SWAP2 DUP3 AND SWAP3 SWAP2 AND SWAP1 PUSH2 0x2E0 SWAP1 PUSH2 0xADA PUSH1 0x2 DUP3 ADD PUSH2 0xB8F JUMP JUMPDEST SWAP4 PUSH2 0xAE7 PUSH1 0x3 DUP4 ADD PUSH2 0xB8F JUMP JUMPDEST SWAP2 PUSH2 0xAF4 PUSH1 0x4 DUP3 ADD PUSH2 0xB8F JUMP JUMPDEST PUSH1 0x6 PUSH1 0x5 DUP4 ADD SLOAD SWAP3 ADD SLOAD SWAP4 PUSH1 0x40 MLOAD SWAP8 DUP9 SWAP8 PUSH1 0xFF DUP1 DUP9 PUSH1 0x8 SHR AND SWAP8 AND SWAP6 DUP10 PUSH2 0xC74 JUMP JUMPDEST SWAP1 PUSH1 0x1 DUP3 DUP2 SHR SWAP3 AND DUP1 ISZERO PUSH2 0xB46 JUMPI JUMPDEST PUSH1 0x20 DUP4 LT EQ PUSH2 0xB30 JUMPI JUMP JUMPDEST PUSH4 0x4E487B71 PUSH1 0xE0 SHL PUSH1 0x0 MSTORE PUSH1 0x22 PUSH1 0x4 MSTORE PUSH1 0x24 PUSH1 0x0 REVERT JUMPDEST SWAP2 PUSH1 0x7F AND SWAP2 PUSH2 0xB25 JUMP JUMPDEST PUSH2 0x100 DUP2 ADD SWAP1 DUP2 LT PUSH8 0xFFFFFFFFFFFFFFFF DUP3 GT OR PUSH2 0x82D JUMPI PUSH1 0x40 MSTORE JUMP JUMPDEST SWAP1 PUSH1 0x1F DUP1 NOT SWAP2 ADD AND DUP2 ADD SWAP1 DUP2 LT PUSH8 0xFFFFFFFFFFFFFFFF DUP3 GT OR PUSH2 0x82D JUMPI PUSH1 0x40 MSTORE JUMP JUMPDEST SWAP1 PUSH1 0x40 MLOAD SWAP2 DUP3 PUSH1 0x0 DUP3 SLOAD SWAP3 PUSH2 0xBA3 DUP5 PUSH2 0xB16 JUMP JUMPDEST DUP1 DUP5 MSTORE SWAP4 PUSH1 0x1 DUP2 AND SWAP1 DUP2 ISZERO PUSH2 0xC11 JUMPI POP PUSH1 0x1 EQ PUSH2 0xBCA JUMPI JUMPDEST POP PUSH2 0xBC8 SWAP3 POP SUB DUP4 PUSH2 0xB6D JUMP JUMPDEST JUMP JUMPDEST SWAP1 POP PUSH1 0x0 SWAP3 SWAP2 SWAP3 MSTORE PUSH1 0x20 PUSH1 0x0 KECCAK256 SWAP1 PUSH1 0x0 SWAP2 JUMPDEST DUP2 DUP4 LT PUSH2 0xBF5 JUMPI POP POP SWAP1 PUSH1 0x20 PUSH2 0xBC8 SWAP3 DUP3 ADD ADD CODESIZE PUSH2 0xBBB JUMP JUMPDEST PUSH1 0x20 SWAP2 SWAP4 POP DUP1 PUSH1 0x1 SWAP2 SLOAD DUP4 DUP6 DUP10 ADD ADD MSTORE ADD SWAP2 ADD SWAP1 SWAP2 DUP5 SWAP3 PUSH2 0xBDC JUMP JUMPDEST SWAP1 POP PUSH1 0x20 SWAP3 POP PUSH2 0xBC8 SWAP5 SWAP2 POP PUSH1 0xFF NOT AND DUP3 DUP5 ADD MSTORE ISZERO ISZERO PUSH1 0x5 SHL DUP3 ADD ADD CODESIZE PUSH2 0xBBB JUMP JUMPDEST SWAP2 SWAP1 DUP3 MLOAD SWAP3 DUP4 DUP3 MSTORE PUSH1 0x0 JUMPDEST DUP5 DUP2 LT PUSH2 0xC5F JUMPI POP POP DUP3 PUSH1 0x0 PUSH1 0x20 DUP1 SWAP5 SWAP6 DUP5 ADD ADD MSTORE PUSH1 0x1F DUP1 NOT SWAP2 ADD AND ADD ADD SWAP1 JUMP JUMPDEST DUP1 PUSH1 0x20 DUP1 SWAP3 DUP5 ADD ADD MLOAD DUP3 DUP3 DUP7 ADD ADD MSTORE ADD PUSH2 0xC3E JUMP JUMPDEST SWAP7 SWAP3 PUSH1 0xE0 SWAP7 SWAP10 SWAP9 SWAP5 PUSH2 0xCB5 PUSH2 0xCC3 SWAP3 PUSH2 0xCD1 SWAP6 PUSH1 0xFF SWAP10 SWAP6 PUSH1 0x1 DUP1 PUSH1 0xA0 SHL SUB AND DUP13 MSTORE PUSH1 0x1 DUP1 PUSH1 0xA0 SHL SUB AND PUSH1 0x20 DUP13 ADD MSTORE PUSH2 0x100 PUSH1 0x40 DUP13 ADD MSTORE PUSH2 0x100 DUP12 ADD SWAP1 PUSH2 0xC33 JUMP JUMPDEST SWAP1 DUP10 DUP3 SUB PUSH1 0x60 DUP12 ADD MSTORE PUSH2 0xC33 JUMP JUMPDEST SWAP1 DUP8 DUP3 SUB PUSH1 0x80 DUP10 ADD MSTORE PUSH2 0xC33 JUMP JUMPDEST SWAP7 PUSH1 0xA0 DUP7 ADD MSTORE ISZERO ISZERO PUSH1 0xC0 DUP6 ADD MSTORE AND SWAP2 ADD MSTORE JUMP JUMPDEST PUSH1 0x4 CALLDATALOAD SWAP1 PUSH1 0x1 PUSH1 0x1 PUSH1 0xA0 SHL SUB DUP3 AND DUP3 SUB PUSH2 0x92 JUMPI JUMP JUMPDEST DUP2 PUSH1 0x1F DUP3 ADD SLT ISZERO PUSH2 0x92 JUMPI DUP1 CALLDATALOAD SWAP1 PUSH8 0xFFFFFFFFFFFFFFFF DUP3 GT PUSH2 0x82D JUMPI PUSH1 0x40 MLOAD SWAP3 PUSH2 0xD2F PUSH1 0x1F DUP5 ADD PUSH1 0x1F NOT AND PUSH1 0x20 ADD DUP6 PUSH2 0xB6D JUMP JUMPDEST DUP3 DUP5 MSTORE PUSH1 0x20 DUP4 DUP4 ADD ADD GT PUSH2 0x92 JUMPI DUP2 PUSH1 0x0 SWAP3 PUSH1 0x20 DUP1 SWAP4 ADD DUP4 DUP7 ADD CALLDATACOPY DUP4 ADD ADD MSTORE SWAP1 JUMP INVALID LOG2 PUSH5 0x6970667358 0x22 SLT KECCAK256 ADDRESS EXTCODEHASH MSTORE8 SWAP5 CALLDATACOPY 0xCE SELFDESTRUCT 0xC5 PUSH15 0xF7C0609D6EFF94BA9EDF54C4264AF4 0xE3 SGT 0xB2 0xC7 0xF6 MULMOD 0xEB SWAP10 PUSH5 0x736F6C6343 STOP ADDMOD SHR STOP CALLER "},"methodIdentifiers":{"activities(uint256)":"0d1657e8","activityCount()":"e6240deb","contractToActivity(address)":"42fda79d","getActivityMetadata(uint256)":"d2a4247e","getActivityMetadataTuple(uint256)":"c3315ec0","getUserActivities(address)":"b42696c8","registerActivity(address,string,string,bool,uint8,address,string)":"222c7ce0","userActivities(address,uint256)":"2e092f9d"}}}}}